:20000000004D0020F1520000FDC90110FDC90110FDC90110FDC90110FDC90110FDC9011026
:1C002000FDC90110FDC90110FDC90110FDC90110FDC90110FDC901103BCA0110A4
:20003C00A36100007F1407134D00F1242E1F133FB00A3F0007FF00003040004001400340BF
:20005C0007400F404F40CF40CF41CF43CF47CF4FCF3FCF2FCF1FCF0F000000000F0008000B
:20007C0000003F00000040003F000000040068000E00DC00060043001A00050000000000E8
:20009C00020000003F00000000000400C00000000400C0000000070050C00091007070C033
:2000BC000091007082312100319110B10070018101B100A18231329110B1019111104181DB
:2000DC0041224F40F106007051C0019130181039833108D01831416F3100319110B18314A7
:2000FC0014165B680070251050C00091F4C3C0C02014036F3110410422C0823121003191D6
:20011C0010B163393110410482C082312100319110B163393110A2C082312100319110B1B1
:20013C00501015310514059200703F6452C0311031066131C102426412C1311021397106D0
:20015C005131E102426400708A65996588C0208250398039001E9F4041C001301814181A62
:20017C0089C0308260398039001EA94041C001301914191A3C64369110B1349110B154B0CB
:20019C00007154A064B0F0800022AF404012B09032B053825339533985643F6411C122C1A7
:2001BC00426470C1C26811C1C2C0426470C1C76850C000912772989215161416421053105A
:2001DC00F0C12182313131398139313151B070B272652772999270B262107310F0C331828C
:2001FC002131213981391B107265E2C08231608280318039020061B00071329110B151A0E1
:20021C0061B0277230C2F36800008012B09032B0007050C000912772999262107310F0C39A
:20023C00318221312139813951B070B27E652772989270B242105310F0C1218231313139C9
:20025C00813931311A107E6551A061B02772B0C018693F6401C122C1426401C1C2C04264F5
:20027C00151A3C64359110B153828564C012B09032B000703F6472C281C0426422C111C177
:20029C00426402C011C1426462C031C3426462C311C1426402C311C1426453825339856482
:2002BC00E2C347641122404142C281C8426452C211C1426472C2E1CE426402C281C8426463
:2002DC0002C201C84264B0C0546900703F6442C201C8426452C211C0426472C2E1C0426416
:2002FC0002C001C1426462C001C3426422C101C1426462C301C1426402C301C14264538252
:20031C008564007061B000711214231C7A4D339110B10070329110B17269007061B0007174
:20033C001318321C8649329110B10070339110B17E690070C2C047641510C2C012164764E2
:20035C0041311514C0C0803105145410A07804040070E6C0863101CC161467106182F0C347
:20037C00010417140070067305720B720E7250B00071818060B050A092804122C3458080E5
:20039C00F1C11004301601110114016CD661D761D861D961DA61DB61DC61DE61E061E26148
:2003BC00E461366339639180F2C0210421318280422A1214321601112114016CEE610B6221
:2003DC00F4613963EE610B62F4613963E661E661E661E661E661E6619464E661F964E661D6
:2003FC002A65E6615665E6614667E6611012B0900E720673057210123090A761F0CF3C67F7
:20041C00D4C103C0C0C3546440785091507810926078209270783092807840929078609232
:20043C003078909110824039F00601101031101400924267E661BCA0E2A054A0F08050222A
:20045C001546408000222B470D6240A02D828D318D391082F1C0100409101A824A391A04A2
:20047C001082803910040E10AB10BC10C21063642972E0CF3C6713B003B0C86653B050B02F
:20049C0054B064B013B0A5661082E0223846AE660071418001222B47F08010224B46F02228
:2004BC00184764B03122384263B0CE661082E02238467066386264B06F818F318F3DD0DFD8
:2004DC00FF923C670071418001222B4764B0F0805022654263B01182C1226046CE66056799
:2004FC001182D122524670665262618172818131813D8231823DC0EFF19202933C670B62AA
:20051C00B081C091D381978290A2D3187F4EF30B1316E31CA44AC391E3813B149062BA1C03
:20053C008B46231E8B4AE31C8B4E90B207228B4290A21B1A9662E31CA44AC391E3813B1851
:20055C00AB1CA04E9B1CA24ABC1CA442B2101082D0229D42F0801022A4466364A566A462E0
:20057C00AB1094629B10946200703082F1C0100463B00071A86ABC10E0B00070B281C2913E
:20059C00D281018212185181121841828131813D121CBF4AE2B032B0B0DFF2923C67F1C7F7
:2005BC002114C34E12C86291729131B0E1B0007008C006C000C86091709100700182B081BB
:2005DC00C091D0811018518110180614E18042828231823D201CE44AE2B02122E84632B03B
:2005FC000510A0DFF5923C672122E842E2A032B031824139F0C00104011EF642181610C019
:20061C001030081C04476010103C0610F1C76114FA4E16C8669171818131813D161C014B13
:20063C00769131B006C008C0007061818131813D408280390118F11C174B0114B080C0223C
:20065C001747BCB033B090EFF1920F933C67007003A063B064B0EFB05665007140800022A3
:20067C002B4764B02A65EFA00071408000222B4764B003B03862018262818231823D80EF4D
:20069C00F19202933C6703A05665E661A2806364E66150B00071E661E092D08200223D478C
:2006BC00C0B20070A080F022594330B002C1623101C0A080001E5243F0225343A0F56031D6
:2006DC00603953632010101A136F236E11161216546B0070AD040021490400217D040021E2
:2006FC0081040021110500219105002141060021F8B51047F8B50E4600210125AD0430476E
:20071C000A48037800F00FF89B070BD0124C2078FF2807D0FF2121700E490F2424022043C4
:20073C006031C882F8BDF8B5014800476B020021E54C0000094801E00848000C064C0549E3
:20075C002278FF2A01D1CA7A22706031C8827046801C004700620840A4060021070F080803
:20077C00F0B4084770B503461546012906D0002906D0114A2846FFF7BBFF70BD0F4800E0C5
:20079C000F480524834203D84008641E002CF9DCE340012040031818820B012907D00649BE
:2007BC00002380312846FFF7A5FFE0B270BD0249044B6C31F6E70000835C0000A0BC86238A
:2007DC0000830D2374060021F8B51A4E0546716B1948CC09E401002D11D01849097802293D
:2007FC000FD0007B044372B60120154F4002B847114820380088C109C90704D016E0C07A77
:20081C00F0E7407BEEE70F497463CC61400AC0070CD001208003316B002D01D0014300E0AA
:20083C008143084631630749403948630020B84762B6F8BD80020021880000219B0200218C
:20085C007B3F00004040044010B5224A0021516121498968C90009D42149204BCA0598427B
:20087C004B6B01D8134300E093434B631D49FFF777FF10BD38B51A4D287F002827D11A48F7
:20089C000088C009C00722D1124C606900281ED1684600F045F868460078012817D1684633
:2008BC004078102813D208206061686A4009400120600E4A0021D1620D4A022111600121C9
:2008DC0008432060032108436862206038BD0948804738BD0040044018000021000093081E
:2008FC0080020021CF680000680000210011044080E200E0C33B00000749002800D0042078
:20091C00064A72B60978C90701D0105800E0802062B640B2704700006B02002158600440EE
:20093C0003B40148019001BDA56F000000000000010003000A001F005900EB003902EA049E
:20095C00F9099712EB1FA132784A0A66FA828C9E63B617C964D6EDDEC1E3E0E5FF000000B5
:20097C00190880801B08808007088080060880800B2000C0132000C00C2000C00F2000C041
:20099C00122000C00D0080800400C0800500C0800E00C0801A008080140080801800C080DF
:2009BC001E00C0800300C080FE0000008F3F00008F3F01008F3F02008F3F0300903F00016E
:2009DC008F3F0101903F0002903F00038F3F01048F3F00058F1208048F3F00048F3F00068F
:2009FC00513F00007F3F01003F3F04003F3F02003F3F01007F3F02007B756E6B6E6F776EC0
:200A1C002D696E7374616E63652D6E616D657D007B656D7074792D696E7374616E63652D94
:200A3C006E616D657D00C0467B7374617469632D696E7374616E63652D6E616D657D00C0E6
:200A5C007BC80110C5BC0110D9B2011033C20110BDAD0110C1B101106DBA011065BB01108B
:200A7C001DC00110FFFFFFFFC4090000000000006345000001001A010100000000000000DE
:200A9C000000000000000100000000000000000079380000854800000101010041B50110B1
:200ABC0095A6011015B80110FF00000000000000FFFF00000A000000441D0020755B000098
:200AE00000C500000FC90101007500850ECF01A55BFF0000B94E00005D5EFE1093071800FE
:200B000000384037FF00A3840600204000FF7F64404000030507FFB123053305830548FF4A
:200B20000A0306B87A02009FFF84020044C7030401FF02638410004302B0FF040200DF7DE9
:200B4000838803FF008460F13588601AFF418C601382A388FBBF000200F80CFF0000C8A762
:200B60001B0020003109790417C502EF0000080E01B307C201B1100C7F060D7E1BC8C5A7F6
:200B80001C93F53D5C0FD7B41D00200175027DF602F5401112FD0100741C93002000310189
:200BA000BF029001B0003198AA0034A00034A80034B00034B86A0034C00034C800348540ED
:200BC0002717410527C01102284802F11872381C89FF21030F00800024047FA00008003F8D
:200BE000A77014B0AF6403008003F102027A18FF88DE510B9380AABB1E1F1A9C01002000AD
:200C00003120F120A94B1B5D2FD364127000316C0034357400347C0034030825490790E4CC
:200C200025F507BB1E07B134F99959005D0002C1FF00143662CC1D904604A1080A0F64200F
:200C40000005A53727F4FFB12F000013200580950C0030FE39C0EF1CF0003107AB088000D3
:200C6000F20600741B00F4195E0174281E0020003130003455380034400034480034500011
:200C800034555800346000346800347000341178003441F92BF500FFF0007D000000921E38
:200CA00000208400305988007000F1004D00700300927F200101000008130174000044FF58
:200CC000F000F30100000700B9641D0020EC01A802528C1E0133340100052000313C00340D
:200CE000FFF0009D0000016CDC02007200C07CEF1C00200300C44D56001F00635C0000FFFD
:200D0000F0007D000004181C0020C80030F101010000310029441D0020000031FFF0007BAD
:200D20000100000F00981C0020016100FFF00000014B00008B5D0000FD5D0000003D0000B3
:200D400000181C0020FFF0000200000055180000000F08000000FFF00001000000FFF000EB
:200D600001000004FFF00001000004FFF0000000E00A0000601A0020990C000044010020FD
:200D8000C10C000000010020E20C0000A4010020010D0000780100201E0D0000C8010020F7
:200DA0003C0D0000E4010020480D000008020020500D000000020020580D0000EC01002075
:100DC0005F0D0000F0010020660D0000F80100201A
:201000003C000000000000000000000034100000000000000000000001000000000000004F
:1C10200000000000000000000000000001000000000000000800000000000000AB
:20103C003400000000000000000000006810000000000000000000000100000000000000E7
:14105C00010000000000000000000000080000000000000077
:2010700030000000000000000000000098100000040000000000000001000000FFFFFFFF87
:10109000FF00000001000000080000000000000048
:2010A0002C0000000000000000000000C4100000040000000000000001000000FFFFFFFF2F
:0C10C000FFFFFFFF080000000000000020
:2010CC0038140000E410000095A1011091A70110A1C2011009B2011041B80110A5BC011078
:0810EC0085BC01102F0000007B
:2010F400280000000000000000000000141100000000000000000000FFFFFFFF0000000093
:081114000800000000000000CB
:20111C00341400003011000065C2011069C101101BC2011091BA011005BC0110E5BB0110EA
:04113C002D00000082
:20114000341400005411000071C20110A5B6011099BF011045B60110B5BA011025BC01104B
:041160002E0000005D
:201164002400000000000000000000008011000000000000000000000000000008000000AE
:041184000000000067
:20118800240000000000000000000000A41100000000000000000000000000000800000066
:0411A8000000000043
:2011AC00240000000000000000000000C8110000000000000100000000000000080000001D
:0411CC00000000001F
:2011D00000000000281E0020040000000000000000000000200000007010000030000000C5
:2011F0001C110000301E00200400000000000000000000000C0000003013000018000000D9
:2012100040110000381E00200400000000000000000000002400000048130000180000005C
:2012300000000000401E002004000000000000000000000010000000A01000002C00000030
:20125000CC100000481E00200400000000000000000000002000000064110000240000005F
:20127000FFFFFFFF501E0020040000000000000000000000280000008811000024000000EB
:20129000FFFFFFFF581E0020040000000000000000000000580000003C10000034000000D0
:2012B000FFFFFFFF601E0020040000000000000000000000100000006013000018000000E5
:2012D000FFFFFFFF681E00200400000000000000000000001C000000AC110000240000005B
:2012F000FFFFFFFF701E002004000000000000000000000038000000F410000028000000CC
:20131000FFFFFFFF781E002004000000000000000000000054000000001000003C00000067
:1813300018000000000000000000000040130000080000000000000032
:1813480018000000000000000000000058130000080000000000000002
:18136000180000000000000000000000701300000800000000000000D2
:0813780001000000D80A00008A
:041384000100000064
:0413880000000E0053
:04138C0000000F004E
:041390003200000027
:041394000100000054
:04139800B41D002060
:04139C00000200004B
:0413A0000000000049
:0413A400FDC901106E
:0413A8000000000041
:0413AC00000000003D
:0413B0000800000031
:0413B4000000230012
:0413B800601C002095
:0413BC00010000002C
:0413C000CC1D002020
:0413C400080000001D
:0413C8000000000021
:0413CC00000000001D
:0413D0000000000019
:0413D400080000000D
:0413D8000000000011
:0413DC00000000000D
:0413E0000100000008
:0413E400C81C002001
:0413E80006000000FB
:0413EC0001000000FC
:0413F000C81B0020F6
:0413F40000000000F5
:0413F80000000000F1
:0413FC0000020000EB
:0414000000000000E8
:021406002800BC
:021408000100E1
:02140A002400BC
:02140C002D00B1
:02140E002E00AE
:021410002F00AB
:021412000100D7
:0114140001D6
:0814180003000000B80A000007
:081420000000000000000000C4
:0414280000000100BF
:04142C0000000300B9
:0414300083C4011060
:041434003C14000064
:041438003C14000060
:04143C0000000000AC
:041440009000000018
:041444009000000014
:0414480000000000A0
:04144C00CC1D002093
:04145000095D000032
:041454002000000074
:04145800940A0000F2
:04145C005C0A000026
:0414600009C30110AB
:04146400655E0000C1
:04146800675E0000BB
:04146C0095C801100E
:0414700097C8011008
:041474000000000074
:04147800A60A0000C0
:04147C002C0A000036
:04148000440A00001A
:04148400140A000046
:0214880008005A
:02148A00090057
:02148C0001005D
:02148E0000005C
:01149000015A
:041494000000000054
:041498000000000050
:04149C00000000004C
:0414A0000000000048
:0414A400615E000085
:0414A800E953000004
:0414AC00B55800002F
:0414B000F5540000EF
:0414B40029550000B6
:0414B8007D5600005D
:0414BC0035470000B0
:0414C000995D000032
:0414C400054E0000D1
:0414C8000DC801103A
:0414CC001DC8011026
:0414D0000800000010
:0414D40024000000F0
:0414D80018000000F8
:0414DC0028000000E4
:0414E00020000000E8
:0414E4003C000000C8
:0414E8000C000000F4
:0414EC0034000000C8
:2014F0002DE9FE4FC24C0F460546F80B80F06381B80880F0EF80DFF81483DFF814B3DFF8F2
:201510001493C54EDFF814A3B80F70D2C4480578002D50D1380950D3C24801254146057003
:2015300000240C70204604F0CFF9BF4804F034FCBE492246584604F080FCBD480178012989
:2015500022D149460B78FBB9BA4D2868A8B104F097FB2A46B9493568DFF8DCC212680B68DB
:20157000401B000BC318CCF80000B3EBC21F03D322460A6011460AE00B60B2484FF00051F9
:2015900004F044FB224614E0214605702246504640F609030380437B03F0F00343F0010332
:2015B00043734480037B03F0F00303734160A44D2860326018E0390914D2B80BC0F01F81E8
:2015D0002046001D04F040FC061C08D0706830B17468F068B6F91C10A3A20CCAA04727F469
:2015F00000570CE10021017027F0080707E1A968088840F60204844207D00A8B4FF61F6024
:20161000104040F43470088306E00A8A4FF61F60104040F4347008823368DBB1042004F0D8
:2016300053F8B8B104F02CFB3168814226BF401A401E401A000BE860688AE9684018E86042
:20165000E96840F6C410884203D340F2EE228A4200D9E860AE6996B17B48B0420FD05046C8
:201670000D30007810F00F0F09D1688CE41D844205D17FA20CCA28466FF48071B0477349B0
:201690005846002204F0D9FB4C46207858B10220ADF80000684604F027F900216C4E21708A
:2016B000BDF8080030806B4A6B4B414601200024087010781C70401C1070192004F04EFB98
:2016D0006E6926B16CA20CCA28462146B04727F0005794E004F10C0A504604F0B5FB061C53
:2016F00060D003F095FE7368B2690025B561E3B1F37F42F002024FF00009904603F007039C
:201710005B1E07D05B1E03D09B1E06D15CA002E05DA000E05EA090E800037268F068B6F978
:201730001C104B4694464246E04704F03DFC8046B4F91200401C6FF31F306082E068C5772E
:20175000504604F01BFA404604F02AFCF068B0F9B810B4F91220914224D140490978012996
:2017700020D090F8BA40C4B90468B4B13D4A3C49126809681268B2F1FF3F13D0B4FBF1F2D2
:20179000012A8CBFB4FBF1F10121703004F004FCF068703004F0FCFB04E080F8BA502846C5
:2017B00002F04CFF504604F04FFB27F0020708B147F0020723E004F0F7FB01462046083021
:2017D00004F042FB0646B469A00813D296B124EA0400B061084604F0E3FB706868B175687A
:2017F000F068B6F91C1000232246A84705E0C046BC190020084604F0D3FB27F480471FB18A
:201810001048394604F002FABDE8FE8F551A002058190020FE1700203C1A0020D0190020EB
:20183000591A0020FF170020C146000049580000571A0020381A0020401A0020341A00203C
:20185000001004403418002063450000FD310000A41900205B1A0020541A0020901E002014
:20187000D00A0000441A0020000000002000000000000000000000020000000000000004DA
:201890000000000000000010000000000000004000000000000000202DE9F047DFF80CA2F6
:2018B0000746AAF13500DFF8F8810068800880F0E78003F061FF814908310B6800261A17C4
:2018D000990D02F101020AD2C0F13E0110F10A0F4FEAE101D8BF08218A42B8BF0A1CDFF85B
:2018F000C4C1990E0FD2590E0DD36446143C2168C1F304211629A8BF20392468C4F304647E
:20191000162C0EDB0CE0634CD4F87C11C1F304611629A8BF20392468C4F30444162C00DBD8
:20193000203C5118A146162905DA11F10A0FB8BF6FF0090100E01521574C584D01F01F0262
:2019500042F4F85222802A6812F0030F18BF0126D20828BF46F002060FB146F0040642462A
:2019700092F90740041B052C04DA9479B44208BF918865D00F28A0F10F0827DB08EB001457
:20199000A4F1F0084FEA282EBEF1070F88BF4FF0070E7546062D88BF06255CF8257004244A
:2019B00004EB850465462C59E41B04F0FF05F70824BFC4F307273D44B70824BFC4F3074789
:2019D0003D44770828BF05EB146501E00025AE465CF82EC0F7080CF0FF0424BFCCF307279D
:2019F0003C44B70824BFCCF307473C44770828BF04EB1C64ADB2A8EB0E27B9EB010105FB86
:201A100007F505F1800504EB1524D8BF012103F0FF0334254D435D434FF6FF73B5FBF4F194
:201A30008B4238BF191C802889B2918005DA10F1800FB8BF6FF07F0000E07F20D07196711E
:201A5000194800681F2910604FF0000008D340F2FF128A4206D24908401C8A42FBD301E0CC
:201A70001F219180124F0F39090940EAC10047EA0001CAF8FB1F0026CAF8FF6FBDE8F087DF
:201A90000C490D4F424608200F60921D1070BDE8F087C0463C1100506E62084024220840D2
:201AB000281A00209C130050082009403500094000E7A48030100940FDFDA400AC3F005059
:201AD0002DE9F04F0128ADF1140D40F0F280DFF81492D9F8DC00012840F0E9800220C9F848
:201AF000DC0004F051FA0290012003F0D5FB20B101210646C9F8DC10D5E004F041FA0390E2
:201B10006E484FF00008C0F80080012003F0DCFD012818BFCDF8008004D1404603F0C4F943
:201B30000120009066486E4CC0F800801934D4F8FF0F112004F04EF900280CBF464601260B
:201B5000102004F047F908B146F002060F2004F041F908B146F004060B2004F03BF930B190
:201B7000584800685849006B0246088890470A2004F030F90028404618BF01204FF0805B8B
:201B90000BF5DC7528B128685049006B0246088890474F480127076028688069014646F0AC
:201BB000200088474B48076004F00EF900F001010191400815D2484804F0D8F88246BAF1B7
:201BD000040FF8D0BAF1010F06D1DBF8D801406802464148032190474049086820F003005C
:201BF00008604046FFF758FE2868D4F8FF1F806B8047019801280ED0BAF1010F06D1DBF86A
:201C1000D801406802463448394690473349086840F0030008602A48076028684069014639
:201C3000304688470B2004F0D5F828B128682649C06A0246088890470A2004F0CBF828B1F8
:201C500028682249C06A024608889047204807600322C9F8DC201F4BC3F800802868406B0F
:201C70000146304688470128F8D1042003F014FB124807601A48D4F8FF1F01688909FCD3D9
:201C90000098012802D1384603F00EF904F090F8082003F001FB06460398C9F8DC7004F0AD
:201CB0006BF903F04BF8029804F062F902E0042600E00126304605B0BDE8F08F0C4009409A
:201CD00000022243B8010010F6090000F20900002820086080010443004003402422084041
:201CF00014100940601A00202DE9F0411C4615468C4208BF854282BF00230022E5E0002CF6
:201D100008BF002D0AD100290EBF00286FF000006FF0000100F0E1F8BDE8F0815FF00008D1
:201D30005FF0000E002C08BF8D429CBF2C1C0025070C47EA01470E0CB44208BFBD429EBFED
:201D50005FEA044444EA15445FEA0545070A47EA01670E0AB44208BFBD429EBF5FEA04247C
:201D700044EA15645FEA0525470847EAC1774E08B44208BFBD4200F29380870847EA8177B2
:201D90008E08B44208BFBD427CD8C70847EA4177CE08B44208BFBD4266D8070947EA01774C
:201DB0000E09B44208BFBD4250D8470947EAC1674E09B44208BFBD423AD8870947EA8167A1
:201DD0008E09B44208BFBD4224D8C70947EA4167CE09B44208BFBD420DD8E60146EA5566B1
:201DF000EF01B14208BFB84201D3C01BB14158EB08085EEB0E0EA60146EA95664FEA85172F
:201E1000B14208BFB84201D3C01BB14158EB08084EEB0E0E660146EAD5666F01B14208BFB9
:201E3000B84201D3C01BB14158EB08084EEB0E0E260146EA15762F01B14208BFB84201D3B5
:201E5000C01BB14158EB08085EEB0E0EE60046EA5576EF00B14208BFB84201D3C01BB141C8
:201E700058EB08084EEB0E0EA60046EA9576AF00B14208BFB84201D3C01BB14158EB080872
:201E90004EEB0E0E660046EAD5766F00B14208BFB84201D3C01BB14158EB08085EEB0E0E80
:201EB000A14208BFA84201D3401BA14158EB08085EEB0E0EA34208BFAA423EBF2D0A45EABA
:201ED0000465240A89D3734642461E4617460B46024631463846BDE8F08170472DE9F84351
:201EF000814603F05FFF002100B90121724E30680028FCD0734D01242D1DEF6A346009B19C
:201F100003F056FFDFF8B481C7F3072008F1BC01086003F047FF002100B921463068002824
:201F3000FCD02F68346009B103F042FFC7F38440C8F8C00003F036FF0146002001B92046FF
:201F5000014630680028FCD0ED69346009B103F02FFFC5F38120C8F8D000B9F5C061C8F861
:201F7000B81000F0A48098F8D80068B9C8F8D410D8F8C000C8F8C800D8F8BC70C8F8C47040
:201F9000D8F8D060C8F8CC60D8F8D410D8F8BC60002954BF02206FF00100454605F1C8039B
:201FB0001A6801EB41014018411000EB917002EBA0021A60D5F8C810C5F8C46000291CDD1B
:201FD0001E293DDDD5F8CC0030B93429B4BF15391E21C5F8C81025E02A29BABFD5F8C800B6
:201FF0000B381E20C5F8C800D5F8C4003F28B4BF401C3F20C5F8C4001FE0D5F8CC00032861
:2020100012D011F10B0FC6BFD5F8C8000B30201CC5F8C800D5F8C4000028CCBF401E0020DA
:20203000C5F8C400032009E011F1150FC6BFD5F8C8001530201CC5F8C8000020C5F8CC0014
:202050004FF08058D8F8A401B5F8C4101C4E40684FF47F4208230746009130463021B8477E
:20207000D8F8A401406804214FF400321123074600943046B847D8F8A401B5F8C81040686D
:202090004FF4F80212230446009130460421A047D8F8A401B5F8CC1040684FF440620A23A9
:2020B0000446009120213046A047BDE8F883002088F8D800BDE8F88300800C40601A002079
:2020D00000A00C4000A00C402DE9F84F994692468B46044603F068FF624D0AAFB5F9122047
:2020F000B5F91010009040F6F870891A0840082880F2A080B5F91000401C6FF31F302882B2
:20211000B5F9108003F020FC064604F1700003F04BFC86F81EA0C6F808B0C6F80490F4601F
:20213000DFF844A1A6F81C8097E80C005BA003C8002719401040F77706F1100383E8030092
:20215000286800286AD12846314603F0B1F9002869D0A4F8B880F07F40F08000F07794F8B3
:20217000BA00012803D184F8BA70504607704949DFF8F8900C7864B1484604784CB13D4ACD
:202190003B4B0F7050460121077010781970401C1070009803F004FF686800285ED14846CB
:2021B0000078002836D134480078012856D003F0FBFE04463148007840BBB06802F01AFFE0
:2021D0003049354B2E4A09681B681060B0B1DD681068401BB0FBF1F0012898BF012104D996
:2021F000DB681068C01AB0FBF1F1274D284603F0D3FE284603F0CCFE20462DE0204603F010
:20221000CFFE2248042103F001FD27E0204901200870F1E7192003F0A1FD1FE028463146D2
:2022300003F046F948B9B5F9100000F6FF706FF31F3028826FF001080DE0A4F8B880F07F45
:2022500040F08000F07794F8BA00012803D184F8BA7050460770009803F0A2FE4046BDE80B
:20227000F88FC046BC190020FE170020551A0020591A00205B1A0020541A0020FF1700201C
:20229000381A0020D00A00009C18002034180020561A0020581A0020441A0020F1EFFF9F84
:2022B000200000002DE9FC416F4C204603F0CCFD15460E46009003F077FE8046304605F0E6
:2022D0000106B0F1FF3F0DD1606820B9B4F91200401C00B202E06068B0F91C00634900227F
:2022F000C91C0A7003F01CFA8427002800F0A4806168814270D0009EDFF848C1B04231D042
:202310003EB100990A68904209D0096800290091F7D1002F44D0404603F042FE40E0604653
:2023300003F042FB00990868AA0803D202680B4601461A6000220A60009078B10C34014685
:20235000C87F40F00400C877684603F017FC0146204603F0ADF800980028F0D1404603F0C0
:202370001FFE1CE0604603F01FFBA8083ABF2068006800202060404603F012FE0C340099E6
:20239000C87F40F00400C877684603F0F7FB0146204603F08DF8009808B1A808EFD20027D2
:2023B00029482C4A007890B928480078012846D0274803F0F1FC0221104603F027FC2648F2
:2023D000007801283BD0254803F0E6FC37E01046022103F01BFC32E0A90803D321680091B2
:2023F00000272760C27F0121B1401143C17703F0C7FD0746002E14BF19481A4803F074FA16
:20241000404603F0CDFDA80811D3009878B10C340146C87F40F00400C877684603F0AEFB89
:202430000146204603F044F800980028F0D1384603F0A2FD002702E0404603F0B1FD384671
:20245000BDE8FC819C180020541A0020FF170020F114000034180020551A0020BD3B0000BA
:202470000100020401000104BC190020A41900202DE9F04FADF1840D209000F067FC02F0F4
:202490007BFE0024012804D103F000FB022808BF012459490868C0F38150012805D151F8AF
:2024B0000C1C0120090E884004435448007803F09FF9DFF84C81DFF84CA1C8F8000030B1F5
:2024D0005246FF2107467F1E02F8011BFBD120990968002501F0FF02FE2A1BD0DDF880C0FF
:2024F00052462B46012701F0FF06FF2E0BD0B04203D907FA06F6344201D0022079E001F01F
:20251000FF01354353545CF8041F5B1C01F0FF06FE2EEAD1092001F07BFA3B4920982422B0
:202530000823086001A8002103F01EFD4FF0010901AA3E488DF81C90494603F011FDD8F815
:2025500000303BB33A4E00274FF0040BBA4609FA07F0044218D1054204BF07F0FF0141F4F1
:20257000C04104D027482099C05D51F82010274800F0C4FFF8B24FF0FF3103F051FAD8F86F
:202590000030C6F800A001E0C6F800B07F1C361D9F42DCD30AA800213022082303F0DCFCB5
:2025B0001B4D1D4A2878002410210AAB12901948009403F0CDFC16A828220823214603F0B2
:2025D000C3FC686816AA16491C9014481D94234603F0B6FC134A52F80D0C494620F4F850CB
:2025F00040F4005042F80D0C0F4BC2F8FF1F2046196021B0BDE8F08FB43F00505A1A002017
:20261000301A0020001900204C1A0020007FC767C40A0000201900204D5A000000180020CE
:20263000D15100000D300940080009403C190020501500202DE9FC41654C5E4D5E4EDFF865
:202650008081624F94F8E410481E0B2866D8DFE800F0802C43062343062343067B690429CC
:2026700007D001220A2945F8212C14BF0220032004E02021012045F8211C024684F8E20015
:20269000002045F8390C0827C5F8FF7FC5F8F37F45F8392CBDE8FC81052914BF09200620DB
:2026B000002584F8E40035607DE094F8E1700120383D002FC5F81B0004BF0620002102D03D
:2026D0000021F160032084F8E400032045F8010C31603068800866D294F8E410374801257A
:2026F00003290FD000684068002160220523074600914046B84794F8E400062814BF0A20E6
:202710000720CEE7006840680221602205230746009140460021B8470420C2E703F00CFCA4
:20273000BDE8FC812749002627480E60012505600E2001F003F9022002F020FF84F8E4506B
:2027500084F8E360BDE8FC81002038600C25786027E04FF08056D6F8A0010068014620204D
:2027700088472C3D0F2045F8010C41F61D53C5F80330D6F8A401406800214FF4C072022529
:202790000723844640460095E047D6F8A401C06800214FF4C072072306464046B0470120AE
:2027B000386084F8E45004F1780003F0F1FBBDE8FC81C04639400C4038600C40A4010010EF
:2027D00000A00C402C500C4004800C4034600C40601A002000B5ADF13C0D0891079002A875
:2027F00003F06CFA00200A9049491E2008704A484849086049484949007820F00F0040F0F9
:20281000020008704549087840F0800008704449002008604448464A444902AB01F060F943
:2028300040490860002000218DE803003D484149006800220023FFF747FC02F025F9099040
:2028500000200A900A98002854DC3B4832490088001208703849394A08881070401C0880AC
:2028700002208DF838009DF838001E280EDA02F068FC9DF83810284A50549DF83800401CFC
:202890008DF838009DF838001E28F0DB09992C4840180990224909980860002000218DE85C
:2028B00003002048274900680022002302F0ACFC0CAA82E803000CA890E80C000221002048
:2028D0001140184000D1002900D1FEE7192003F0EBF90022002100B1012101B901221A482A
:2028F0000068192102F05AFD0A98401C0A900A980028AADD0B48006800F004FD13490020CC
:2029100008701348006801F0EBFF0FB000BDC046AB1D0020B01D0020E0180020A81D00203D
:20293000A41D0020D017002090140020E41D0020F81C0020841D0020FC170020E118002079
:2029500080841E009C1D0020E8170020941E0020D81700202DE9F04F0746880FADF1140D74
:20297000C0F09A8002F096FB524D00261C352E604B4845F81C0C012002F0A6FF494803F022
:202990000BFA4949BC684C4A40F60A09B3468A460B7B66801278A1F80090487B4E80D046FE
:2029B000C1F804B003F0F00300F0F000012A0B7340F00100487301D17B7CABB1B868018871
:2029D0004B46A3F10800884205D0218B4FF60F400840208304E0218A4FF60F4008402082E3
:2029F000B8687E7400F06AFEB868694600F0D2FE684603F093F9494600E01C46636813B141
:202A100018888142F9D1C4F804A0607B00F0F0006073264803F018FA80680088C91F8142FD
:202A30001FD0491C81421CD0388CD0B197F82C107E8497F82D00C7F824B001F0F00100F050
:202A5000F00087F82C1040F0010087F82D0007F12003C8F8043098F80D0000F0F00088F8D2
:202A70000D0028680028FCD02E60012002F02CFE012808D0607B00F0F00040F0010060732A
:202A90000B4803F089F9B9680A8A4FF6FF3010400882B86845F81C0C05B0BDE8F08FC046F7
:202AB00001010E04F1140000D0190020BC1900208D4C000000100440571A002008B500F084
:202AD00045F94248FFF7D4FC10B127A003F030FA4048414901F01AFB3D4908603C480068C1
:202AF00010B927A003F024FA3D483E4901F00EFB3A4908603948006810B921A003F018FABC
:202B10003A483B4901F002FB374908603648006810B924A003F00CFA3748384901F0F6FA7C
:202B3000344908603348006810B91EA003F000FA334803F099F834483249086033494FF42C
:202B50000070086032482E4A3249002303F0ECF93149012008702148006801F0F7FE03F068
:202B7000DFF9002008BDC0464572726F7220776974682050494E5F696E69740A00C046C0B2
:202B90004572726F7220696E697469616C697A696E6720626F617264204C45442070696E6C
:202BB000730A00C04572726F7220696E697469616C697A696E6720626F617264204C454476
:202BD0002070696E732054580A00C0467C090000D8170020081A0020181E0020D4170020F8
:202BF000141A0020201E0020DC170020F0190020081E0020E0170020FC190020101E0020FD
:202C10008C170020A817002008100020AC1700202416002041420000941E00202DE9F041F1
:202C3000424C464D8046C8F38140401E02D0401E2AD025E0284620300168880C20D24FF4A4
:202C5000804020603A48D0F802204B0AC1F3033703F0800322F08F02134347EA0302C0F818
:202C70000220D0F801300E1266F30303C0F80130026801F0E70722F0E70247EA020102E067
:202C90004FF00041204601602F4E301D0068C0F3C0070FB94020A0624FF40070206403F0DD
:202CB00045F840F0300084F8C800C8F3815040B3401E03D0401E1FD002211EE0012002F0F2
:202CD00003FD07460420394601F078FF042002F0FBFC8742FAD1361F366826F07F4002F031
:202CF00035FC14480068036807214FF06022300E98474FF4806020600321042001F05EFF25
:202D100006E00420012101F059FF0B4802F01EFC284600680A4947F6180700F03F0084F89F
:202D3000CB0F084E0F803068BDE8F08140A00C400A600840B4010010BD3786006C1300502A
:202D500070B00C402C200940AC3F00502DE9F043484C94F8E700ADF12C0D002877D13D4F04
:202D7000387B01250021242284F8E7507E6884F8E6000823C4F80C6101A803F0CDF800262D
:202D900004F10C00069601ABADF8146032490796324603F0BDF8314904F1300001AB3246C6
:202DB00003F0B6F82E4904F1540001AB324603F0AFF8B868014628468847DFF8AC802948CC
:202DD0007B7B0078D8F80410C1F381571BB1032F03D184F8E150032F1ED0022F1CD0012F19
:202DF0002ED14FF08059D9F8A401204C406803214FF040521C230746009131462046B84734
:202E1000D9F8A401406831464FF400720923074600952046B84713E0022002F0C7FB032FEA
:202E30000CBF4FF47A7142F21071114800685434B1FBF0F1204603F0AFF8204603F0A8F805
:202E5000D8F80000C00802D2304602F0AFFB0BB0BDE8F083A80A000057540000B1410000C2
:202E7000D14200005A1A0020B03F005000A00C40D00A0000601A002070B5ADF1380DFFF7FE
:202E900065FF324908682822082340F00200086001A8002103F058F82D4EB0782E49079006
:202EB0002C48002301AA03F04BF800213022082301A803F051F8002519213078284AADF8E9
:202ED0001C5001AB09902548009503F041F82822082301A8294603F037F8F07822490790EA
:202EF000204801AA2B4603F02BF83022082301A8294603F031F801241A2170781C4AADF824
:202F10001C4001AB09901948009503F021F8194819492A46134602F0FBFF184802F03CFFF9
:202F30001849194E0C70164835704FF6FF728282C575164B1D70164C257016490D70174E20
:202F50003560154A15700EB070BDC04600200940CC0A000034180020ED5B00005819002073
:202F70004958000068180020E5430000741900200D4F00009C180020ED550000BD3B0000C1
:202F900090190020FE170020571A0020541A0020FF170020581A0020591A00203C1A002033
:202FB000ADF1300D464800904648019035200A90009850F8041B00900291009850F8041BD9
:202FD00003910090009850F8041B04910090009850F8041B05910090009850F8041B0691DE
:202FF0000090009850F8041B07910090009850F8041B08910090009850F8041B09910090B9
:203010000198011D0191029901600198011D0191039901600198011D019104990160019835
:20303000011D0191059901600198011D0191069901600198011D0191079901600198011D87
:203050000191089901600198011D0191099901600A98401E0A90ABD1009850F8041B0090DB
:203070000291009850F8041B03910090009850F8041B04910090009850F8041B0591009041
:20309000009850F8041B069100900198011D0191029901600198011D0191039901600198D6
:2030B000011D0191049901600198011D0191059901600198011D0191069901600CB070474E
:2030D0003C00000000C0002100B5ADF1240D0891079002A802F0F2FD2020009034493348BC
:2030F0005822022300F07AFA00B1FEE72F48314908603149087840F0010008702E49087834
:2031100040F0020008702D491E2008702C49087840F0020008702A49087840F0040008708B
:203130002B4A2948294902AB00F0DAFC25490860002000218DE803002248264900680022C2
:203150000023FEF7C1FF4FF4000000218DE80300234B1C48214900680022FEF7B5FF1E49D5
:203170000880204800780028FBD01E4800780128F7D119491348B1F9001000680022FFF71E
:2031900091F815490F48B1F9001000684FF40002002301F061F90B48006800F0B3F812485C
:2031B000006801F0D3FBFFE709B000BD201A0020CC1500203C1D00202F1D0020341D0020CB
:2031D0002E1D0020C8170020D0130020E41D0020F81C0020841D0020CC170020201D0020FC
:2031F000413D0000941E0020D41700202DE9F04102F064FC3F4D3E4EDFF8FC800446A0086E
:2032100020D330464168E9B1002242608B690A690F6922401A4342F0020205F108038A616E
:203230001A68BA4301F110071A6097E80C002A680C301B1C9A432A6002F03AF940460221B7
:2032500002F0E4FC7068A10815D200F1100191E80C00002702EA04013B40002B08BF0029EF
:2032700009D081691440B0600C4384614FF48041404602F0CBFC7068002837D1304602F030
:20329000E3FD071C32D01E48F9680068884228D1B86801F0AFFE19490860E8B905F10801FF
:2032B00038690A68104308602B6807F1100494E80300081C1843286000222A61B86845F801
:2032D0000C0C05F1100000680028FAD0304602F055FC7760BDE8F081086801F0AFF9BDE812
:2032F000F08140464FF4805102F090FCBDE8F081BC1900200C10044034180020381A0020EC
:20331000441A0020F8B5344D06462878002861D0324CB4F91200B4F9101088420ED0214693
:2033300002F03EFA18B9616801B1606830B1B0F91C1034A20CCA304601F08EF802F034FECC
:20335000274A2E4F1178002935D0491EC9B20029117030D102F024FE2248002400782C7075
:2033700040B1204601F06AF906F138004FF0FF3102F0CAFD06F1380002F0C2FD06F17000F4
:2033900002F0BAFD184802F0B3FD184802F0ACFD174802F0ADFD174802F0A6FD164802F038
:2033B000ABFD17483C60357C0470012D12D10E2000F0C4FAF8BD02F0F3FD3868864204BF86
:2033D0000020386006F1380002F09AFD06F1700002F092FDF8BDC046911E0020BC19002006
:2033F0005C1A0020551A0020341800205819002068180020741900209C180020441A0020FC
:20341000901E002002000000000000707CB50546084601F0D1FA364E02461821304602F069
:203430003DF902F0EFFA3449103909684C6840F2FF32002380B22C2100903046A04702F09C
:203450007DFC1C210246304602F028F902F0CCFA02461421304602F021F902F053FB024696
:203470001021304602F01AF9284601F0CDF902460C21304602F012F9284602F02BFB1D4C94
:20349000400040F020002070284602F02FFB40F010002070284602F037FA0246282130460A
:2034B00002F0FCF8284602F039FB400040F06000E070284602F03EFBC00040F0800004F85D
:2034D000080C284602F042FB800040F47C40A4F89300284602F00EF902460821304602F04C
:2034F000DDF84FF48000A4F2091108607CBDC04600A00C4049A10C40B40100102DE9F84395
:203510000C460546E6B2200824BF30484440DFF8C0C0B2002F485CF8021005F4E02E05EA83
:203530000407BEF5E02F00EA070084EA010305EA030321EA0501C3F3006740EA010001D12B
:20355000410E14D305F4E0210F4310D000F4E027B7F5A02707D0B7F5803704BF20F400304A
:2035700040F4A02003E020F4803040F4C0206146DFF86480885008F1D0073868F04010F0B2
:20359000010905D1E80D03D34046C4F380518155280E10D302F008FD210E03D20121002333
:2035B000B14002E00121B1400B463A688A4313433B6002F0F5FCB9F1000F05D0E80D03D328
:2035D0004046C4F380518155BDE8F883006000A000100840007F077F0020024090B503AF21
:2035F000ADF1140D8DF81230ADF810200191009038883A889DF81230BDF810400830411057
:2036100000EB917121F00301401A121A0C325A43A24201DD01204CE038880830411000EBF4
:20363000917121F00301401AC0F104008DF8130001980290002003909DF8120003998842D1
:203650002ADD39889DF81300039B029A4018083000FB0320019001980021017101994879EA
:2036700020F0030048710199487920F00C00487138880199C88038889DF81310019B019AED
:20369000C0180918083111600398401C03909DF8120003998842D4DC0298019908600298FA
:2036B00000990860009800214160034902980860002005B090BDC046501A0020E0B5018881
:2036D0000025A1F6020159B143F20402891A04D0491E57D190F8246000E00226C76901E0AB
:2036F000C67B4769002F4DD03F1F052044F2380357F8041F0A04120C934203D0401EF7D11D
:203710003F1D01E0C1F30345002D3BD01F4B3046401F18D01C4A401E10D0001F0CD0801EC4
:203730000DD0C01E06D00F3819BF1A1C6032184A443204E0121D02E0121F00E0083A106869
:20375000C0F3834003E01A461068C0F303200F2806D0A84216D921F4702141EA004110E06A
:20377000761F0AD0761F08D0761F06D00F3E1CBF21F4702141F4802103D121F4002141F40F
:20379000E0213960E0BDC0460011005020130050C410005080B50288A2F602073FB143F24F
:2037B0000502BF1A14BF002090F8240000E0C07B2C4AD2F88832401F0B6048D0401E3CD019
:2037D000001F30D0801E24D0C01E18D00F380CD0D2F890024860D2F894028860D2F8BC026B
:2037F00020F0784040F080503AE050694860D06A8860506C20F0784040F0704030E0106967
:203810004860906A8860106C20F0784040F0F04026E0D0684860506A8860D06B20F07840DF
:2038300040F0C0401CE090684860106A8860906B20F0784040F0A04012E050684860D069EC
:203850008860506B20F0784040F0405008E01068486090698860106B20F0784040F0205061
:20387000C86080BDC4100050F8B502F09BFA01F0D7F802F0A9FA044604F00C000C284FD089
:20389000E0081ED201F062FF274E376805460120014602F099F831686943884211D2234C43
:2038B0008220B0FBF7F0291A204602F075FB204602F06EFB0120FEF703F9204602F074F822
:2038D0002FE020092CD21A4802F050FA0428FAD01849620906D228B10A460846016821F079
:2038F000010104E00A460846016841F001010160D2F898004FF0805440F00300C2F898003D
:20391000D4F8B8018069014620208847D4F8B801094C806B2168804701202060206800E0B5
:2039300030BF02F045FAF8BDD00A00006C1A0020004003408C2108402C2009402DE9F843C4
:20395000044602F031FB81462D48021992F8ED10491ECFB2002F82F8ED704BD12B4D05EB9F
:2039700084052E78698836F07F0788461AD1F10911D24FF08054D4F8B80180690146404687
:20399000884704F5DC742068406B0146404688470228F8D121E000EB8800D0F800110020D0
:2039B00088471AE04FF08054D4F8B801006A014640468847D4F8B801806A01464046884785
:2039D000D4F8B801006B01464046884701210D4A0D48116001688908FCD306F03F003F28A7
:2039F00001D0FFF7ABFF687800F03F003F2801D0FFF7A4FF484602F0D3FABDE8F883C046F3
:203A1000601A00202820086028200840C80900002DE9F041064602F0C7FA2D4D8046A919A3
:203A300091F8ED00421C002881F8ED204AD1294C04EB8604277807F03F003F2801D0FFF7E8
:203A5000E7FF607800F03F003F2801D0FFF7E0FF668837F07F001AD1F80911D24FF08054E6
:203A7000D4F8B801406901463046884704F5DC742068406B0146304688470128F8D121E081
:203A900005EB8605D5F80011012088471AE04FF08054D4F8B801C069014630468847D4F8BA
:203AB000B801406A014630468847D4F8B801C06A0146304688470121074A0848116001682F
:203AD0008908FCD3404602F06BFABDE8F081C046601A0020C80900002820086028200840D2
:203AF0002DE9F041DFF8B880044698F800001F4615460E46ADF1380D012804D0FFF7BCF9E7
:203B10004046012101704EB166603DB1A56002F04BFA244A117819B102F042FA00203CE062
:203B3000491CC9B2117002F03BFA01251FB9684602F0C4F86F46386820607868E060387CEA
:203B50002074B86865744FF48D7161826061F86800B1A061A022002104F1200000F0C0FC2D
:203B700005A800212422082302F0FEF904F138008DF82C50002105AA02F0F2F905A8002164
:203B90002422082302F0C8F904F1700006490B94002205AB02F0BCF920460EB0BDE8F081EB
:203BB000911E00205C1A0020455E0000042998B544D1234802F048F9224C00280EBF2068D5
:203BD000C06820604168204A09781160416812680978914206D0876927B123A20CCA6FF019
:203BF000FF01B847022001F0E1FC1120FFF710FF01222168154B087C1A7018B114480078D9
:203C1000012803D00E20FFF703FF2168496811488F680FB9CF681FB10021C1610E4F076012
:203C30000E4A40F2FF711160002787610C4941610C4802F0B1F8192002F052F998BDC04643
:203C5000BC190020441A0020D0210840541A0020571A002000100440510007060000046073
:203C700002000040652900000000000000000002264A2DE9F041804601252548156007686E
:203C9000002FFCD0234CC02024492060081F03689B0806D250F8040C1F4B000C40F0F000E2
:203CB0001870002010630E68304600F0F3F840463146FFF7ABFB1A48816D40F21E226FF355
:203CD0001F418A4213D901680068C1F30367C0F3034007B17F1E072805D006280EBF07205C
:203CF000801C00F00F000F4947EA001008703046FEF794FF0C480068C168022088474020D4
:203D100020600A4F3D60BDE8F081C046101009409402224300600C4056620840B43F0050AE
:203D3000BC12005002600840A00100109404604200B5ADF1140D8DE80C00ADF80C10029078
:203D50009DE80C0000204FF40001184001EA020100D100293AD01E480078002836D11B20CC
:203D700001F0A2FF0022002100B1012101B90122184800681B2101F011FB072001F094FF02
:203D90000022002100B1012101B9012212480068072101F003FB02F023F8104908600F4822
:203DB00000680F49007A08700C480E490068093008600B480B49027809680B48521C00F04A
:203DD0000BF901F0B1FD02490120087005B000BD941E0020EC170020DC170020F0170020AB
:203DF000F4170020F8170020C0180020264838B560300468B4F1FF3F08BF002401F01EFF2E
:203E10002248234B002501211038056003F15C0001601448016001F0C5F81348006820B116
:203E3000124800682046FFF723FF114811490560114C0A686FF35B4244EA020008600F495C
:203E50000868C0F30130012806D10A680C48104040F400320A6008600A4908680028FCD1F8
:203E700038BDC0460822044380012843000120438C2108404820034000003901040009404F
:203E9000FFFFFCFC0C006842BC1200509404604200600C4070B5234C234D0646B00E11D271
:203EB000700E0FD3802020744FF6D801A4F85110207000F04FFBD0352868C0F304201628CF
:203ED00006DB04E02868C0F30460162800DB203800EB2670401C162805DA10F10A0FB8BF6A
:203EF0006FF0090000E01520104D00F01F0040F4F850A4F859002868800803D20C490020F6
:203F1000086001E046F040660A49F00EB50E80F0010000F00100086085F0010000F0010027
:203F3000886070BD15620840B81200500000094094042A4300002043F0B520480127F84263
:203F500001D001F0CDF8204D204F214EBD4206D203CD0478A4003459401CA047F6E71D48A6
:203F7000002800D08047164D164FBD4202D210CDA047FAE7F0BD03251BE0416808300A1C5B
:203F90002A400BD11A1C2A40AB4305D0046804300C600431043BF9D1131C05D0047801306D
:203FB0000C700131013BF9D1021C2A4001D0A84304300368002BE0D17047C046FFFFFFFFC5
:203FD0000000000000000000700D0000D00D0000300D000055C50110002A4AD05FEA000C76
:203FF0008B071CD1830722D1102A08D370B4103A78C978C0103AFBD270BC103238D0042AFE
:204010002CD3082A05D30C2A24BF08C908C008C908C008C908C092072AD0920F22E00B78EA
:204030000370491C401C521E22D08B07F7D1C30714D18307D8D0121F12D308C903801B0C0E
:204050004380001D121FF8D20AE008C903701B0A43701B0A83701B0AC370001D121FF4D2EB
:20407000121D05D00B780370491C401C521EF9D1604670472DE9F8432020EFF3118780F360
:204090001188214CA068012101F026FF4FF001094FF0000865692168A4F81C906A1A21688E
:2040B000A4F81E80461B401A904227D387F3118840464519361A4846294601F009FFB04200
:2040D000F7D92021EFF3118781F31188E18B012903D14046294601F0FBFEB0F1FF3F06D03A
:2040F000A169801B814238BF081C411901E0A069291801F0E9FEA4F820902560A4F81C80C7
:2041100087F31188BDE8F883780100202DE9F843DFF87C900F4604464FF0FF31484601F002
:20413000F3FEDFF870801D4800210AE0FF2A07D00368934202D958F822600EB1002421E076
:20415000491C1FB117F82120FE2AEFD100202060012660600546A0600EE0FF290BD0636854
:2041700006FA01F048F8214018430B4960601268204601F083F96D1C27B107EB850211787E
:20419000FE29EAD1484601F09BFE2046BDE8F8833C19002050150020007FC767301A00207E
:2041B0002DE9984301F000FF1F4CDFF87880814604F1E000007850B94446A06801460220BC
:2041D00088470746102001F067F82FB320E000F0C3FC002820460FD1144909683222B2FB65
:2041F000F1F101B9012100F13004204601F0D4FE204601F0CDFE0FE044460022A16880F865
:20421000E020022088470746102001F045F81FB1A068014603208847484601F0C1FEBDE8FE
:204230009883C046A80A0000601A0020D00A00000EB5019100901F481F49FFF767FF1C49B2
:2042500008601B48006810B906A001F071FE18481A49006801F0B2FD10B10AA001F068FEBF
:204270000EBDC0464572726F7220696E697469616C697A696E6720627574746F6E20706973
:204290006E730A004572726F72207265676973746572696E6720627574746F6E2063616C4A
:2042B0006C6261636B2066756E6374696F6E00C0E4170020E4190020F41D0020615200008F
:2042D0007CB5042001F000FA022818D0032816D01A480068C0F38150032814BF41F2883232
:2042F0004FF47A721748184C016854342046B2FBF1F101F051FE204601F04AFE7CBD4FF07F
:204310008056D6F8A4010E4D406803214FF040521C230446009100212846A047D6F8A40149
:2043300001214FF40072092340680091044600212846A047022001F021F97CBDB43F0050C8
:2043500000A00C40D00A0000601A0020F8B51F4CA0F5C060D4F8B810C4F8D4000029B8BF5C
:2043700049420028B8BF404281422BDA4FF08057D7F8A401B4F8BC10154D40684FF47F42A9
:2043900008230646009128463021B047D7F8A401B4F8C01040684FF4F80212230646009168
:2043B00004212846B047D7F8A401B4F8D01040684FF440620A230646009120212846B04726
:2043D000012000E0002084F8D800F8BD601A002000A00C40F8B501F0E7FD1B4C074620695E
:2043F00010F4602F25D02069400CC6B2700807D2B00803D2F00828BF022602E0012600E00A
:204410000026751D68B200F0A3FD216906F111020120904081433846216101F0C1FD04EB43
:204430008600476847B1206809A20CCA2946B84702E0384601F0B4FD206918B10348002108
:2044500001F0E4FBF8BDC046901900206818002000000000000000082DE9F04198461646CF
:204470000F46044601F08CFD0546384601F058F942463146071C03D1284601F07DFD24E035
:20449000F87F10F0070F19D112487B68984202D07B682366786004F1580080E8060028463F
:2044B00001F06AFD04F138004FF0FF3101F02CFD04F1680797E80300BDE8F081284601F083
:2044D0005BFDF87F10F0070FFBD102200021BDE8F081C04655500000002213460A461946ED
:2044F00071B510F0030F0BD0002A82BF00F8011BB2F1010210F0030FF6D1002A08BF71BD7C
:2045100011F0FF0141EA0121042A18D341EA0141082A0FD30E46102A08D30C460D46B2F1F2
:204530000F0312F00F0272C0103BFCD812F0080F18BF42C012F0040F18BF40F8041B12F0BE
:20455000020F18BF20F8021B12F0010F18BF017071BDFEE7184870B50068C0F3046016287F
:20457000A8BF2038154B0146187800F01F001628A8BF203881421ED0114E124C0022012573
:2045900032600A1A022A05DC12F1020FB8BF6FF0010200E002221018226800F01F0242F45E
:2045B000F852A3F8662081422560EAD12068256020683560206870BD881300500662084003
:2045D000980020432C20094038B519491A4C00204822C1F8F30F94F8E200C1F8FF2F20B319
:2045F000012817D0022807D003281ED151F8310CFFF7ACFE0B2016E051F8315C2846FDF701
:204610006DFC40F2FF50A84202D8801CA842F1D2082008E051F8310C00F060FB05480078ED
:204630000028E7D0052084F8E400FEF703F838BD39400C40B60A0000601A0020B0B5074650
:2046500001F0B2FC15490546087818B3401EC0B20870F8B91248082101F0D8FAD7B1114C93
:204670002068703001F0A0F90F4821680068CA68BA1AB2FBF0F2012A98BF012103D9C968EA
:204690007F1AB7FBF0F1094C204601F085FC204601F07EFC284601F083FCB0BD5B1A002000
:2046B00034180020441A0020D00A00009C18002038B50546880F26D300F052FE124801F0FF
:2046D0006BFB12480078012803D005F1380001F0F7FB0F4800240460022000F04FFF112015
:2046F000FFF72CF9287C10B90E20FFF727F909480A49094A04700878147020B108480C70D2
:20471000042101F083FA38BDBD3B0000911E002000000460FF170020581A0020561A00207E
:20473000341800202DE9F8438146EFF31188202080F31188174D154C134F012605F11C00BE
:204750000660A4F114000660F86A016A14208847D9F81000810C14BF000C04202060386873
:2047700002682321002090470948066054F8180C20F4C02040F4803044F8180C2E6088F31C
:204790001188BDE8F883C046840100101820094080022443000024431A4898B5D0F87812E3
:2047B00003680F0F03F0FF03802B28BF002300F0E3FC4FF0FF3478B1401E07D0401E012890
:2047D00002D9801E19D01AE0BFB118E0381C12D0801E14D1143311E03846401E0BD0801EBF
:2047F00007D0001F03D0401E09D1163306E0152405E0142403E00A2401E00A335CB2204680
:2048100098BDC046A010005038B504461848174D143802686B68C2F30351C2F303405B0845
:2048300013D22B681D0511EB257103D41029A8BF0F2100E000211B0410EB237303D4102BD2
:20485000A8BF0F2300E00023184640EA011002F47F4102F0FF03222C41EA004143EA010081
:2048700024BF02F08042104338BDC046AC3F00508C13005030B5401E4FF00004ADF12C0DBC
:204890000AD0401E04D0401E20D1FDF7D3FE1DE000F0DEFA044619E001A82146242208235F
:2048B00001F03AFB06940D4DADF8144009490794012201AB05F1780001F02AFB064A2346DC
:2048D0002C2105F19C00009301F042FB20460BB030BDC0462D4C0000D9450000601A0020E3
:2048F00008B500900E49002008700E49009808600D4801F0B9F90D494FF4806008600C49E7
:20491000012008600C480B4908600D480B490860054A0C480C49002301F006FB08BDC04605
:20493000941E0020EC17002014170020341700202C1700203017002008020020241700206D
:2049500040420F0074160020D930000008B500900E49012008700E49009808600D4801F029
:2049700083F90D494FF4806008600C49022008600C480B4908600D480B490860054A0C4827
:204990000C49002301F0D0FA08BDC046941E0020E81700205017002070170020681700204B
:2049B0006C170020080600206017002040420F00C4160020E52700000146184880B53C3898
:2049D00000688A0CC0F38367C0F38F2022D241F3072100290BD54A420021400805D17F081F
:2049F00006BF0127381C4FF6FF70521EF5D1002910DD4FF6FF72400040F00100824207D2A2
:204A1000780040F001070F2F92BF01200F27101C491EF0D140EA074080BDC0468C130050F9
:204A3000164880B507683FB315498B6803EA5300C00E21D2134A106880081DD2486880089C
:204A50001AD21068096810F0050F4FEA114101F0F00101F5E0710AD1B9420DD2190F38BFD5
:204A700040F00100D90E38BF40F0040003E0B94202D920F00500106080BDC04628500940A1
:204A9000AC3F00500000094010B501F08DFA1149097829B110490C6801F082FA204610BD23
:204AB00001F07EFA01F0ECF80FA20CCA01F08AF80A4A126800231B184FEA020408A044EB74
:204AD000010490E80600C91842EB04021046001C10BDC046551A002004300440E0190020CA
:204AF000000000127A00000000093D0000000000F8B5844640F6FF741CF8013B002210E052
:204B1000481B401E10F8015B7F1E01F8015BF9D103E01CF8010B01F8010B521C5B08082A99
:204B3000EADA5808F5D21CF8010B1CF8015B05F00F07FF1CC5F30315122F45EA001508D196
:204B50001CF8016B300A24BF1CF8010B60F3DF16F719AC42D4D1F8BD38B5012000F0B4FD39
:204B7000012820D0114DD5F82401C4681048342101220023A047002808BF002014D0286833
:204B900000F022FE00F076FF0B4A0A4D93681168D060C01AA1EB910105FB00F3180C884267
:204BB00028BF011C1160012038BDC0468000001000A00C4040420F00A81900202DE9FC4113
:204BD000144C154F06468846700809D320684568002101220B461FFA88F000903846A8473B
:204BF000B00809D3206845680021022201231FFA88F000903846A847F00809D320681FFA70
:204C100088F600210C220223446800963846A047BDE8FC81A401001000A00C401648144A6C
:204C3000144908B5E4300078801E0A2807D8DFE800F01814100614100614100609C001F008
:204C50007BF911E010688008FCD250688008FCD20AE008688008FCD306E008688008FCD2A6
:204C700002E010688008FCD3FDF7E4FC08BDC04634600C4038600C40601A0020084610B563
:204C900000F0005100F0040008431CD0012000F01BFD012811D00C4801683220B0FBF1F2C8
:204CB000012A8CBFB0FBF1F10121084C204601F073F9204601F06CF910BD054801F06CF87D
:204CD00004490548086010BDD00A00009C180020F114000000100440D0190020134910B5C4
:204CF0000A684BF2F5214843040AC2F38140012806D100F041FD00F015FB604304EB90542C
:204D10000C4901F1E500007830B90948006820F07F402418640802E0002081F8E500064818
:204D30000460210C41600123836010BDB43F005010200940601A00203C600C40B0B5144D59
:204D500028680004070C21D000F016FD114991F90720824205DD10F1800FB8BF6FF07F0012
:204D7000C8718C88BC4210D80A68D5F8D40F801A801C1F2888BF1F203F1B4008C7404FF6DD
:204D9000FF70E719B84238BF071C8F80B0BDC04634100940281A0020ADF1080D1248009072
:204DB000124801900099002081F850000099012081F839000099022081F8350000990320E5
:204DD00081F837000099042081F86E000099052081F86B000099062081F84100044901986E
:204DF000416002B07047C04640030021BC030021BD050021154909681E280ADC1E2819D042
:204E10000C380FD00A380FD0001F0FD0C01E0FD01AE0243810D0001F10D0401E10D0401EB2
:204E300010D011E0086870474868704788687047C86870470869704748697047886970473D
:204E5000C8697047086A704700207047F001002038B5134D95F8E100002410B911480078D0
:204E700060B101F0A1F895F8E310002906BF012185F8E310012401F093F80CB1002038BD14
:204E9000022000F093FB0E20FEF7C2FD00F0C2FC01280EBF0120002085F8E20038BDC04641
:204EB000601A0020B60A0000012838B51ED1012000F00AFC01281BD000F0F4FD0E4D0D48C7
:204ED0000122322305F1E00100680A70B3FBF0F404B914463035284600F066FD28462146ED
:204EF00001F05AF8284601F053F801E000F0ACFA002038BDD00A0000601A002010B5104898
:204F10000E4C01680C40E1430160A10907D34068800904D30D484FF4005100F077FE14F40B
:204F3000602F09D00748016804F460240C4304600548002100F06AFE10BDC04620000E004B
:204F500008100440A01900206818002034180020F8B5044601F028F8844610481038C17D50
:204F7000C90802D3817DA14212D00D49091D868A0B68012504F10C0705FA07F2A5409343D8
:204F900035430B600F68858217B9034900200870604601F005F8F8BD901E0020A0190020FC
:204FB000081004400F4908680028FCD1104A131D0D49186820F0030001430C480068C0088D
:204FD0000CD2106810F0030F0AD041F003001860106800F003000328FAD101E041F001015E
:204FF000196070470C00684204000020B03F00500040034010B50446207B00F00F00022802
:2050100019D10F480078012815D0FFF73DFDA1686FF070428908A1EB900082420BDDB0F175
:20503000704FB8BF00F1804004490968C96801F57A71814200DB002010BDC046441A00209A
:20505000901E00202DE998430446276E9946904607B1B8470020022100EA090001EA08010C
:20507000002808BF00290BD104F1580090E8060008EA010109EA0200002808BF002907D089
:2050900004F1680080E8000304F1380000F018FFBDE8988398B50F4C21684868406808B102
:2050B000804721684A68906808B9D7688FB10A491C310F68002FFCD000230B6010B180477E
:2050D00020684268D06800B180470448503800F00BFC98BD441A002000100440510007068E
:2050F000F8B506460F4D104F7388002417E0A00000EBC400321851689068D26852B9AF4256
:205110000BD00A7855F822200346491C08461946904701E0FEF760FF7388641CA4B2A34276
:20513000E5DCF8BD300D00003C0D000010B504460D48006880470E480C4900680C6080478A
:2051500010BD094810B50068804708490848094B0A68006843F2390403FB02440C60804775
:20517000C4F30E4010BDC046001E0020141C0020041E00206D4EC641104A1068C0F30F31F0
:205190004BF69A10884207D111680B20B0EB117F14BF0020042070472430884208BF0120CF
:2051B0000BD04BF64130884208BF032005D0213888420CBF02204FF0FF3070471813005019
:2051D0002DE9F84300F018FE0D4D2F688046A7B1DFF830900024012606FA04F018EA000F72
:2051F00007D059F8240020B1036813B1214698472F68641CE4B2BC42EED3BDE8F883C0467B
:20521000301A002050150020F0B5044605AFADF10C0D03B9094B97E860008DE86000FCF77E
:2052300053FF011C44BF06A003C804D406A20CCA2046FFF711F903B0F0BDC04655500000B4
:20525000000000000000008002000000000000700EB58DF8041000900C4800F0E8FD9DF8A2
:20527000040000F017FD80B9062000F01DFD0022002100B1012101B90122054800680621DE
:2052900000F08CF80349012008700EBD801A0600E0170020941E002070B5104C064620461E
:2052B00000F0BCFD0025B0B9204600F0C9FD0446A06806420AD0E068226900210346304664
:2052D00098470546012D08BF012005D0204600F0B9FD041CECD1284670BDC046601A002085
:2052F0000C4885460C4885446F4607208743BD460A486F4607600A48002803D07946491DD9
:205310008E460047FEF718FE00F050FC00F0D4FDFEE7C046004D002000030000801E002041
:20533000155E00000D4938B5D1F8EC3209681B3800FB00F409060A1643F3072100FB01F58F
:2053500019066043091661434243891201EBE50101EBA24000EB234038BDC046A4100050AB
:205370000C49086820F0020040F4007008600A48032140F8041C41F23001816001210160A4
:205390005022826001604FF4CA628260016040F80C1C7047000004600C41044084460B486D
:2053B00080B5174602688A42604604D9084A52F82120904201D0022080BD002307B10123B4
:2053D000044A0020E03A535480BDC046301A002050150020E02002402DE9B0430F46044672
:2053F00000F036FD04F1280292E800034B464246FCF77AFC05460B462A464046494600F04B
:20541000E1FB17B1303484E803002846BDE8B08398B50146886840F603031A462027521CEA
:2054300002E040687F1EFFB260B15FB10488A34218BFA242F5D1C9681CC820311CC189C8DD
:2054500081E8890098BD704710B503200021FFF7B5FB012000F038F918B10648006800F0DE
:20547000B3F900F007FB044C083C606000F084F9206110BD80000010B01900200A4B10B5DC
:205490001B6802F0FF04A34206D9084C02F0FF0354F82330984201D0022010BD084611469A
:2054B000FEF72CF8002010BD301A002050150020F8B50646376800240D462C601FB900F084
:2054D00073FD374608E000F06FFD00E03F6839680029FBD1BD4201D03D60012400F060FD8F
:2054F0002046F8BD094910B500200A4C08600120C86114342060216844F8280C04480068CD
:20551000016A14208847206810BDC04600002443B00100101820094070B5044604F128027B
:205530000CCA0846002100F04DFB04F1300292E860002D1846EB0106290C3004014300F0C3
:2055500095F8383484E8600070BD70470949020480B5120C41F8082CC0F3074041F8040C37
:205570000120086004480768002FFCD00020086080BDC04644600C4084088C4310B50446B7
:2055900000F012FD084BE21892F8E810491EC9B282F8E81021B99A680121A1408A439A6033
:2055B00000F0FEFC10BDC046601A002038B5044600F0FAFC084A02F108031D680121A1408F
:2055D00012192943196092F8E810491C82F8E81000F0E6FC38BDC046601A002008B50748DF
:2055F00007490068814203D100F04AFB054908600548042100F00AFB08BDC046481A0020AD
:20561000BD3B00003C1A00203418002010B500F0B7FC00F0B9FC032000F04AFC06481030AC
:20563000006830B1034C204600F055FB204600F04FFB10BDEF5C0000A401002008B500F0F2
:20565000E7FB012801D000F0CEF9074800F02CFC00F004F900F024FC00F01EFC00F018FC35
:2056700000F012FC08BDC0461D56000010B50C4600F000FA211AB1F1004F08D8011B091D8F
:20569000C90F05D1001DA04288BF041C00E0041D0148046010BDC04618200940B0B5154624
:2056B0000C1800F07FFB002700B90127054A394610680028FCD025600120106009B100F04A
:2056D00077FBB0BD00800C4002460849084810B5042A07BF4FF0C0421D234FF080521C239C
:2056F0000968CC683421A04710BDC046A401001000A00C40202838BF07480CD307480C304D
:20571000016808038215920500F47C1001F00F01104340EA0130704700803F408C13005003
:2057300009490246082320392031C87F30F07F0005D0B1F91C00824208BF081C02D05B1E6F
:20575000F2D100207047C0460812002038B52020EFF3118580F31188064CA068002100F043
:20577000BBFB6169081AA169814238BF002085F3118838BD780100200748816841F3100276
:20579000064991F900100068A0F5407041430811121A803210127047285009400C130050DF
:2057B00010B50C4600F000FC2168002908BF002406D00C4601E009680C460A68002AFAD106
:2057D00000F0EEFB204610BD70B5054600F0EAFA002400B90124054E30680028FCD0A84799
:2057F000012030600CB100F0E3FA70BD00800C40074810B50468FFF7BFFC04F07F04012894
:2058100004D100F043F9022808BF641C204610BD4413005006490868002818BF012005D177
:20583000044B4020012218600020CA617047C04604800C402C500C4008B500F03FF900F099
:20585000804100F00200084304D003484FF0005100F0DCF908BDC04634180020074808B583
:205870001030006828B1034800F035FA024800F02FFA08BD79590000055C0000A40100200D
:20589000074810B51030006830B1044C204600F022FA204600F01CFA10BDC0468F5C00006F
:2058B000A4010020074908B5283090E80C000020FCF71AFA002908BFB0F1FF3F88BF4FF0AE
:2058D000FF3008BD907E0000064A01281CBF0021101C04D11046002100F8021C2021017001
:2058F0007047C04602620840064A014610680028FCD10023D3611160D0690028FCD0D36102
:205910005068704700100440202838BF002008D3044810300068C10C01F44071C0F384508C
:20593000084370478813005006480068002101710448006803490068086002480068007926
:205950007047C046501A00200649082220392031C87F30F07F0008BF081C02D0521EF6D1F3
:20597000002070470812002010B5064C206900F087FA0146A06800B9E160A068401CA06048
:2059900010BDC046A4010020054808B54168054801220838026048698969884708BDC0465D
:2059B000E40100200C200940002181820449C0684969814203D10348006800F0E9BA70477E
:2059D00078010020D40A000002294FF0000204D0012808BF4FF47A7203E0012808BF40F2DC
:2059F000EE2210467047FEE70548183801680348084001F07C4108437047C046FCFCFC0052
:205A10008C1300500549383908680968C0F3870001F0030140EA01207047C04688130050C5
:205A3000002948BF0021044A02EB8000026861F3050202607047C046001008400349044876
:205A500009680160034800F0E1B8C046E0200240E02002600018002008B5044800900449C8
:205A700000984FF42372FEF7B7FA08BD1C040021F006000004480168436802688A42FAD1A3
:205A9000080440EA1340704708200940044884380068C0F302400428C8BF4FF0FF30704708
:205AB0001813005008B503200121FFF787F8FFF7E1FF0149086008BDB01900200449103120
:205AD0000868C3430B600A681042FBD17047C04600100440222804D303480068C0F300703D
:205AF000704701207047C0468C130050222804D303480068C0F34070704701207047C04646
:205B10008C13005004481C38006800F47C010004000C08437047C0468C130050202805D3E6
:205B300003480C300068C0F301507047002070478C130050222804D303480068C0F3C0603E
:205B5000704700207047C0468C130050222805D30348001D0068C0F34550704700207047EA
:205B700088130050044908B591F8E60018B1D1F80C0100B1804708BD601A002038B5054603
:205B900000F012FA2C680CB12168296000F008FA204638BD012814BF002140F2FF71024A3E
:205BB000002011607047C046000004600449B1F1FF3F07BF0020011C0868091DFCF77EBF2D
:205BD000FFFFFFFF30B502FB01F403FB00444FF00005E2FB00542146284630BD08B500F0BC
:205BF0000BF901460248006800F090F808BDC046441A002004498868401E886003D108690F
:205C1000C96800F039B97047A40100202022EFF3118382F31188426A1143416283F311886D
:205C300000F026B9034804490068814201D000F0B2B8704794CA01107047392008B5FFF7AE
:205C50009BFA012803D1FEF7A7FD142800DAFEE708BD10B50446FFF713FE032000F028F9FF
:205C7000204600F029F910BD08B50090009828B1009800213C22082300F0F6F808BD704775
:205C9000034A1168506813688B42FAD17047C046082009400349024640310868D04000F0C0
:205CB0000100704780200240014603480068C84000F001007047C04680200240034910B597
:205CD0001CC91CC006C980E8060010BD800A00000349086070470249091F086070477047AB
:205CF000041E002008B500F0BBF80248006800F0BFF808BD8401002000B50921ADF1240D81
:205D1000684600F0A9F809B000BD7047024A08B51268904708BDC046481A002001460248CF
:205D30001022FEF759B9C046180000210248001D0068C0F3C14070478813005002480C3828
:205D50000068C0F30D0070478813005008B5FFF7FCFBFFF781FEFFF71FF808BD102802D36B
:205D7000014910380860704700EF00E0006801092CBF042000F003007047D0F80320C31D9D
:205D900008461946FEF728B908B500F061F8000C0904084308BDFEE7014908607047C046ED
:205DB000481A0020EFF3108072B6704700207047EFF3108062B670470020704700281ABF10
:205DD00001600020022070470148083000687047601A00200149ED31085C7047601A002002
:205DF000014800687047C046501A0020D0F8032008460021FEF774BB014880687047C0462F
:205E1000C801002008B5FDF7F1FFFFF70BFF08BD0148C0887047C046F0010020016800203B
:205E300001B90120704708B5FFF790FF08BD401EFDD170470020FEF701BC816042607047CA
:205E500000687047006870470068704700207047FFF716BFFEE77047DFF800F009C30110F3
:205E7000DFF800F063BE0110DFF800F0D5C10110DFF800F01DB30110DFF800F049C2011020
:205E9000DFF800F045C20110DFF800F005C30110DFF800F039C20110DFF800F089C201107D
:205EB000DFF800F091B70110DFF800F07DC60110DFF800F041C00110DFF800F0CDC7011052
:205ED000DFF800F041AC0110DFF800F0B9BE0110DFF800F009A80110DFF800F091C00110EC
:205EF000DFF800F095B20110DFF800F05DC20110DFF800F0E5C20110DFF800F0B5C20110AE
:205F1000DFF800F0DDC20110DFF800F001A00110DFF800F075B50110DFF800F081C1011065
:205F3000DFF800F051C00110DFF800F025B10110DFF800F045C70110DFF800F095C80110A1
:205F5000DFF800F085B00110DFF800F0C9C10110DFF800F029AF0110DFF800F039C1011040
:205F7000DFF800F005B70110DFF800F0BDC10110DFF800F045BA0110DFF800F0DDB50110E6
:205F9000DFF800F0D1C00110DFF800F0F1C00110DFF800F0DFBF0110DFF800F0BDC2011032
:105FB000DFF800F015C20110DFF800F045C1011054
:020000040001F9
:20FFA800000080011000C8FFFDFF58003AFFBFF1FFFFFFFFFFFFFFFFFFFFFFFFFFFFFFFFB4
:20FFC800FFFFFFFFFFFFFFFFFFFFFFFFFFFFFFFFFFFFFF00FFFFFFFF00FFFFFFC500C5FFAA
:18FFE800000000FF00000000FFFFFFFFFFFFFFFFFFFFFFFFFFFFFFFF12
:00000001FF
