:1000000000500020E9A3000001CA011001CA01103C
:1000100001CA011001CA011001CA011001CA011070
:1000200001CA011001CA011001CA011001CA011060
:0C00300001CA011001CA01103FCA0110F2
:100100003C0000000000000000000000340100007E
:1001100000000000000000000100000000000000DE
:1001200000000000000000000000000001000000CE
:0C013000000000000800000000000000BB
:10013C003400000000000000000000006801000016
:10014C0000000000000000000100000000000000A2
:10015C00010000000000000000000000080000008A
:04016C00000000008F
:1001700030000000000000000000000098010000B6
:10018000040000000000000001000000FFFFFFFF6E
:10019000FF00000001000000080000000000000057
:1001A0002C0000000000000000000000C40100005E
:1001B000040000000000000001000000FFFFFFFF3E
:0C01C000FFFFFFFF08000000000000002F
:1001CC0034050000E401000099A1011095A701106D
:1001DC00A5C2011009B2011045B8011000000000C1
:0801EC00000000002E000000DD
:1001F40028000000000000000000000014020000BD
:100204000000000000000000FFFFFFFF00000000EE
:080214000800000000000000DA
:10021C00300500003002000069C201106DC10110F0
:10022C001FC2011095BA0110000000000000000070
:04023C00300000008E
:10024000300500005402000075C20110A9B601106B
:100250009DBF011049B60110000000000000000021
:040260003100000069
:1002640024000000000000000000000080020000E4
:100274000000000000000000000000000800000072
:040284000000000076
:10028800240000000000000000000000A40200009C
:10029800000000000000000000000000080000004E
:0402A8000000000052
:1002AC00240000000000000000000000C802000054
:1002BC000000000001000000000000000800000029
:0402CC00000000002E
:1002D000000000009417002004000000000000004F
:1002E000000000002000000070010000300000004D
:1002F0001C0200009C170020040000000000000009
:10030000000000000C000000300400001800000095
:1003100040020000A41700200400000000000000BC
:100320000000000024000000480400001800000045
:1003300000000000AC1700200400000000000000D6
:100340000000000010000000A00100002C000000D0
:10035000CC010000B41700200400000000000000E1
:1003600000000000200000006402000024000000E3
:10037000FFFFFFFFBC17002004000000000000008A
:100380000000000028000000880200002400000097
:10039000FFFFFFFFCC17002004000000000000005A
:1003A00000000000580000003C0100003400000084
:1003B000FFFFFFFFD4170020040000000000000032
:1003C00000000000100000006004000018000000A1
:1003D000FFFFFFFFDC17002004000000000000000A
:1003E000000000001C000000AC020000240000001F
:1003F000FFFFFFFFE41700200400000000000000E2
:100400000000000038000000F40100002800000097
:10041000FFFFFFFFEC1700200400000000000000B9
:100420000000000054000000000100003C0000003B
:100430001800000000000000000000004004000060
:080440000800000000000000AC
:100448001800000000000000000000005804000030
:08045800080000000000000094
:100460001800000000000000000000007004000000
:0804700008000000000000007C
:080478000100000048A400008F
:040480000000000078
:040484000100000073
:0404880000000C0064
:04048C0000000D005F
:040490003200000036
:040494000200000062
:040498002C150020FF
:04049C00000200005A
:0404A0000000000058
:0404A40001CA011078
:0404A8000000000050
:0404AC00000000004C
:0404B0000800000040
:0404B4000000200024
:0404B8005C140020B0
:0404BC00010000003B
:0404C0007017002091
:0404C400080000002C
:0404C8000000000030
:0404CC00000000002C
:0404D0000000000028
:0404D4000000000024
:0404D8000000000020
:0404DC00010000001B
:0404E0005C15002087
:0404E400060000000E
:0404E800010000000F
:0404EC001C110020BF
:0404F0000000000008
:0404F4000000000004
:0404F80000020000FE
:0404FC0000000000FC
:020500000000F9
:020502002A00CD
:020504000100F4
:020506002500CE
:020508003000C1
:02050A003100BE
:02050C002E00BF
:02050E000100EA
:0105100001E9
:080514000400000014A4000023
:08051C000000000000000000D7
:0405240000000100D2
:0405280000000300CC
:04052C0087C401106F
:04053000380500008A
:040534003805000086
:0405380000000000BF
:04053C00800000003B
:040540008000000037
:0405440000000000B3
:040548007017002008
:04054C00773B0000F9
:040550002000000087
:0405540000A40000FF
:04055800DCA1000022
:04055C000DC30110BA
:0405600081330000E3
:0405640083330000DD
:0405680099C801101D
:04056C009BC8011017
:040570000000000087
:040574008E400000B5
:04057800F89F0000E8
:04057C0010A00000CB
:04058000E09F0000F8
:0205840008006D
:0205860009006A
:02058800010070
:02058A0000006F
:01058C00016D
:040590000000000067
:040594000000000063
:04059800000000005F
:04059C00000000005B
:0405A00069320000BC
:0405A4009D32000084
:0405A80021310000FD
:0405AC00D732000042
:0405B000793100009D
:0405B4003D310000D5
:0405B800ED31000021
:0405BC0025330000E3
:0405C000F53A000008
:0405C400FF3C0000F8
:0405C800033D0000EF
:0405CC000800000023
:0405D0002400000003
:0405D400180000000B
:0405D80028000000F7
:0405DC0020000000FB
:0405E0003C000000DB
:0405E4000C00000007
:0405E80034000000DB
:1005EC002053656C656374204D6F64756C650000F9
:1005FC0031000000434332363530454D3749440015
:10060C003200000053657474696E6773000000005B
:10061C000000000076312E310000000050455220C1
:10062C0054657374000000002053657474696E6720
:10063C007300000020444344433A200053656C652A
:10064C0063742070726F746F636F6C00424C450062
:10065C003830322E31352E340000000033000000CB
:10066C0047656E46534B00002053656C65637420E0
:10067C00424C45204368616E6E656C002043682EC9
:10068C00203337202832343032204D487A2900006C
:10069C002043682E203338202832343236204D48FF
:1006AC007A2900002043682E203339202832343830
:1006BC0030204D487A290000340000002043682E79
:1006CC00202030202832343034204D487A29000044
:1006DC00350000002043682E202031202832343091
:1006EC0036204D487A290000360000002043682E41
:1006FC00202032202832343038204D487A2900000E
:10070C00370000002043682E20203320283234315B
:10071C0030204D487A290000380000002043682E14
:10072C00202034202832343132204D487A290000E0
:10073C00390000002043682E202035202832343127
:10074C0034204D487A290000313000002043682EB7
:10075C00202036202832343136204D487A290000AA
:10076C00313100002043682E2020372028323431CC
:10077C0038204D487A290000313200002043682E81
:10078C00202038202832343230204D487A2900007D
:10079C00313300002043682E202039202832343297
:1007AC0032204D487A290000313400002043682E55
:1007BC00203130202832343234204D487A29000040
:1007CC00313500002043682E20313120283234325C
:1007DC0038204D487A290000313600002043682E1D
:1007EC00203132202832343330204D487A29000011
:1007FC00313700002043682E203133202832343327
:10080C0032204D487A290000313800002043682EF0
:10081C00203134202832343334204D487A290000DA
:10082C00313900002043682E2031352028323433F2
:10083C0036204D487A290000323000002043682EC3
:10084C00203136202832343338204D487A290000A4
:10085C00323100002043682E2031372028323434C6
:10086C0030204D487A290000323200002043682E97
:10087C00203138202832343432204D487A29000077
:10088C00323300002043682E203139202832343492
:10089C0034204D487A290000323400002043682E61
:1008AC00203230202832343436204D487A2900004A
:1008BC00323500002043682E203231202832343467
:1008CC0038204D487A290000323600002043682E2B
:1008DC00203232202832343530204D487A2900001D
:1008EC00323700002043682E203233202832343532
:1008FC0032204D487A290000323800002043682EFF
:10090C00203234202832343534204D487A290000E6
:10091C00323900002043682E2032352028323435FD
:10092C0036204D487A290000333000002043682ED1
:10093C00203236202832343538204D487A290000B0
:10094C00333100002043682E2032372028323436D1
:10095C0030204D487A290000333200002043682EA5
:10096C00203238202832343632204D487A29000083
:10097C00333300002043682E20323920283234369D
:10098C0034204D487A290000333400002043682E6F
:10099C00203330202832343636204D487A29000056
:1009AC00333500002043682E203331202832343672
:1009BC0038204D487A290000333600002043682E39
:1009CC00203332202832343730204D487A29000029
:1009DC00333700002043682E20333320283234373D
:1009EC0032204D487A290000333800002043682E0D
:1009FC00203334202832343734204D487A290000F3
:100A0C00333900002043682E203335202832343708
:100A1C0036204D487A290000343000002043682EDF
:100A2C00203336202832343738204D487A290000BC
:100A3C002053656C656374204945454520436861C6
:100A4C006E6E656C000000002043682E2031312052
:100A5C002832343035204D487A2900002043682E46
:100A6C00203132202832343130204D487A29000090
:100A7C002043682E203133202832343135204D4824
:100A8C007A2900002043682E203134202832343259
:100A9C0030204D487A2900002043682E2031352023
:100AAC002832343235204D487A2900002043682EF4
:100ABC00203136202832343330204D487A2900003A
:100ACC002043682E203137202832343335204D48CE
:100ADC007A2900002043682E203138202832343403
:100AEC0030204D487A2900002043682E20313920CF
:100AFC002832343435204D487A29000043682E20A2
:100B0C003230202832343530204D487A290000000C
:100B1C0043682E203231202832343535204D487A26
:100B2C002900000043682E2032322028323436301F
:100B3C00204D487A2900000043682E2032332028AB
:100B4C0032343635204D487A2900000043682E2077
:100B5C003234202832343730204D487A29000000B6
:100B6C0043682E203235202832343735204D487AD0
:100B7C002900000043682E203236202832343830C9
:100B8C00204D487A290000002053656C6563742061
:100B9C0047656E46534B204368616E6E656C000072
:100BAC00300000002043682E2020302028323430C2
:100BBC0030204D487A2900002043682E2020312017
:100BCC002832343130204D487A2900002043682ED9
:100BDC00202032202832343230204D487A2900002F
:100BEC002043682E202033202832343330204D48C7
:100BFC007A2900002043682E2020342028323434F7
:100C0C0030204D487A2900002043682E20203520C2
:100C1C002832343530204D487A2900002043682E84
:100C2C00202036202832343630204D487A290000D6
:100C3C002043682E202037202832343730204D486E
:100C4C007A2900002043682E20203820283234389E
:100C5C0030204D487A2900002053656C6563742060
:100C6C00446174612052617465000000203530309D
:100C7C00206B62707300000020323530206B627084
:100C8C007300000020353030206B627073202843D5
:100C9C00433235303029000020323530206B627001
:100CAC0073202843433235303029000053656C657E
:100CBC006374206D6F6465005061636B6574206DA7
:100CCC006F6465004357202D20756E6D6F64756CD5
:100CDC0061746564000000004357202D206D6F6423
:100CEC00756C6174656400005258202D20636F6E22
:100CFC0074696E756F75730053656C6563742064ED
:100D0C006972656374696F6E0000000054580000CE
:100D1C005258000053656C6563742042757273748D
:100D2C002053697A650000002020202031303020CB
:100D3C007061636B6574730020202031303030207B
:100D4C007061636B6574730020203130303030205B
:100D5C007061636B6574730020313030303030203B
:100D6C007061636B6574730031303030303030201B
:100D7C007061636B657473002053656C65637420DC
:100D8C005061636B657420526174650020202031C2
:100D9C0020207061636B65742F730000202031304C
:100DAC0020207061636B6574732F730020203230C8
:100DBC0020207061636B6574732F730020203530B5
:100DCC0020207061636B6574732F73002031303099
:100DDC0020207061636B6574732F730053656C65B1
:100DEC00637420545820706F776572002020203572
:100DFC00202064426D00000020202034202064421A
:100E0C006D00000020202033202064426D00000083
:100E1C0020202032202064426D0000002020203150
:100E2C00202064426D0000002020203020206442ED
:100E3C006D00000020202D33202064426D00000046
:100E4C0020202D36202064426D00000020202D39FA
:100E5C00202064426D0000002D3132202064426D50
:100E6C00000000002D3135202064426D0000000090
:100E7C002D3138202064426D000000002D323120CD
:100E8C002064426D000000002020202020205261B0
:100E9C0064696F2049646C6500000000557365201F
:100EAC0053454C45435420746F00000020202020F3
:100EBC0073746172742F73746F7020726164696FD4
:100ECC00000000000080000000000000EC050000A5
:100EDC000000000000000000000000000000000006
:100EEC000000000000000000FC05000000060000EF
:100EFC0000000000241600200000000037950000C0
:100F0C0001000000000000000C06000010060000AC
:100F1C000000000008160020000000000000000087
:100F2C0000000000008000001C0600001C060000F1
:100F3C0000000000000000000000000000000000A5
:100F4C0000000000008000001C0600001C060000D1
:100F5C000000000000000000000000000000000085
:100F6C0000000000008100001C06000020060000AC
:100F7C000000000000000000000000000000000065
:100F8C000000000000800000000000004806000087
:100F9C000000000000000000000000000000000045
:100FAC000000000000000000FC05000058060000D6
:100FBC00000000004016002000000000B395000067
:100FCC0000000000000000000C0600005C060000A1
:100FDC00000000005C16002000000000B39500002B
:100FEC000100000000000000680600006C06000014
:100FFC00000000009416002000000000B3950000D3
:10100C0003000000008000000000000074060000D7
:10101C0000000000000000000000000000000000C4
:10102C000000000000000000FC0500008806000025
:10103C0000000000B0160020000000007D950000AC
:10104C0025000000000000000C0600009C060000BB
:10105C0000000000B0160020000000007D9500008C
:10106C00260000000000000068060000B00600002A
:10107C0000000000B0160020000000007D9500006C
:10108C002700000000000000C4060000C806000095
:10109C0000000000B0160020000000007D9500004C
:1010AC000000000000000000DC060000E00600006C
:1010BC0000000000B0160020000000007D9500002C
:1010CC000100000000000000F4060000F80600001B
:1010DC0000000000B0160020000000007D9500000C
:1010EC0002000000000000000C07000010070000C8
:1010FC0000000000B0160020000000007D950000EC
:10110C000300000000000000240700002807000076
:10111C0000000000B0160020000000007D950000CB
:10112C0004000000000000003C0700004007000025
:10113C0000000000B0160020000000007D950000AB
:10114C0005000000000000005407000058070000D4
:10115C0000000000B0160020000000007D9500008B
:10116C0006000000000000006C0700007007000083
:10117C0000000000B0160020000000007D9500006B
:10118C000700000000000000840700008807000032
:10119C0000000000B0160020000000007D9500004B
:1011AC0008000000000000009C070000A0070000E1
:1011BC0000000000B0160020000000007D9500002B
:1011CC000900000000000000B4070000B807000090
:1011DC0000000000B0160020000000007D9500000B
:1011EC000A00000000000000CC070000D00700003F
:1011FC0000000000B0160020000000007D950000EB
:10120C000B00000000000000E4070000E8070000ED
:10121C0000000000B0160020000000007D950000CA
:10122C000C00000000000000FC070000000800009B
:10123C0000000000B0160020000000007D950000AA
:10124C000D00000000000000140800001808000049
:10125C0000000000B0160020000000007D9500008A
:10126C000E000000000000002C08000030080000F8
:10127C0000000000B0160020000000007D9500006A
:10128C000F000000000000004408000048080000A7
:10129C0000000000B0160020000000007D9500004A
:1012AC0010000000000000005C0800006008000056
:1012BC0000000000B0160020000000007D9500002A
:1012CC001100000000000000740800007808000005
:1012DC0000000000B0160020000000007D9500000A
:1012EC0012000000000000008C08000090080000B4
:1012FC0000000000B0160020000000007D950000EA
:10130C001300000000000000A4080000A808000062
:10131C0000000000B0160020000000007D950000C9
:10132C001400000000000000BC080000C008000011
:10133C0000000000B0160020000000007D950000A9
:10134C001500000000000000D4080000D8080000C0
:10135C0000000000B0160020000000007D95000089
:10136C001600000000000000EC080000F00800006F
:10137C0000000000B0160020000000007D95000069
:10138C00170000000000000004090000080900001C
:10139C0000000000B0160020000000007D95000049
:1013AC0018000000000000001C09000020090000CB
:1013BC0000000000B0160020000000007D95000029
:1013CC00190000000000000034090000380900007A
:1013DC0000000000B0160020000000007D95000009
:1013EC001A000000000000004C0900005009000029
:1013FC0000000000B0160020000000007D950000E9
:10140C001B000000000000006409000068090000D7
:10141C0000000000B0160020000000007D950000C8
:10142C001C000000000000007C0900008009000086
:10143C0000000000B0160020000000007D950000A8
:10144C001D00000000000000940900009809000035
:10145C0000000000B0160020000000007D95000088
:10146C001E00000000000000AC090000B0090000E4
:10147C0000000000B0160020000000007D95000068
:10148C001F00000000000000C4090000C809000093
:10149C0000000000B0160020000000007D95000048
:1014AC002000000000000000DC090000E009000042
:1014BC0000000000B0160020000000007D95000028
:1014CC002100000000000000F4090000F8090000F1
:1014DC0000000000B0160020000000007D95000008
:1014EC0022000000000000000C0A0000100A00009E
:1014FC0000000000B0160020000000007D950000E8
:10150C002300000000000000240A0000280A00004C
:10151C0000000000B0160020000000007D950000C7
:10152C002400000000800000000000003C0A0000C5
:10153C00000000000000000000000000000000009F
:10154C000000000000000000FC050000540A000030
:10155C0000000000B0160020000000007D95000087
:10156C000B000000000000000C060000680A0000E0
:10157C0000000000B0160020000000007D95000067
:10158C000C00000000000000680600007C0A00004F
:10159C0000000000B0160020000000007D95000047
:1015AC000D00000000000000C4060000900A0000BE
:1015BC0000000000B0160020000000007D95000027
:1015CC000E00000000000000DC060000A40A000071
:1015DC0000000000B0160020000000007D95000007
:1015EC000F00000000000000F4060000B80A000024
:1015FC0000000000B0160020000000007D950000E7
:10160C0010000000000000000C070000CC0A0000D5
:10161C0000000000B0160020000000007D950000C6
:10162C00110000000000000024070000E00A000088
:10163C0000000000B0160020000000007D950000A6
:10164C0012000000000000003C070000F40A00003B
:10165C0000000000B0160020000000007D95000086
:10166C00130000000000000054070000080B0000ED
:10167C0000000000B0160020000000007D95000066
:10168C0014000000000000006C0700001C0B0000A0
:10169C0000000000B0160020000000007D95000046
:1016AC00150000000000000084070000300B000053
:1016BC0000000000B0160020000000007D95000026
:1016CC0016000000000000009C070000440B000006
:1016DC0000000000B0160020000000007D95000006
:1016EC001700000000000000B4070000580B0000B9
:1016FC0000000000B0160020000000007D950000E6
:10170C001800000000000000CC0700006C0B00006B
:10171C0000000000B0160020000000007D950000C5
:10172C001900000000000000E4070000800B00001E
:10173C0000000000B0160020000000007D950000A5
:10174C001A0000000080000000000000940B000054
:10175C00000000000000000000000000000000007D
:10176C000000000000000000AC0B0000B00B0000FB
:10177C0000000000B0160020000000007D95000065
:10178C000000000000000000FC050000C40B00007D
:10179C0000000000B0160020000000007D95000045
:1017AC0001000000000000000C060000D80B000037
:1017BC0000000000B0160020000000007D95000025
:1017CC00020000000000000068060000EC0B0000A6
:1017DC0000000000B0160020000000007D95000005
:1017EC000300000000000000C4060000000C000014
:1017FC0000000000B0160020000000007D950000E5
:10180C000400000000000000DC060000140C0000C6
:10181C0000000000B0160020000000007D950000C4
:10182C000500000000000000F4060000280C000079
:10183C0000000000B0160020000000007D950000A4
:10184C0006000000000000000C0700003C0C00002B
:10185C0000000000B0160020000000007D95000084
:10186C00070000000000000024070000500C0000DE
:10187C0000000000B0160020000000007D95000064
:10188C00080000000080000000000000640C000054
:10189C00000000000000000000000000000000003C
:1018AC000000000000000000AC0B0000780C0000F1
:1018BC00000000007816002000000000A195000038
:1018CC000000000000000000FC050000840C00007B
:1018DC00000000007816002000000000A195000018
:1018EC0001000000000000000C060000900C00003D
:1018FC00000000007816002000000000A1950000F8
:10190C00020000000000000068060000A40C0000AB
:10191C00000000007816002000000000A1950000D7
:10192C00030000000080000000000000B80C000064
:10193C00000000000000000000000000000000009B
:10194C000000000000000000FC050000C40C0000BA
:10195C0000000000CC1600200000000041950000A3
:10196C0000000000000000000C060000D00C00007D
:10197C000000000020170020000000005D95000012
:10198C00010000000000000068060000E40C0000EC
:10199C000000000020170020000000005D950000F2
:1019AC000200000000000000C4060000F40C00005F
:1019BC00000000003C1700200000000067950000AC
:1019CC00030000000080000000000000040D000077
:1019DC0000000000000000000000000000000000FB
:1019EC000000000000000000FC050000180D0000C5
:1019FC0000000000E816002000000000BD9500006B
:101A0C0001000000000000000C0600001C0D00008E
:101A1C00000000003C17002000000000BD950000F5
:101A2C00000000000080000000000000200D0000FD
:101A3C00000000000000000000000000000000009A
:101A4C000000000000000000FC050000340D000048
:101A5C00000000000417002000000000D1950000D9
:101A6C0064000000000000000C060000440D0000A3
:101A7C00000000000417002000000000D1950000B9
:101A8C00E80300000000000068060000540D000090
:101A9C00000000000417002000000000D195000099
:101AAC001027000000000000C4060000640D0000B8
:101ABC00000000000417002000000000D195000079
:101ACC00A086010000000000DC060000740D000080
:101ADC00000000000417002000000000D195000059
:101AEC0040420F000080000000000000840D000048
:101AFC0000000000000000000000000000000000DA
:101B0C000000000000000000FC050000980D000023
:101B1C00000000002017002000000000E9950000E4
:101B2C0001000000000000000C060000A80D0000E1
:101B3C00000000002017002000000000E9950000C4
:101B4C000A0000000000000068060000B80D00004C
:101B5C00000000002017002000000000E9950000A4
:101B6C001400000000000000C4060000C80D0000B6
:101B7C00000000002017002000000000E995000084
:101B8C003200000000000000DC060000D80D000050
:101B9C00000000002017002000000000E995000064
:101BAC00640000000080000000000000E80D000050
:101BBC000000000000000000000000000000000019
:101BCC000000000000000000FC050000F80D000003
:101BDC00000000003C17002000000000C79500002A
:101BEC0005000000000000000C060000040E0000C0
:101BFC00000000003C17002000000000C79500000A
:101C0C00040000000000000068060000100E000038
:101C1C00000000003C17002000000000C7950000E9
:101C2C000300000000000000C40600001C0E0000B1
:101C3C00000000003C17002000000000C7950000C9
:101C4C000200000000000000DC060000280E00006E
:101C5C00000000003C17002000000000C7950000A9
:101C6C000100000000000000F4060000340E00002B
:101C7C00000000003C17002000000000C795000089
:101C8C0000000000000000000C070000400E0000E7
:101C9C00000000003C17002000000000C795000069
:101CAC00FDFFFFFF00000000240700004C0E0000A9
:101CBC00000000003C17002000000000C795000049
:101CCC00FAFFFFFF000000003C070000580E000068
:101CDC00000000003C17002000000000C795000029
:101CEC00F7FFFFFF0000000054070000640E000027
:101CFC00000000003C17002000000000C795000009
:101D0C00F4FFFFFF000000006C070000700E0000E5
:101D1C00000000003C17002000000000C7950000E8
:101D2C00F1FFFFFF00000000840700007C0E0000A4
:101D3C00000000003C17002000000000C7950000C8
:101D4C00EEFFFFFF000000009C070000880E000063
:101D5C00000000003C17002000000000C7950000A8
:101D6C00EBFFFFFF008000001C0600001C060000BB
:101D7C000000000000000000000000000000000057
:101D8C0000000000008000001C0600001C06000083
:101D9C000000000000000000000000000000000037
:101DAC0000000000008000001C060000940E0000E3
:101DBC000000000000000000000000000000000017
:101DCC0000000000008000001C0600001C06000043
:101DDC0000000000000000000000000000000000F7
:101DEC0000000000008000001C0600001C06000023
:101DFC0000000000000000000000000000000000D7
:101E0C0000000000000000001C060000A80E0000EE
:101E1C00000000000000000000000000FF95000022
:101E2C000000000000C000001C060000B80E0000FE
:101E3C000000000000000000000000000000000096
:101E4C0000000000DFF800F025C20110DFF800F000
:101E5C00C1C20110DFF800F0E3BF0110DFF800F0A1
:101E6C00D5C20110DFF800F0D9C20110DFF800F084
:101E7C00F5B80110DFF800F0B5C10110DFF800F083
:101E8C00E5C10110DFF800F013C10110DFF800F01C
:101E9C00D5C00110DFF800F0F5C00110DFF800F03C
:101EAC00F1C50110DFF800F095C00110DFF800F06B
:101EBC000DA80110DFF800F0BDBE0110DFF800F036
:101ECC00D9B60110DFF800F021C10110DFF800F0E5
:101EDC00A5B90110DFF800F021BA0110DFF800F00D
:101EEC00BDC20110DFF800F015B60110DFF800F0EC
:101EFC0019A70110DFF800F049BA0110DFF800F063
:101F0C002DBF0110DFF800F0E1B501102DE9F04113
:101F1C00DFF89802DFF8A4420768EFF3118887F323
:101F2C001188A0680121FFF7BDFF0121A1830021C9
:101F3C00E183656921682268461B801A691A884208
:101F4C0005D20020A08388F31188BDE8F08188F3C6
:101F5C00118800204519361A29460120FFF7A6FFE3
:101F6C008642F7D2EFF3118887F31188E18B0129B0
:101F7C0003D129460020FFF799FFA16910F1010F49
:101F8C0008BF084603D0801B814238BF0846411960
:101F9C00FFF790FF012020840020A083256088F3A8
:101FAC001188BDE8F081000010B4DFF800321C6825
:101FBC00EFF3118384F311888161C26183F311887B
:101FCC0010BC70470161704710B50446A08A012807
:101FDC0004D1FFF773FFE168081A10BDA06810BDAB
:101FEC00808A70470021DFF8DC210160126810182C
:101FFC00FFF73CBF0000000030B50446DFF8AC0131
:10200C00006881B0EFF3118580F31188207C0228E1
:10201C0008D12046FFF756FF002020742946A068FF
:10202C00FFF754FF85F3118801B030BD2DE9F0475F
:10203C001F4617F1010F18BF002F92B004460D4632
:10204C0016460AD000AB3A46DFF8741108A8FFF721
:10205C0041FF08A80390022002E000200390032017
:10206C008DF8100006950796DFF85801006800EB14
:10207C000408FFF703FF0290DFF83001D0F800905E
:10208C00EFF3118A89F311882068064020682840F4
:10209C00A84208BF2E4366B12068B0432060039865
:1020AC0008B1FFF71BFF8AF31188304612B0BDE868
:1020BC00F0872FB98AF31188002012B0BDE8F087A1
:1020CC00FFF7E8FE0299044600A8886100A9404683
:1020DC00FFF7D0FE0298FFF705FF9DF810000228CD
:1020EC0004BF0398FFF702FF8AF311882046FFF71D
:1020FC0001FFEFF3118489F31188039818B1FFF7EE
:10210C00EDFE0020039000200299886184F3118871
:10211C009DF8100000B1059812B0BDE8F0870000E2
:10212C00F0B50446DFF89C0000680719DFF87C0066
:10213C00006881B0EFF3118580F3118820680843A3
:10214C0020603846FFF79EFE18B185F3118801B068
:10215C00F0BDFFF79FFE06463846FFF77FFE0746A9
:10216C00B869F9692268114022680240824208BFAE
:10217C00014311B1206888432060080079610CD0BC
:10218C003846FFF79FFE01203874F86808B1FFF756
:10219C0059FEB8682946FFF799FE85F31188304639
:1021AC0001B0BDE8F040FFF7A5BE00003CA4000064
:1021BC0009B9DFF81410FFF771BE00007801002098
:1021CC000520000044A4000060040000406B704730
:1021DC0001F0D2B82DE9F04FDFF8A808008881B0E3
:1021EC0088B9DFF8A408006800F4E020B0F5003FDF
:1021FC0008BF0B240AD0B0F5803F08BF092405D0D6
:10220C0020B9072402E0DFF8A0080468DFF89C5826
:10221C0069684969042088476968496B04208847C4
:10222C000128F9D16968DFF88868C969DFF8848802
:10223C004FF4A06088470120306000BFD8F8000040
:10224C008007FBD520462968DFF86C7849688847F9
:10225C0000900121D7F810903869DFF8B82801FAFE
:10226C0004FB6FEA0B0A0AEA0000386100212B68B4
:10227C001B6820469847102001F0CEFA386810EA07
:10228C000B0F05D1DFF8281A4DF6AD600860FEE79C
:10229C0029FA04F13869C90754BF0AEA00004BEA6D
:1022AC000000386100212B68009A1B682046984773
:1022BC006968096A4FF4A06088470120306000BF4C
:1022CC00D8F800008007FBD5042069688969884725
:1022DC006968496B042088470228F9D101B0BDE830
:1022EC00F08F00007047FEE710B582B0042001F0BB
:1022FC00C4FA022818BF03282AD1032000901C23FB
:10230C004FF040520021DFF8140801F06CFBDFF8AD
:10231C001008DFF810280168EFF3118081F31188A1
:10232C000421B1FA81F1C1F11F010423895CB3FAD4
:10233C0083F3C3F11F034C1E9C5405D1DFF8D8174F
:10234C000A6822F004020A6080F3118802B010BD02
:10235C00DFF8D407DFF8C01700684418DFF8CC1793
:10236C00DFF8300A0968B0FBF1F12046FFF76EFD8B
:10237C00204602B0BDE81040FFF76CBD10B5DFF889
:10238C008C08DFF88C480078DFF888080168890829
:10239C00890041F00101016001F07CFA01F0DBFAE7
:1023AC00DFF874180020206002200968C96888478B
:1023BC00DFF868080168490849000160D4F8EC0F9F
:1023CC00DFF85C070168EFF3118081F31188DFF807
:1023DC0048170A6842F004020A600421B1FA81F13C
:1023EC00C1F11F01DFF83C278B5C5B1C8B5480F325
:1023FC0011884FF0FF3010BDDFF89C19405C70471E
:10240C0030B4DFF81C17DFF81C370A68EFF31181C2
:10241C0082F31188B0FA80F2C2F11F02D25CB0FADA
:10242C0080F4C4F11F04551EE55405D1DFF8E826ED
:10243C00136823EA0000106081F3118830BC7047E8
:10244C002DE9F041DFF8D8160968EFF3118481F318
:10245C001188DFF84419425C531E435446D1DFF80F
:10246C00441901EB80052E786F8830061AD5DFF8F9
:10247C003889D8F80010096A38468847D8F800100F
:10248C00896A38468847D8F80010096B384688475F
:10249C00DFF81C1601200860DFF8180601688907B0
:1024AC00FCD516E0700606D5DFF8001951F8271098
:1024BC00002088470DE0DFF8F088D8F80010896913
:1024CC0038468847D8F80010496B384688470228A8
:1024DC00F8D106F03F003F2818BFFFF7B1FF68782E
:1024EC0000F03F003F2818BFFFF7AAFF84F31188C4
:1024FC00BDE8F08110B508B1140001D1032010BD66
:10250C008160C26003610146DFF8A428DFF8080689
:10251C0012681018FFF7F2FC002010BDF0B504464D
:10252C00DFF8FC05DFF87018006881B0EFF3118557
:10253C0080F31188625C531C6354002A42D1DFF88B
:10254C00641801EB8407387800F03F003F2818BF6F
:10255C00FFF7E4FF787800F03F003F2818BFFFF743
:10256C00DDFF38787E88010617D5DFF83C783968AE
:10257C00C969304688473968496A3046884739689E
:10258C00C96A30468847DFF8281501200860DFF853
:10259C00240501688907FCD514E0400606D5DFF850
:1025AC000C1851F82610012088470BE0DFF8F8775B
:1025BC0039684969304688473968496B30468847DD
:1025CC000128F9D185F31188204601B0BDE8F0400F
:1025DC0001F07CBBDFF848150A68EFF3118182F338
:1025EC001188DFF83425136803431360B0FA80F0C8
:1025FC00C0F11F00DFF82C25835C5B1C835481F336
:10260C00118870472DE9F04F002400252146012840
:10261C0085B0894618BF022440F03082DFF80005EF
:10262C00DFF8F4840268EFF3118082F3118898F8D4
:10263C000420012A06BF022288F80420012180F31D
:10264C00118809B1062419E2FFF724FC0290DFF887
:10265C006007006840440090FFF714FC10BB009E1C
:10266C003046FFF7FBFB0746387AC00714D53969AB
:10267C00FA6801209047C0B201280DD1DFF8980903
:10268C0000688047012088F804000298FFF732FCAC
:10269C00022005B0BDE8F08F3846FFF7E3FB074694
:1026AC00B742E1D1FFF7F2FBDFF8B81A03900C60E8
:1026BC00012001F0E2F8012803D1002001F0E6FA34
:1026CC000124DFF84C6ADFF8D07631688968002085
:1026DC008847DFF8380A0068787C00B10125387C1F
:1026EC0008B145F00205F87B08B145F00405F87A0D
:1026FC0028B1B16ADFF8AC06096BC08D8847B87A8F
:10270C0028B1B16ADFF89C06096B408D8847DFF869
:10271C00A013DFF8F4B90120086045F02000B16A7D
:10272C0089698847DFF8400A00880190012821D187
:10273C00DBF83401C00703D4DBF88801400713D55C
:10274C00DBF8240140084000CBF82401DBF87C01C5
:10275C0040084000CBF87C01DBF83401C007FBD407
:10276C00DBF888014007F7D4DBF8240140F00100C6
:10277C00CBF82401DBF8000040F00100CBF800009E
:10278C0098F80000C00748BF4FF001091BD4B16C8A
:10279C00DFF83C0A896888478246BAF1040F08D1F1
:1027AC00B16CDFF82C0A896888478246BAF1040FAD
:1027BC00F6D0B16A096C10208847B26CDFF8100AA9
:1027CC00526803219047002001F0C6FADFF83C095B
:1027DC000068019801283AD1DBF83401C00703D412
:1027EC00DBF888014007F7D5DFF8E809072101601D
:1027FC00DFF8E4190A689200FCD540F2012101606F
:10280C000122DFF8D8194A6003220A601122CA603B
:10281C0001224A604FF45172CA6001224A6040F2B0
:10282C001162CA6001224A6000210160DBF82401B8
:10283C00DFF8241A40084000CBF8240140F604606D
:10284C000860B16A496B012088470228F9D1B06A47
:10285C00806B80470198012822D1DBF83401C00736
:10286C0003D4DBF88801400714D5DBF824014008B9
:10287C004000CBF82401DBF87C0140085FEA400003
:10288C00CBF87C01DBF83401C007FBD4DBF8880102
:10289C004007F7D4DBF8240140F00100CBF8240109
:1028AC00B9F1000F09D1B26CDFF824095268514616
:1028BC009047B16AC96B102088473168DFF8CC9912
:1028CC0089680120884700BFD9F800008006FBD535
:1028DC0014B1012001F0DAF9B06A416901980128BC
:1028EC0009D16C0860008847B16A496B6000884761
:1028FC000128F9D107E028468847B16A496B284678
:10290C0088470128F9D1F87A28B1B16ADFF8940424
:10291C00C96AC08D8847B87A28B1B16ADFF88404D7
:10292C00C96A408D8847624901200860DBF80000C5
:10293C0040084000CBF800005FF0030088F804006A
:10294C00D9F800008006FBD50198012840F04180A1
:10295C00DBF83401C00703D4DBF888014007F7D556
:10296C00DFF8700807210160DFF86C180A68920024
:10297C00FCD540F2012101600122DFF860184A60A9
:10298C0003220A604FF44172CA6001224A6010228D
:10299C00CA6001224A604FF4C262CA6001224A60D6
:1029AC0000210160DBF82401DFF8AC18400840007E
:1029BC00CBF8240140F604600860E80709D5B16A39
:1029CC00496901208847B16A496B01208847012871
:1029DC00F9D10098FFF756FAC8B9009C2046FFF7CA
:1029EC003DFA0546287A40070BD52969EA68042088
:1029FC009047C0B2012804D1DFF81C06006880475C
:102A0C0005E02846FFF72EFA0546A542EAD1DFF885
:102A1C005417012008600024DFF8F006006800F06D
:102A2C00F7FE0098FFF72EFAE8B9009D2846FFF74D
:102A3C0015FA814699F8080000070ED5D9F8101040
:102A4C00D9F80C2008209047C0B2012805D1DFF836
:102A5C00C80500688047022405E04846FFF702FAE3
:102A6C008146A945E6D1012088F804000398FFF7B8
:102A7C0049FA01F0FCF90298FFF73CFA204605B040
:102A8C00BDE8F08F000500009412005010B5DFF87F
:102A9C0078180968EFF3118481F31188FFF712FAA3
:102AAC0084F3118810BD000080040000B4010010F4
:102ABC002820086028200840C0200240F0B5BC49FE
:102ACC000968064614480F1881B03846FFF7DAF942
:102ADC000025D8B93846FFF7C1F90446A068304242
:102AEC000ED02169E26830469047C0B2012807D168
:102AFC00DFF82405006880470225284601B0F0BDA8
:102B0C002046FFF7AFF90446BC42E7D1284601B096
:102B1C00F0BD0000004000202813002000A00C4055
:102B2C003CA40000402C002028A4000040A400007D
:102B3C0030BF7047F0B581B000F066FEDFF8C457C7
:102B4C002C6804F00C000C2856D0600736D4DFF843
:102B5C00B807924F0068EFF3118680F31188B868BC
:102B6C000021FFF79FF97969081AB969814238BFCA
:102B7C0000208B4986F31188096881421ED2DFF848
:102B8C008C1709684C19DFF888170D68DFF8841763
:102B9C000968B1FBF5F1411A2046FFF757F92046B9
:102BAC00FFF758F94FF47A70B0FBF5F200210120D1
:102BBC00FFF728FD2046FFF745F91FE020071BD43F
:102BCC001648DFF84855E106774C01685ABF4908AA
:102BDC00490041F00101016010202168C96B884750
:102BEC00216889692020884728682068806B804785
:102BFC0001202860286801E0FFF79AFF00F008FE2A
:102C0C0001B0BDE8F04001F05CB90000662C00207A
:102C1C004010094004400340A00100108C210840E2
:102C2C0070B5DFF8E406DFF8DC260068DFF8005743
:102C3C00EFF3118180F31188136843F004031360E0
:102C4C000424B4FA84F4C4F11F04665D761C665542
:102C5C0081F31188EFF3118180F3118843F00800A0
:102C6C0010600820B0FA80F0C0F11F00425D521CC9
:102C7C00425581F311880E20FFF750FC042000F020
:102C8C00FCFD0328DFF8AC160CBF002001200880E7
:102C9C00DFF8A40602680AB1012070BDDFF8B03677
:102CAC0040221A600122C2610020486070BD000001
:102CBC00582C0020F0B5DFF88416DFF8844609683C
:102CCC00DFF88056DFF8806681B0096820208847DD
:102CDC000F20E060072341F61D5020614FF4C072B5
:102CEC00022000900021284600F07DFE012030607B
:102CFC0030688007FCD50120E061DFF83876388831
:102D0C00012823D100203061032020600020706056
:102D1C0070688007FCD402200090052360220021FB
:102D2C00284600F060FE0120706070688007FCD5BA
:102D3C000820A061082100202060DFF81406C16083
:102D4C00016001202060786001B0F0BD032020609C
:102D5C000020706070688007FCD400200090052370
:102D6C0060220021284600F03EFE01207060706851
:102D7C008007FCD50120A061082100202060DFF82D
:102D8C00D005C16001600120206001B00220786094
:102D9C00F0BD0000A0860100F02B0020780100207F
:102DAC0034A4000028A00000B801001088170020EF
:102DBC002CA40000F0B5DFF89465DFF8785581B0ED
:102DCC0030687168814371603061686818B901B00E
:102DDC00BDE8F0406EE70128DFF86C450ED102200B
:102DEC0068604BF2F521DFF85875B86848438009E4
:102DFC00A060000CE0600120206156E0022874D134
:102E0C00DFF83C75B868B0F5C06F4AD10020686037
:102E1C00206020688007FCD40020206060600120C6
:102E2C00DFF8141508600E20FFF70AFBDFF8D80452
:102E3C000168EFF3118381F311880820B0FA80F256
:102E4C00C2F11F02DFF8E804125C0824B4FA84F41F
:102E5C00C4F11F04551E255405D1DFF8A8241468AD
:102E6C0024F00804146083F31188EFF3118381F3C9
:102E7C0011880421B1FA81F1C1F11F010422095C0E
:102E8C00B2FA82F2C2F11F024C1E145405D1DFF8C3
:102E9C007424106820F00400106083F3118801B0D2
:102EAC00F0BD0321696000F0B9F803203860002000
:102EBC00606060688007FCD40020009005236022CD
:102ECC000021DFF8800400F08EFD01206060606856
:102EDC008007FCD50120B8610020386008203061E3
:102EEC0070600120386001B0F0BD032840F0918083
:102EFC0000206860DFF848048068A9680029A0F504
:102F0C00C06048BF4942020048BF5242914238DA81
:102F1C0000284CBF6FF00101022101EB4000AA69AF
:102F2C00032190FBF1F0E96880186A69A86191426D
:102F3C0012D0B0F110022B6948BF5242103B48BF6F
:102F4C005B429A4208DA80B2009012234FF4F802E6
:102F5C000421DFF8F00312E089B200910823DFF8B6
:102F6C00E4634FF47F423021304600F03CFD286989
:102F7C0080B2009012234FF4F8020421304600F086
:102F8C0032FD0020206020688007FCD400202060E7
:102F9C0060600120DFF8A01308600E20FFF750FAE4
:102FAC00DFF864030168EFF3118381F311880820C3
:102FBC00B0FA80F2C2F11F02DFF87403125C08242D
:102FCC00B4FA84F4C4F11F04551E255405D1DFF85E
:102FDC003423146824F00804146083F31188EFF38D
:102FEC00118381F311880421B1FA81F1C1F11F0120
:102FFC000422095CB2FA82F2C2F11F024C1E145474
:10300C0005D1DFF80023106820F00400106083F372
:10301C00118801B0F0BD000030A400002DE9F04192
:10302C0082B0804600F0F0FB401E8041C00FDFF8FC
:10303C00246331680029FCD0DFF81C73FD6A012180
:10304C00316008B100F0E4FBDFF8E842C5F307207B
:10305C00E06000F0D9FB401E8041C00F31680029B0
:10306C00FCD03F680121316008B100F0D1FBC7F3FF
:10307C0084402061B8F5C060A0604CBF6FF00101C6
:10308C00022101EB40002269032190FBF1F0801832
:10309C00E168A061022809DA491E6FF03F039942EA
:1030AC00B8BF194610300BD5002009E01E2808DBEC
:1030BC00491C4029A8BF3F2110382028A8BF1F2039
:1030CC00A06188B2616100900823DFF878524FF458
:1030DC007F423021284600F086FC0120009011230D
:1030EC004FF400320421284600F07DFCA06980B228
:1030FC00009012234FF4F8020421284600F073FCD0
:10310C0002B0BDE8F08100000C2008402C200940E2
:10311C009001001010B504460020D4E90A2347F6AC
:10312C00906100F00FFF012928BF4FF0FF3010BD58
:10313C00DFF8280202684068000C40EA0240021DD9
:10314C00081AB0F1004F05D8501AB0F1004F38BF33
:10315C00914200D21146DFF808221268526A01200F
:10316C00104700000C4009403E4000002DE9704320
:10317C0006460A46D6E90A01D6E90C45A0FB0289A7
:10318C0001FB0299DFF8D4110A68496814EB0804B2
:10319C0045EB0905090C200C41EA024140EA0540C7
:1031AC000A1D411AB1F1004F05D8111AB1F1004FA7
:1031BC0038BF904200D21046DFF8A4211268526A40
:1031CC00014601209047C6E90E45BDE8708300001A
:1031DC00004003400000046010100440084104400B
:1031EC00F0B50546DFF82001DFF878610068DFF8FC
:1031FC007C7181B0EFF3118480F31188306840F05A
:10320C00800030600120B96849688847F96A096A0A
:10321C00142088472869BA68526AB0F5802F34BFE9
:10322C000421010C012090473A68126823210020E8
:10323C009047B968C96901208847306820F4E020BC
:10324C0040F480303060306840F00100306084F32E
:10325C00118801B0F0BD000080E200E0DFF8FC0056
:10326C000368406800220021101859417047DFF8AC
:10327C00F010DFF8FC0010B50968446849680120BB
:10328C0088476069A169BDE81040084714100940DF
:10329C002DE9F0430446DFF8C400036840680D468E
:1032AC0000220021D4E90A671018594132463B46E6
:1032BC0000F048FE3DB1A6FB008906FB019907FB17
:1032CC000099C4E90C89BDE8F08330B5DFF894406F
:1032DC00DFF8945081B020684008400020602068DE
:1032EC0040F0800020600120E062E06A29684968B3
:1032FC0001208847696A096A14208847E06A01B08E
:10330C0030BD0000281300203CA4000024A40000C1
:10331C0040A4000038A40000DFF8400003684068B7
:10332C000022002110185941000C40EA014070475E
:10333C00402C0020C02B002004800C40A001001069
:10334C0000400C4000A00C4034600C4028500C4055
:10335C002C500C4000800C4004A00C40082009406C
:10336C008C010010002009408C0100108401001019
:10337C00E4010020FEE770472DE9F843DFF8040470
:10338C00056815F1010F08BF002500F053FEDFF8AA
:10339C00F813DFF8F843002008600120DFF8F01381
:1033AC000860DFF8F0030068C0073AD56068C00712
:1033BC0034D5DFF8E403DFF8E483006898F80010F4
:1033CC00C0F304401628A8BF203801F01F011629AD
:1033DC00A8BF2039884221D00022401A012822603F
:1033EC0003DB471E481C860102E0471C8801461E71
:1033FC004FF04009BE19B01100F01F0088F8000012
:10340C002C2000F009FAB9F10109F3D1002F44BFC7
:10341C0041F63F2000F000FAF0202060284600F032
:10342C001EF8DFF87C03DFF87C23016841F00051C3
:10343C000160DFF8740301686FF31B4111430160F5
:10344C002068C0F30130012807D12068DFF85C1335
:10345C00084040F4003121602060BDE8F1832DE983
:10346C00F84F0446DFF848830120C8F80000D8F86C
:10347C0004008006FBD5C020DFF838A3CE4FCAF875
:10348C000000BD6805F44000B0F5000F08BF032133
:10349C0003D000280CBF01210221042000F0C0F948
:1034AC007968C64889075DBF3968090C41F0F0019D
:1034BC0072210170C5F3C061C14881F00101016046
:1034CC00C5F3806181F0010181600CB9BD4E2AE029
:1034DC00BD480068C0F38361AA03C0F38F2020D4D9
:1034EC002A0412160AD54FF6FF73400804D1184669
:1034FC00490804BF01210120521CF6D4012A10DB1B
:10350C00400040F00100B0F5803F21BF0120490090
:10351C0041F00101102924BF0F214FF6FF70521EFC
:10352C00ECE740EA014600F06FF9401E8041C00F05
:10353C00A64D29680029FCD0DFF89492C9F81060D8
:10354C000121296008B100F063F90CB9D82008E01A
:10355C009D4A10681168C0F3870001F0030140EA2E
:10356C000120009040F2FF36002332462C2199486E
:10357C0000F039FA1CB19448C06A8604B60C00F00D
:10358C0043F9401E8041C00F29680029FCD0C9F8BE
:10359C0014600121296008B100F03AF9002C0FBF2A
:1035AC008D4E8948406A20F0033600F02DF9401EFC
:1035BC008041C00F29680029FCD0C9F80C6001219A
:1035CC00296008B100F024F90CB9844E04E07E485F
:1035DC008349006A01EA000600F016F9401E80419A
:1035EC00C00F29680029FCD0C9F8086001212960A6
:1035FC0008B100F00DF90CB97A4F1EE07248806AE0
:10360C007B68DB07C0F30352C0F303410AD43B6869
:10361C001F0502EB27721B0482F3040201EB2371DA
:10362C0081F30401090441EA025182B242EA010722
:10363C00222C24BF00F08040074300F0E5F8401E28
:10364C008041C00F29680029FCD0C9F80470012101
:10365C00296008B100F0DCF82220222C5A4E06D347
:10366C00F06B000F00F00100400040F020005E4FB6
:10367C0038721120222C05D3F06B400F00F00100A2
:10368C0040F01000202C38724FF0000B07D3B06CB8
:10369C00C10C01F44071C0F3845040EA010B00F0FE
:1036AC00B3F8401E8041C00F29680029FCD0C9F82E
:1036BC0020B00121296008B100F0AAF86020202C6C
:1036CC0006D3B06C000D00F00300400040F0600029
:1036DC00F8728020222C06D3F06BC00E00F0010093
:1036EC00C00040F080003870222C4FF47C4006D390
:1036FC00F06B400D00F03F00800040F47C403B49F3
:10370C003B4F0880202C0AD3B06C0203810A02F4D0
:10371C007C1242EA815100F00F0041EA003700F0C0
:10372C0073F8401E8041C00F29680029FCD0C9F8ED
:10373C0000700121296008B100F06AF82D4844217D
:10374C000170882181700CB9302105E0F16BC90C36
:10375C0001F0030141F03001C170F069264900F01D
:10376C003F00087047F61800244908802449254872
:10377C0000680020CAF80000C8F8000001200860AA
:10378C00BDE8F18F1C130050840460420400094012
:10379C005C600C400C4009403C1100500662084033
:1037AC00044003400000390148200340FFFFFCFCAB
:1037BC001010094000600C40AC3F005056620840AD
:1037CC0000002043FF0F0F005013005000800C40EE
:1037DC0008A00C4000A00C40000088688A766800A5
:1037EC00FFFFFC00273F710041A10C40DCA10C4005
:1037FC0000803F4005A10C400BB00C4070B00C4059
:10380C00940460422C200940EFF3108072B670478C
:10381C00EFF3108062B670470138FDD170477047E6
:10382C0070B50546E80782B00C4611D5A0B20090E1
:10383C000023574E01220021304600F0D4F801201D
:10384C0000901F234FF000420021304600F0CBF8CF
:10385C00A80707D5A0B200900123022200214C48F2
:10386C0000F0C1F8680707D5A4B2009402230C221B
:10387C000021474800F0B7F873BD0146042907BF83
:10388C001D234FF0C0421C234FF08052404834217E
:10389C0000F0CCB810B53F4C2168896801208847EE
:1038AC003D4801688906FCD5216909684020884794
:1038BC0021698968402088471128F9D110BD10B5BD
:1038CC0082B0012000900023314C01221946204681
:1038DC0000F089F8012000901F234FF000420021D6
:1038EC00204600F080F801200090034602220021BF
:1038FC00204600F078F8294801684068000C40EA3E
:10390C0001402749886013BD80B50120FFF7B5FF42
:10391C0001281ED00023012234211D4800F086F816
:10392C00C0B12148006880471C4801684068000C01
:10393C0040EA01401A498B680A68C860A2EB9202FF
:10394C00C01A184B5843000C0860904238BF104600
:10395C000860012002BD10B500210320FFF760FFB5
:10396C001C234FF080523421094800F05FF810B14D
:10397C000D48006880470948094C01684068000CF4
:10398C0040EA0140606000F067FB206110BD000060
:10399C0000A00C40900100101410094008200940B0
:1039AC00042C002040420F008000001038B5044663
:1039BC000D46FFF729FF401E8041C00F1A490A68C7
:1039CC00002AFCD0012D02D0022D02D003E0247875
:1039DC0002E0248800E0246801220A6008B1FFF7A5
:1039EC0017FF204632BD38B500EB4100102B00F517
:1039FC00007402D3103B241D120C0498984040EA2A
:103A0C000245FFF701FF401E8041C00F06490A68BE
:103A1C00002AFCD0256001220A6000281CBFBDE8EA
:103A2C003140FFF7F5BE31BD00800C4038B51D4666
:103A3C000818102D144602D3103D801C240C0221B2
:103A4C00FFF7B4FF04EA000188B2E84032BD50F839
:103A5C00041B61B150F8042BD30744BFA9F1010337
:103A6C009A180023091F42F8043BFAD1EFE770477C
:103A7C00DFF800F021B30110DFF800F049C10110AC
:103A8C00DFF800F019C20110DFF800F00DC30110CF
:103A9C00DFF800F081C60110DFF800F095B70110D7
:103AAC00DFF800F08DC20110DFF800F03DC201100C
:103ABC00DFF800F009C30110DFF800F045C0011079
:103ACC00DFF800F0D1C70110DFF800F067BE01107D
:103ADC00DFF800F011C80110DFF800F021C8011068
:103AEC00DFF800F039C601100C2811D0192814D0B9
:103AFC001D2817D020281AD021281DD0252820D0E9
:103B0C002A2823D02B2826D02C2829D000207047F7
:103B1C00DFF81402006800687047DFF80C020068D8
:103B2C0040687047DFF80002006880687047DFF873
:103B3C00F8010068C0687047DFF8EC0100680069A4
:103B4C007047DFF8E401006840697047DFF8D8017E
:103B5C000068C0697047DFF8D0010068006A7047E0
:103B6C00DFF8C4010068406A704700B58BB00A21C9
:103B7C0000A8FFF789FF0BB000BD00B581B0FEF7C0
:103B8C0029FBFEF725FBDFF8A401DFF8A411006880
:103B9C00884218BF00F034F8DFF89801B0F5B26F26
:103BAC0003D001B05DF804EB2BE001B000BD00B513
:103BBC0081B00FF22100FFF76BFFFFF76DFFFFF7EE
:103BCC006FFFFFF771FF01B05DF804EBFFF770BFFB
:103BDC000000000000B581B0FEF758F9FEF75AF965
:103BEC0001B05DF804EB0320FFF766BF10B5044687
:103BFC000320FFF761FF2046BDE81040FFF760BFD0
:103C0C00FEE7FEE700B581B0FFF75EFFDFF82801A5
:103C1C00C06801B05DF804EBFFF72ABFDFF81C1198
:103C2C00DFF81C0188617047DFF8181101280CBF00
:103C3C0040F2FF70002008600020704730B581B062
:103C4C00FFF71AFFDFF800510446E88820B1FFF7B0
:103C5C005BFE60B10020E880FEF7E2FF0546102015
:103C6C00FEF72CFF012D0BD1FFF724F808E00521FE
:103C7C0005F13000FEF7EAF805F13000FEF7EAF83E
:103C8C00204601B0BDE83040FFF7FABE10B5012860
:103C9C0018D1FFF7F2FD012816D0FFF710FEDFF860
:103CAC00A8400120E08004F13000FEF7CBF805219C
:103CBC0004F13000FEF7CAF804F13000FEF7CAF840
:103CCC00002010BDFFF747FE002010BD10B50124E9
:103CDC000E2805D10120FFF7D0FD012805D003E007
:103CEC00DFF86810405C00B90024204610BD0020AD
:103CFC007047FFF7EDBEFFF7EFBE01B91449FEF7B1
:103D0C00CDB810B588B00446002001900B461820A1
:103D1C00009002AA21460F48FFF7E2FE02A92046B6
:103D2C00FEF760F908B010BDF001002098CA011030
:103D3C0070472820900500007801002044010020E5
:103D4C00000800000000046028130020F02B002065
:103D5C00B8A3000034A30000F8B5044600F07CF9C9
:103D6C006D4A1268002112F0030F18BF012152078F
:103D7C0048BF41F002010CB141F00401674A92F9CD
:103D8C000730C31A052B02DA9379994251D0A0F16E
:103D9C000F0300250024002B1FD403EB03131C126C
:103DAC00082C28BF07242546072D28BF06255C4E66
:103DBC0006EB850756F825507F687E1BF5B24F073A
:103DCC0044BFC6F307277D198F0744BFC6F30747C7
:103DDC007D19CF0748BF05EB1665514E56F8247078
:103DEC00FEB25FEA417C44BFC7F3072C66445FEA2E
:103DFC00817C44BFC7F3074C66445FEAC17C48BF73
:103E0C0006EB1766A3EB04236B43464C2468803304
:103E1C00092B9B41DB43E4B24FF4EA756C4306EB90
:103E2C00D373B4FBF3F3B3F5803F28BF4FF6FF73A6
:103E3C00938000F30700D07191713B480068918822
:103E4C00106000201F2904D21F21918004E0490832
:103E5C00401CB1F5007FFAD20F39090940EAC100C4
:103E6C00324A33490843106000205060F1BD10B550
:103E7C0000F0F2F8294991F90720904205DA6FF029
:103E8C007F029042B8BF1046C8712A4800688A88E1
:103E9C0080B208B9500812E0904210D3224B1B6834
:103EAC000C681B1B5B1C202B28BF1F23801A20FABD
:103EBC0003F4A018B0F5803F28BF4FF6FF70888040
:103ECC0010BD1D48816801F04062B2F1406F21D0F5
:103EDC00426892071ED4194ADFF864C01368DCF8F4
:103EEC0000C00068C0F303501C30000113F0050F34
:103EFC0005D084450ED223F0050010607047604554
:103F0C0008D2080158BF43F00103480158BF43F0E1
:103F1C00040313607047000024220840482C002042
:103F2C009C130050B43F0050082009403010094049
:103F3C0000FFA48034100940AC3F00500000094041
:103F4C00285009401B4213D1094236D12AB184466C
:103F5C00B0FBF2F002FB10C2704700F091B8FCD33A
:103F6C000022002370470B00020000210020704744
:103F7C00904271EB030CF6D370B5B1FA81F4B3FA3D
:103F8C0083F52C1BA340C4F1200532FA05F633430C
:103F9C00A2405FF00046E64002E05B085FEA3202B6
:103FAC00841A71EB030524BF204629467641F4D3CD
:103FBC0002000B003000002170BD012ACFD970B572
:103FCC00140C20D0B1FA81F4B2FA82F5C4F12004B9
:103FDC006419B4F12006D6D3B2405FF00044F4402B
:103FEC00002502E052085FEA3303C61A71EB020E99
:103FFC0024BF3046714664416D41F3D302000B007F
:10400C002000290070BD0C46B1FBF2F102FB1145FA
:10401C002D0445EA1045B5FBF2F402FB145580B2B1
:10402C0040EA0545B5FBF2F002FB105240EA0440B1
:10403C0070BD0000074802680121120F91404FF437
:10404C00C572114203D00068000F082800D0FEE7AB
:10405C0070470000181300500748084A816812780E
:10406C000068C90352B2A0F54070C9135043A1EBCC
:10407C002010803000127047285009400C1300505B
:10408C00704700002DE9F0410FF25031AF48392252
:10409C0051F8043B51F8044B51F8045B51F8046B94
:1040AC0051F8047B51F804CB51F804EB51F8048B14
:1040BC0040F8043B40F8044B40F8045B40F8046BB8
:1040CC0040F8047B40F804CB40F804EB521E40F857
:1040DC00048BDDD14A688B68CC680968016042604A
:1040EC008360C460BDE8F0812DE9F0410FF61C201F
:1040FC0097492D2250F8043B50F8044B50F8045BC0
:10410C0050F8046B50F8047B50F804CB50F804EBD7
:10411C0050F8048B41F8043B41F8044B41F8045B24
:10412C0041F8046B41F8047B41F804CB41F804EBF3
:10413C00521E41F8048BDDD142688368C46805695E
:10414C00006808604A608B60CC600D61BDE8F0814E
:10415C00F8B50E46044615461F46182100F0B2FF6E
:10416C000421304600F0B2FF43F601002080207B92
:10417C0067F3030020730698A06000F08AF8A07B18
:10418C0000F0FE0040F01800A0732878E07371482E
:10419C00206168686061204601F083F8BDE8F24058
:1041AC00B3E070B50D4604461646202100F08AFF98
:1041BC0043F606002080207B00F0F000207300F016
:1041CC0068F8297D6448002918BF022903D011D34F
:1041DC0003290FD01DE0A17B01F0070141F47A61A6
:1041EC00E1812169084040F0A06040F00F0020619F
:1041FC000B200DE0A17B01F0070141F4FA61E18194
:10420C002169084040F0207040F00F002061092027
:10421C002075E189012060F30201E181287D0228EB
:10422C0009DB4A20607549F6C071E08A084040F00D
:10423C00E000E0820AE0607DE18A00F0C00040F01E
:10424C000A006075202060F30501E1824FF6F071E1
:10425C00208B084020833088618B800B60F38711A2
:10426C0061833088000A60F305016183B6F80110A0
:10427C00A07E01F47F410843608341F20711374867
:10428C0001604FF0FF31416000F108018162E06193
:10429C0036E0607B00F0F00040F001006073704786
:1042AC0070B50D4604461646242100F00BFF002085
:1042BC000021024607C543F6020020800C3D0498FD
:1042CC00217B60F30301E07D217300F0F00040F0EE
:1042DC000100E0750598A0602562E661FFF7D9FF43
:1042EC00E07B00F0770040F02300E073A07B00F04F
:1042FC00FE0040F01E00A073164820618C20207533
:10430C00204600F0CEFFBDE870404FF47A7000F00C
:10431C00CBBF0FF6AC51096881B0C0B200910A2135
:10432C00484300F51660ADF80000009801B07047E6
:10433C0080B568220FF23C01094800F0F5FF0948EE
:10434C00094901600949016201BD0000008000219A
:10435C0000C0002191D391D3FF0000E0182B002066
:10436C0004040021B00300210504002145040021B0
:10437C00BAE687E6F0B5174C40216118C8780228D8
:10438C0005D009480021016008498847F0BD256E19
:10439C00074E3560600728432066276824600E4866
:1043AC00804727603560F0BD2C110440A5650000E6
:1043BC002840044010B5074CA17D002905D10121EE
:1043CC00A175480204493E3988472068002800D06E
:1043DC00804710BD540200218B3900003C60CF2F68
:1043EC009D3F0C030A680C0787033F00F0FFFF009A
:1043FC0000FF0000000000000000000000000000B2
:10440C0000000000030007001F3D00000000000436
:10441C000F00000087030B00F440430000808280F3
:10442C00700600001E091005540005000002103E25
:10443C00610000002F0030307F02000000000000FF
:10444C0000AA0000000000000000000000000000B6
:10445C0000000000207248722DA3037305730372D1
:10446C0004730673047276737672C0C70180010000
:10447C0001901090010801900C720D720E72C0B078
:10448C000071F0B0C0A01872328120105239700641
:10449C002000301601110114016C79607B60EC6016
:1044AC0052637960796079607A6079607B60EC60E6
:1044BC0052637960796079607A60101220720F73A0
:1044CC001073117381811000809170B051606F6016
:1044DC006F6030C0916741C182C270C42018136FE5
:1044EC00236E1116121681683078B09A4078C09AF3
:1044FC005078D09A6078E09A82C4A0C52018964073
:10450C000312236E121693686F6060819094408141
:10451C008039702A0110111632844484F3C0F5C01E
:10452C0000C2011CBB4000C1101CB140B34C1310A5
:10453C0003183018131A101A1239AE68BB60F31333
:10454C00BB60F313151000C15018151A101A14394A
:10455C00B968D8B0007108B1D8A000B280B403B06B
:10456C0013B002B012B02972D0B0007100B140810A
:10457C009092007100B14081F022CB44F013031CE7
:10458C00D74093929294007100B1959294940071DB
:10459C0000B1D0B080A40070D1A030C0609740C0F2
:1045AC008097F1B0C1B00071F1B0C1A0767203A0D8
:1045BC0002A000700F73107340C0916700C1C091CE
:1045CC00976483B4F3B0C3B00071C3A0DE646F60B2
:1045DC0006B016B004B014B002B012B000847278F9
:1045EC00200443818339732A7394F2C132186231E7
:1045FC0021105131120020000094301010160110BF
:10460C0021313039102217412012503103108031E2
:10461C001000301650930212041273222A41308477
:10462C00C097D287821A5084C097D487841A2C6181
:10463C00632237414084C097D087801A021460846B
:10464C00C097D087801A041443614084A178100469
:10465C00C097D287421A6084A1781004C097D4877F
:10466C00441A523154316339330613163238343804
:10467C00823182398431420072951078309050909A
:10468C0020784090609005B2E28A038302930CC0BC
:10469C000BC040818031803940394181F3C03104F5
:1046AC0014C0411402C01214656922317D8410C0FB
:1046BC000D142D312D14CE8A8E311E317E39C98ABE
:1046CC0049317939493929319A1072B04EA06EB0FE
:1046DC0011B06CB08A97767264B764A762C66297A1
:1046EC004FC0D366B18AF1228B45D18AF1228B451A
:1046FC003162007173B060B7B7800722C24560A702
:10470C00B18AF1229C4137229C4113B1B0803022F6
:10471C009745AA61E122AF4190805022AF41F5B09C
:10472C00108220228B41899764B764A7F6B08B6105
:10473C008D9764B764A7F6B08B61D08AF022BB4129
:10474C003722BB4175B013B1B0803022B54587B06C
:10475C008B61D122164390802022164399668B617F
:10476C008F97F3C7108480318039833130001094D7
:10477C0087B0E3A0F2B0C2A0F5B0C5A0F1B0C1B053
:10478C00C6A010B113B1B0800022D3453022D3455E
:10479C00007160128097F1B08FB861897085011833
:1047AC005195608A718A88A487A422C00118211CA3
:1047BC00F34D1214F149F461011CF441F34D87B42B
:1047CC00F46188B441B061B0D08AE022FC4110821F
:1047DC002022774500714EB06EB0B18001228B461D
:1047EC0031228B467672F6B07184213160C210147E
:1047FC008097E0C76097F0C66097F6B0C6B0C1A0CE
:10480C00B0B7638A748A838A948A0071B18001225A
:10481C008B4631228B46B08AC022234691890122D5
:10482C007741C18100C0C0917084A281276AC19177
:10483C0000C3709001B2E0A0E3A044A0007000712E
:10484C0073B060B7B7800722504637226E4660A718
:10485C00B18AE1224942908050224942F5B010823F
:10486C00202231428D9764B764A7F6B03162D12211
:10487C001643908020221643996631628F97F2B0CE
:10488C00C2A0F5B0C5A0F1B0C1B0C6A010B113B1B3
:10489C00B080002258463022584600716012809732
:1048AC00F1B08FB8618970858031803D01185195C8
:1048BC00608A718A82A1E5618F97F2B0C2A0F5B0CF
:1048CC00C5A0F1B0C1B0C6A010B113B1B080002228
:1048DC00764630227646007160128097F1B08FB820
:1048EC0061897085803D01185195808A918A82B1C9
:1048FC00E56173B060A760B7B0A772B04EA06EB0A0
:10490C0011B0B08AF022C245012250466E62B08AC4
:10491C00B0229F463B1ED146A1627B1ED1460BC0E6
:10492C0089B840898031803D1016303D0C14B08020
:10493C000022AD420070B38A8339F306B18AF0CFFE
:10494C00010431301C1CC94E001210180C1CCB4A2F
:10495C00B0800022BE420070C2101216323CE18AB6
:10496C0020831022CD42CF620193F2B000701C1054
:10497C00BA620C10BA622118C6622114C6621B16E8
:10498C00C762F6B0F1B010B113B1F5B0F2B00C7261
:10499C000D720E72E0B0E3B0B28AF222E442C6B0FD
:1049AC0063B7E762D08AF022074305B404A428B4A5
:1049BC0029A4A0CA8031A1CA010051946194D38A60
:1049CC0083318339108480318039833130001094E5
:1049DC00008450315039D38A8339F306F4C134182A
:1049EC00843134314000009489B0E2221143CA8AE8
:1049FC004A398A392A318A97C5B0C6B063B7B28AA8
:104A0C00D2221543C2B000700FB2E0A0E3A08E9783
:104A1C0064B764A7F6B010B113B11082F0221F4333
:104A2C00F5B0028004A006A001A00372047250C06D
:104A3C009167007164B7F6B0C5B00FA20071F5B004
:104A4C00C5A010783090029020784090609072B0A1
:104A5C000FA2D3668A9764A7F6B084618CB8808164
:104A6C00A489243984310400849160C091677673E1
:104A7C0076724872067202720472057306736F6066
:104A8C000013B0912DB370C09167F8B0FA640012A6
:104A9C00101A809780C3609780C26097C1A0C6B07F
:104AAC009080002251445481041E62438497F6B0D6
:104ABC00528580D062989167918911227843828ABD
:104ACC00938A90E06298739891677E63628A738A86
:104ADC00A0E062987398916790878187011C8E4B38
:104AEC000118F11E8C4B8187F11A81970071F6B079
:104AFC00F116819705A20071F6B0C6A040635098DC
:104B0C0040880022924730B80070000054610000C9
:104B1C007F14071353000800F1242E001300B00A71
:104B2C003F00F7070000000000000000000000003C
:104B3C0000000000304000400140034007400F409F
:104B4C004F40CF40CF41CF43CF47CF4FCF3FCF2F59
:104B5C00CF1FCF0F000000000000000000000F006E
:104B6C00080000003F00000040003F00000004006F
:104B7C0068000E00DC00060043001A00050000006F
:104B8C000000020000003F00000000000400C00014
:104B9C0000000400C000000007000000000000003E
:104BAC0000000000000000000000000050C0009158
:104BBC00007070C00091007082312100319110B1F1
:104BCC000070018101B100A18231329110B10191CB
:104BDC001110418141226340F106007051C00191D6
:104BEC0030181039833108D01831416F31003191B0
:104BFC0010B1831414166F680070251050C000910A
:104C0C00F4C340C12014036F3110410422C082311F
:104C1C002100319110B163393110410482C08231CD
:104C2C002100319110B163393110A2C082312100C1
:104C3C00319110B150101531051405920070536468
:104C4C0052C0311031066131C102566412C13110AB
:104C5C00213971065131E1025664007051C0019145
:104C6C0001CCE2C05664536411C1C2C0566454B046
:104C7C00007154A064B0F0800022B14011C122C177
:104C8C00566451C00191E2C08231608202003291BF
:104C9C0010B100C3C46853644012B09032B0538258
:104CAC0053395339996460C3CE688012B09032B0D6
:104CBC000070536401C122C1566401C1C2C0566464
:104CCC0053829964C012B09032B00070536472C2B7
:104CDC0081C0566422C111C1566402C011C1566410
:104CEC0062C031C3566462C311C1566402C311C1A0
:104CFC005664538253399964E2C35B641122F640C3
:104D0C0042C281C8566452C211C1566472C2E1CE0D
:104D1C00566402C281C8566402C201C85664B0C04F
:104D2C000A690070536442C201C8566452C211C071
:104D3C00566472C2E1C0566402C001C1566462C0BE
:104D4C0001C3566422C101C1566462C301C15664D9
:104D5C0002C301C1566453829964007000000000C4
:104D6C000000000000000000000000000000000037
:104D7C000000000000000000000000000000000027
:104D8C000000000000000000000000000000000017
:104D9C000000000000000000000000000000000007
:104DAC0000000000000000000000000000000000F7
:104DBC0000000000067305720B720E7250B0007189
:104DCC00818060B050A09280412274458080F1C1F6
:104DDC001004301601110114016C8761886189611E
:104DEC008A618B618C618D618F6191619361956139
:104DFC00CD62D0629180F2C0210421318280422A9E
:104E0C001214321601112114016C9E61BC61A46153
:104E1C00D0629E61BC61A461D0629661966196611C
:104E2C00966196619661A8649661D3649661E0641C
:104E3C0096610C65966196611012B0900E720673B5
:104E4C000572101230905861F0CFD36684C203C043
:104E5C00C0C368644078509160781092707820924A
:104E6C008078309290784092A07860925078F0914F
:104E7C003078909110824039F006011010311014E6
:104E8C0000929661BCA0E2A054A0F0805022C645CE
:104E9C0040800022C246BE6140A02D821082F1C02B
:104EAC00100409101A824A391A041082803910042D
:104EBC000E10AB10BC10C2107764E0CFD36613B0E9
:104ECC0003B0616653B050B054B064B013B03F66D9
:104EDC004866007141800122C246F0801022F345E1
:104EEC00F022AF4664B03122E34163B067661866C6
:104EFC00E36164B06F818F318F3DD0DFFF92D36659
:104F0C00007141800122C24664B0F08050220D42F3
:104F1C0063B01182C122084667669C661182D12259
:104F2C00FA451866FA61618172818131813D823165
:104F3C00823DC0EFF1920293D366BC61B081C09107
:104F4C00D381D318254EF30B1316E31C3E4AC391A1
:104F5C00E3813B142A62E31C3E4AC391E3813B1874
:104F6C00AB1C3A4E9B1C3C4ABC1C3E42B2101082FD
:104F7C00D0223742F08010223E4677643F663E6274
:104F8C00AB102E629B102E6200703082F1C01004A8
:104F9C0063B00071426ABC10E0B00070B281C29183
:104FAC00D281018212185181121841828131813DC6
:104FBC00121C584AE2B032B0B0CFD366F1C72114FC
:104FCC005C4E12C86291729131B0E1B0007008125F
:104FDC0006C000C86091709100700182B081C091D0
:104FEC00D0811018518110180614E1804282823150
:104FFC00823D201C7B4AE2B021227F4632B0A0CFFA
:10500C00D36621227F42E2A032B031824139F0C016
:10501C000104011E8D42181610C01030081C9B464E
:10502C006010103C0610F1C76114914E16C86691C1
:10503C0071818131813D161C984A769131B006C040
:10504C000812007061818131813D408280390118E4
:10505C00F11CAE4A0114B080C022AE46BCB033B0D5
:10506C0090EFF1920F93D366007003A063B064B01D
:10507C00EFB00C65007140800022C24664B0E06461
:10508C00EFA0007140800022C24664B003B0E3611F
:10509C00018262818231823D80EFF1920293D3666C
:1050AC0003A00C659661A2807764966150B0007184
:1050BC009661E092D0820022D446C0B2007000000B
:1050CC0000000000002200F05FB90000002200F098
:1050DC0075B900007D4941EA0020DDE0F8B500F02B
:1050EC00B0F840F6020020804FF6F071207B66612C
:1050FC0000F046F8208A084020824FF63F71608A03
:10510C0008403988890B40EA811060823888618AAE
:10511C00000A60F305016182B7F80110A07C01F46C
:10512C007F41084360822878A0736CE030B5002181
:10513C000C220FF2AC13541804EBD474E4052416AF
:10514C0004EB4405ED56A84207D08542B9BF621E58
:10515C0052B2611C49B28A42EDDA04EB4400C01829
:10516C0030BD38B50D4604461421FFF7ABFF40F6B1
:10517C000A002080256100F002F820E02080207BCE
:10518C0000F0F0002073607B00F0F00040F00100B4
:10519C006073704732B5044615461821FFF792FF2D
:1051AC0040F60300FFF7EAFFBDF80000E081BDF810
:1051BC0002002082A07C00F0FE002843A07444482A
:1051CC00046031BDF8B50D46044616461F461C2139
:1051DC00FFF778FF40F608002080B100207B278283
:1051EC0000F0F000207301F00C0100F031F800F039
:1051FC00F0000843A073E07C00F0F00040F00100E8
:10520C00E0740698606132480460F1BDF8B500F0B6
:10521C0018F840F607002080B100207B276100F0D1
:10522C00F000207301F0040100F012F800F0F80017
:10523C000843A073E07B00F0F00040F00100E07345
:10524C00E1E70D46044616461F461821FFF73ABF04
:10525C00607B00F0F00040F0010060732943A07BFC
:10526C00704710B540F60E0404808173C27303823C
:10527C00047B04F0F0040473447B04F0F00444F069
:10528C0001044473029941821149086010BD4FF624
:10529C00FC7108400F4908430D4908604FF47A70BF
:1052AC0002E00B49086070470B490968401E09B9B8
:1052BC000028F9D1C8B2012818BF00207047044952
:1052CC000648086042F21070EEE7000001000E0480
:1052DC000010044001000706041004400100010402
:1052EC00053100042500037100026A00016500000D
:1052FC00E600FDDC00FAD600F7D100F4CE00F1CBCD
:10530C0000EEC800EBC6000062B38B0708D0521E3B
:10531C0011F8013B00F8013B00F024808B07F6D11B
:10532C00830740F0208000BF103A07D330B4B1E8B7
:10533C003810103AA0E83810F9D230BC530724BF0B
:10534C00B1E80810A0E8081044BF51F8043B40F83D
:10535C00043BD20724BF31F8022B20F8022B44BFA8
:10536C000B7803707047083A07D3B1E80810083A75
:10537C0040F8043B40F804CBF7D25307E4E70000B5
:10538C0062F30F2262F31F4200B500BF1300964672
:10539C009446103928BFA0E80C50FAD85FEA417C3B
:1053AC0028BF0CC048BF40F8042BC90728BF20F801
:1053BC00022B48BF00F8012B00BD0000401810F074
:1053CC00030308D0C91A1FD3DB0748BF00F8012D0F
:1053DC0028BF20F8022D130030B41446154610399E
:1053EC0028BF20E93C00FAD8490728BF20E90C0067
:1053FC0048BF40F8042D890028BF20F8022D48BF73
:10540C0000F8012D30BC7047C91818BF00F8012DE9
:10541C00CB0728BF00F8012D70470000DFF800F023
:10542C00C1C10110DFF800F009B70110DFF800F07E
:10543C00CDA00110DFF800F041AC0110DFF800F056
:10544C006DA90110C068000900F0010070474FF011
:10545C00FF310160DFF84016416000210172704796
:10546C002DE9F043DFF82C96D9F80050D9F80470E8
:10547C0099B0044688461646FEF7FEFA298801299B
:10548C0002D1FEF7FDFA0DE001212980FEF7F8FAB2
:10549C001EB904A8FFF7DBFF04AE002C18BFB8F14F
:1054AC00000F01D100205BE010A800F0A1FD10A9B5
:1054BC0070681490307A8DF85800F87900F08EFDF1
:1054CC0000284DD0686008233068A860AC6285F86D
:1054DC002C8000262422002107A8FFF79FFF08E05C
:1054EC00242000FB064007AA01210830FFF79AFF91
:1054FC00761CF6B24645F3D301208DF8340007AA8A
:10550C00012105F10C00FFF78DFF3979DFF88C05CF
:10551C00DFF87C450143009100A9BA79104348603B
:10552C00DFF87C25787910438860FF20C860201D47
:10553C0000F089FE206098B1DFF86815DFF8680587
:10554C000968B0FBF1F0FFF779FF79792068012247
:10555C0000F019FF39681122484600F05FFA4846FE
:10556C0019B0BDE8F083026892F82C2091423CBF40
:10557C00012200F0D9BA70472DE9F04F824683B072
:10558C00DAF8007097F82C000D4693461C468542BD
:10559C0036D2B96807F10C00FFF748FF80B307F16A
:1055AC0008002421006A69430A580192081800F186
:1055BC000808A4EB0B00401CC0B200900C9C0D988A
:1055CC00B96800F0A1FBC0B1002510E02E19F2B2B1
:1055DC005946504600F07EFA0198009A5844F3B2AE
:1055EC0000EBC311D2B2504600F02BFA6D1CEDB299
:1055FC00A945EBDA4046FFF71DFF07F10C0009E265
:10560C00BDE8F78F006890F82C20914200D37047CA
:10561C0070B500F0E3F88B188D5881685C6803F165
:10562C0008063046FFF702FF48B11CB12146284658
:10563C00FFF74CFD3046BDE87040FFF7FBBE70BD78
:10564C00036893F82C3099423CBF012300F0A0BAB8
:10565C0070472DE9F8431546026892F82C008142F8
:10566C0027D202F108002424006A61430E58089CDA
:10567C00081800F10808581BC7B20998916800F087
:10568C0043FBB0B10020844607E05A185B1C02F8BB
:10569C0006C0DBB29F42F8DA401CC0B2814505DB84
:1056AC00011905EBC11189B20023F2E7404600F065
:1056BC009CBBBDE8F1832DE9F0471446026892F8D3
:1056CC002C00814263D202F108002425006A694350
:1056DC00DF080D58081800F1080909984FEAD0089E
:1056EC00FF2601214FF0000CA3EBC70EF44503DAA3
:1056FC00761A4906F6B2090E0CF1010CBCF1080F32
:10570C00F2DB4FF0000A01230021A0EBC800884215
:10571C0004DB9A445B065FFA8AFA1B0E491C0829C3
:10572C00F5DB474508BF8AF0FF0A916800F064FB7F
:10573C0068B3214608980A4606E002EBC713521CD0
:10574C005C5D74405C55D2B29042F6DA7A1C0AE089
:10575C0004EBC213641C5F5D87F0FF075F55E4B276
:10576C00A042F5DA521CD2B2A8F10103934209DB34
:10577C000C46F5E701EBC812491C535D8AEA03039A
:10578C005355C9B28842F5DA484600F029BBBDE84A
:10579C00F087F8B5069C006802EBC4149D1A90F8CB
:1057AC002C20A4B2EDB2914217D200F017F88E580B
:1057BC00891801F1080781683846FFF737FE60B198
:1057CC00002006E00119401C8A5D82F0FF028A5518
:1057DC00C0B28542F6DA00F0F4B9F1BD00F108026E
:1057EC002423126A594370471CB5046894F82C4062
:1057FC00A14203D200F009F900F0E8F913BDF0B5AD
:10580C000446164683B00D461F46304600F056FE41
:10581C00216891F82C108D4205D200F010F800F0A0
:10582C0020F800F0D3F9F7BD1CB5046894F82C40AF
:10583C00A14203D200F0E9F800F00FFA13BD0621E3
:10584C004843012F02D0022F06D008E000EBD070A5
:10585C004010C0F140037047C0F180037047002333
:10586C00704701200190DBB208980090324629461F
:10587C00204670472DE9F14F86B0056895F82C004D
:10588C00894692469846814580F09B80A86A2421DF
:10589C0001FB0900083000260290B8F10B0F80F2D2
:1058AC0090804FF03F40B3460BE000F04FFEDFF826
:1058BC00FC21DFF8FC3100F071FE00F041FF04F137
:1058CC00010B5FFA8BF44445EFD3514600F080FF97
:1058DC0005D8DFF8E00100F08DFF82460126504626
:1058EC0000F0F4FF8346002703ACDFF8CC015146EF
:1058FC0000F080FF824600F0E9FF0A2190FBF1F1F5
:10590C000A2202FB11003855781CC7B208F10100BD
:10591C008742EADB18F80400052814DB0120A8F103
:10592C00010100E0491E49B2002909D40A5D821820
:10593C000A55D2B20A2A06BF00220A550020F1E706
:10594C0008B10BF1010BA9680298FFF76FFD002855
:10595C0037D0109DDDF844A056B1CDF800A0002042
:10596C0001902B46069818A2494600F02FF9AD1D60
:10597C0000F02EF85A46494600F06FF9EDB20A21B4
:10598C00584600F0A4FD062101FB005500F020F85C
:10599C000EA2494600F01AF9AD1D00270BE00020BD
:1059AC000190CDF800A0325D0698EBB2494600F0AC
:1059BC0054F9AD1D771CFEB24645F0D30298FFF7A3
:1059CC0039FD07B0BDE8F08F2D0000002E0000005F
:1059DC0000200190CDF800A0EBB2069870471CB5E2
:1059EC00046894F82C40A14203D200F00EF800F0A9
:1059FC0096F913BD1CB5046894F82C40A14203D24F
:105A0C0000F003F800F0B9F913BD01240194049CD3
:105A1C0000947047BDE8FE4FFFF70CBD2DE9F8432D
:105A2C0000F02CF800F04CF800F048F800F022F8E8
:105A3C00074600F01AF80028FBD107B143E0BDE897
