:020000040020DA
:1000000000800020254F20005D4F20005F4F200022
:10001000614F2000614F2000614F20000000000070
:10002000000000000000000000000000614F200000
:10003000614F200000000000614F2000614F200050
:10004000614F2000614F2000614F2000614F200070
:1000500000000000614F2000614F2000614F200030
:10006000614F2000000000000000000000000000C0
:100070000000000000000000614F200000000000B0
:100080000000000000000000614F2000614F2000D0
:10009000614F2000614F2000614F2000614F200020
:1000A000614F2000614F2000614F2000614F200010
:1000B000614F2000614F2000614F2000614F200000
:1000C000614F2000614F2000614F2000614F2000F0
:1000D000614F200000000000000000000000000050
:1000E0000000000000000000000000000000000010
:1000F000614F200000000000614F2000614F200090
:1001000080B500F004F8002000F062FC01BD2DE98C
:10011000F04182B00400207EC00706D400210020F8
:1001200000F0CCFC200000F052FA94F9155094F93C
:100130001760200000F01EFC46432068F6B210EB6A
:1001400046180021200000F029FC070022E0401E94
:10015000216840B24201515A4904F8D440B26DB20C
:10016000A8420CD1FFB2F800C01DC0B200907F239E
:10017000FFB2FA00D2B20021002000F0D9FC390011
:10018000C9B2200000F00AFC0700761C2068F6B215
:1001900010EB4618207DF6B2864258D2FFB2002FEF
:1001A00055D03900C9B2002000F088FC00233A0085
:1001B000D2B23100C9B2200000F04EF820686DB212
:1001C00010EB4510804511D1FFB2F800401E03002E
:1001D000DBB27F220021002000F026FF3B00DBB2D3
:1001E0007F220021002000F033FD0FE0207E01215E
:1001F0007A1E9140084209D0FFB2F800401E030069
:10020000DBB27F220021002000F03CFFB8F80000A4
:100210004004B4D5701E9BE73900C9B2002000F03D
:100220004DFC207E01217A1E9140084209D0FFB288
:10023000F800401E0300DBB27F220021002000F006
:1002400021FF3900C9B2200000F0A8FB0700FFB26F
:10025000002FE1D1BDE8F3812DE9F04F87B083464F
:1002600014009946DBF80000C9B210EB4115C9B281
:100270009BF9160009B200B2814201D1012600E0CB
:10028000002600208DF8040001A8049001A8039026
:1002900001A802906868002801D068680490A868E6
:1002A000002801D0A8680390E868002801D0E86819
:1002B0000290029F02980590288810F440782888C0
:1002C00010F4E050ADF80200029801A9884203D171
:1002D0004FF4E050ADF802005FFA89F9B9F1000F70
:1002E00005D1049800F0D2FC062101FB00F9039827
:1002F00000F0CCFC062101FB00FA9BF9160010F17E
:10030000010F01D0012000E00020062148438DF8B4
:100310000000BDF80200B0F5806F12D0B0F5006F9C
:1003200016D0B0F5406F1AD0B0F5805F1ED0B0F592
:10033000A05F22D0B0F5C05F26D0B0F5E05F30D02E
:1003400035E00121386800F0BFFC0621484334E065
:100350000221386800F0B8FC062148432DE0032153
:10036000386800F0B1FC0621484326E004213868D3
:1003700000F0AAFC062148431FE00521386800F080
:10038000A3FC0621484318E0386800F0C7F98DF84F
:1003900005009DF80510386800F096FC06214843DA
:1003A0000BE0029800F072FC0621484305E0059836
:1003B000006800F074FC062148435FF0FF315FFAEB
:1003C00089F9B9F1000F00D0491C5FFA8AFABAF135
:1003D000000F00D0491CC0B2002800D0491C5FFAB1
:1003E00089F95FFA8AFA1AEB0902C0B2821849B297
:1003F000062303FB012249B211F1010F00D10021B4
:100400001FFA88F84146B1F5807F03D0B1F5007F2F
:1004100003D009E0D2F17E0107E012B2D2F17E01F1
:10042000022291FBF2F100E002215FFA89F919EB57
:100430000102ADF806202A88920420D55FFA89F9D6
:1004400019EB01055FFA89F9B9F1000F03D19DF8A5
:100450000020002A00D0AD1D1FFA88F8B8F5407FB3
:1004600004D15FFA8AFADAF17E0B2AE0C0B210EB0F
:10047000050BC0B2002824D01BF1060B21E05FFA67
:1004800089F919EB010B5FFA89F9B9F1000F03D172
:100490009DF80020002A01D01BF1060B1FFA88F8F6
:1004A000B8F5407F03D1C0B2D0F17E0509E05FFA14
:1004B0008AFA1AEB0B055FFA8AFABAF1000F00D03C
:1004C000AD1D2300DBB20A00D2B20499002000F077
:1004D0002BFC2300DBB25A46D2B20399002000F075
:1004E00023FC76B2002E09D02300DBB2BDF8060053
:1004F0000200D2B288A1002000F016FCBDF8020074
:10050000B0F5806F1AD0B0F5006F21D0B0F5406F14
:1005100028D0B0F5805F2FD0B0F5A05F36D0B0F511
:10052000C05F3DD0B0F5E05F45D12300DBB22A00CB
:10053000D2B20299002000F0F7FB45E0E4B200944B
:100540002B00DBB201223968002000F0BCFC3BE04C
:10055000E4B200942B00DBB202223968002000F0E4
:10056000B2FC31E0E4B200942B00DBB20322396824
:10057000002000F0A8FC27E0E4B200942B00DBB2DE
:1005800004223968002000F09EFC1DE0E4B20094D3
:100590002B00DBB205223968002000F094FC13E048
:1005A000E4B200942B00DBB29DF8052039680020EE
:1005B00000F089FC08E02300DBB22A00D2B20598E3
:1005C0000168002000F027FC07B0BDE8F08FF0B50F
:1005D00087B00500280000F05EF80400E8680028F5
:1005E00001D0ED680EE0686800280AD0280000F00D
:1005F00096FE90F91510006849B210EB411085681D
:1006000000E0D24DE4B2D4F18000062190FBF1F07D
:10061000461EE4B26000D0F18000062190FBF1F0AC
:10062000871E280000F032FBC0B2F6B2B04201D201
:100630000600FFE7002005E0C0B2415D6A46C0B297
:100640008154401CC0B2F6B2B042F5D300206946D6
:10065000F6B27054FFB2F6B2B74206D300230122BD
:100660006946002000F0B1FB0DE0E4B2D4F17A005D
:10067000F6B2062101FB160000230200D2B2694641
:10068000002000F051FB07237F220021002000F012
:10069000CBFC07B0F0BD2DE9F8430169002937D044
:1006A000417D04690068C9B210EB4110456801261C
:1006B000200000F0EBFA0700280000F0E7FAF6B29D
:1006C000D6F18001FFB2062202FB1712B2F1060832
:1006D0005FFA88F8C0B2062101FB10890023D2B26C
:1006E0002100002000F020FB00234246D2B296A158
:1006F000002000F019FB00234A46D2B22900002056
:1007000000F012FB0C2000FB0760C01DC0B200E02F
:100710000020BDE8F28300007E0000002DE9FC47C8
:1007200004002000002100F03BFE04D28848210094
:1007300000F048FE0400200000F0B0FE00F0D0FE03
:100740000100200000F0E6FE0400200000F056FF4B
:100750000022804B00F07AFF01F04AF88146200029
:1007600000F04CFF00227C4B00F070FF01F040F8DD
:100770000A2101FB00F8200000F040FF0022774B27
:1007800000F064FF01F034F8642101FB00F5200063
:1007900000F034FF0022724B00F058FF01F028F8FF
:1007A0004FF47A7101FB00F6200000F027FF0022D1
:1007B0006C4B00F04BFF01F01BF842F2107101FB93
:1007C00000F7200000F01AFF0022674B00F03EFF08
:1007D00001F00EF8654901FB00FA200000F00EFF61
:1007E00000225C4B00F032FFCDE90001484600F0EA
:1007F00077FE00F003FF02000B00DDE9000101F0CD
:100800001DF801225A4B01F0D9F801D819F101095C
:10081000200000F0F3FE00224F4B00F017FFCDE95F
:100820000001404600F05CFE00F0E8FE02000B0014
:10083000DDE9000101F002F801224D4B01F0BEF8A4
:1008400001D818F10108200000F0D8FE0022434B27
:1008500000F0FCFECDE90001280000F041FE00F0B0
:10086000CDFE02000B00DDE9000100F0E7FF0122F0
:100870003F4B01F0A3F800D86D1C200000F0BEFE35
:100880000022374B00F0E2FECDE90001300000F01D
:1008900027FE00F0B3FE02000B00DDE9000100F0CE
:1008A000CDFF0122324B01F089F800D8761C2000E0
:1008B00000F0A4FE00222B4B00F0C8FECDE90001A1
:1008C000380000F00DFE00F099FE02000B00DDE99B
:1008D000000100F0B3FF0122254B01F06FF800D8B2
:1008E0007F1C200000F08AFE00221F4B00F0AEFEAD
:1008F000CDE90001504600F0F3FD00F07FFE02005C
:100900000B00DDE9000100F099FF0122184B01F016
:1009100055F801D81AF1010AC14501D0052010E0AF
:10092000A84501D004200CE0B54201D0032008E026
:10093000BE4201D0022004E0574501D1002000E072
:100940000120BDE8F68700002F0000004055200080
:10095000000080BF006AF8400088C34000408F401C
:1009600000005940000024400000F03FA086010034
:100970000000E03F10B40721027E012007E00123C0
:1009800083401400E4B21C4200D0491E401CC0B297
:100990000828F4DB0800C0B210BC7047007E491C78
:1009A000C9B2082901DB002007E001228A400300C8
:1009B000DBB21342F3D10800C0B2704710B50C008F
:1009C000FFF7D8FFE4B2C0B294FBF0F0C0B210BDA4
:1009D00038B50400002C01D1DFF80C4700250CE0ED
:1009E0002900C9B2002000F03BF88021EDB2802040
:1009F00000FB054001F045F86D1CEDB2082DEFDB62
:100A000031BD2DE9F04706000C001D00002E01D17C
:100A1000DFF8D466101B471C0898B0EB05085FF0A0
:100A2000000915E019EB050A5146C9B22000C0B211
:100A300000F016F8FFB2390089B25FFA8AFA802016
:100A400000FB0A60E4B2201801F01BF819F101095B
:100A50005FFA88F85FFA89F9C845E3D2BDE8F08704
:100A600010B582B06A46DFF884361C6814609DF8C1
:100A7000002089188DF800109DF8021010F00F0268
:100A800051188DF802109DF80110C0B211EB101032
:100A90008DF801000321684600F0D5FF13BD002842
:100AA00001D1DFF84406002103E0002289B20A5494
:100AB000491C89B2B1F5806FF7DB704710B400288C
:100AC00001D1DFF82406002207E0C9B28023D2B2A8
:100AD00003FB012300241C54521CD2B2802AF4DBF5
:100AE00010BC7047F0B5002801D1DFF8FC05541A9E
:100AF000059AD61A00250DE05FF0000CBFB2D2B205
:100B000012EB070E0EF800C0521CE4B2D2B29442AF
:100B1000F2D26D1CF6B2EDB2AE4208D3DBB2EDB24A
:100B2000EA188027C9B207FB02170022EDE7F0BDE3
:100B30002DE9F041002801D1DFF8AC05D2B208243C
:100B400092FBF4F5069CE4B2082694FBF6F64FF00F
:100B5000FF0C5FF0010E00270DE0FFB2D2B2EDB244
:100B6000B2EBC508474505DABCEB0E0C5FFA8EFE0A
:100B70005FEA4E0E7F1CFFB2082FEEDB00225FF013
:100B8000010E00270DE0E4B2F6B2B4EBC608FFB2E6
:100B9000B84505DB1EEB02025FFA8EFE5FEA4E0EE1
:100BA0007F1CFFB2082FEEDBEDB2F6B2B54201D1E9
:100BB00092F0FF020F0011E0EDB28024FFB204FBBF
:100BC0000574EDB25FF0800EFFB20EFB057E1EF8DD
:100BD00000E09CEA0E0E04F800E07F1CDBB2FFB2DE
:100BE000BB42E9D26F1C16E0FFB28025E4B205FBE0
:100BF0000745FFB25FF0800CE4B20CFB074C1CF819
:100C000000C09CF0FF0C05F800C0641CDBB2E4B22D
:100C1000A342E9D27F1CF6B2741EFFB2BC4201DBD4
:100C20000C00F3E70F000DE0F6B28021FFB201FBEC
:100C30000671F6B28024FFB204FB0674245C5440B3
:100C40000C547F1CDBB2FFB2BB42EDD2BDE8F08199
:100C500030B4DBB28024C9B204FB0313521A00285B
:100C600001D1DFF8840400210AE09BB2C9B2CC189C
:100C7000245C94F0FF049BB2C9B2CD182C54491CDB
:100C8000D2B2C9B28A42F0D230BC7047002100E033
:100C9000491C0A5C002AFBD10800C0B27047002141
:100CA000002801D101200EE0002808D55FF0FF32B6
:100CB0005043491C03E00A2290FBF2F0491C012832
:100CC000F9DA0800C0B27047F8B504000D0000273B
:100CD0005FF03F4000260AE000F090FCDFF81024AF
:100CE000DFF8103400F0B2FC00F00AFF761CF6B218
:100CF000EDB2AE42F0D3210000F04AFF06D87F1CCF
:100D0000DFF8F403210000F05DFB0400200000F098
:100D1000C5FBFFF7C4FFC719EDB2002D00D07F1C43
:100D2000EF193800C0B2F2BDF8B505000C0016008E
:100D30001F002000FFF7AAFFFFB28021F6B201FBDF
:100D40000761002D01D1DFF8A05300221DE089B218
:100D5000D2B2062707FB0217DBB2DF19DFF89CC30C
:100D6000B6B2DBB213EB060E1EF80CC007F805C0D6
:100D70005B1CDBB2052BEADB89B2D2B2062303FB94
:100D800002135B1900265E71521CD2B2C0B28242BD
:100D90001AD2D2B2135D202B0ED10023DBB2062B68
:100DA000F2DA89B2D2B2062606FB0216DBB29E192F
:100DB000002777555B1CF1E7D2B2135D213B052676
:100DC00006FB03F60023D4E7F1BDF8B504000D00DF
:100DD00017001E002800FFF759FFFFB2012F02D0B5
:100DE000022F09D00EE0C0B206214843022190FB39
:100DF000F1F0D0F1400206E0C0B206214843D0F144
:100E0000800200E000223300DBB2D2B229002000D1
:100E1000FFF78AFFF1BDF8B504000E00DBB28020B9
:100E2000D2B200FB0325002C01D1DFF8BC42002E1A
:100E300017D500200AE0DFF8C412C0B2411891F8BB
:100E40003C10ADB2C0B242191155401CC0B20528C9
:100E5000F1DB0020ADB229194871AD1D5FF0FF3004
:100E600046433000FFF71BFF411E1CE0ADB249B204
:100E7000062606FB0156C0B28619DFF88072C0B2A2
:100E800010EB030C1CF807703755401CC0B2052846
:100E9000ECDBADB249B2062000FB01500019002383
:100EA00043711600491E49B200290BD40A2096FB53
:100EB000F0F20A2000FB12600F30052303FB00F361
:100EC0000020E3E7F1BD2DE9F04784B00C00904627
:100ED0001D00814600265FFA88F8B8F10B0F80F2FA
:100EE000A180B9F1000F01D1DFF8FC915FF03F4024
:100EF00000270AE000F082FBDFF8F421DFF8F4318C
:100F000000F0A4FB00F0FCFD7F1CFFB25FFA88F844
:100F10004745EFD3210000F03BFE06D8DFF8D801AB
:100F2000210000F04FFA04000126200000F0B6FA7C
:100F30008246002711E0DFF8C801210000F042FAE4
:100F40000400200000F0AAFA0A2190FBF1F201FB54
:100F500012006946FFB278547F1CFFB25FFA88F82E
:100F600018F101008742E6DB68465FFA88F818F856
:100F7000000005281EDB0120B8F1010101E000207E
:100F8000491E49B2002910D46A4649B28A5C8218C7
:100F90006B4649B2CA546A4649B28A5C0A2AEED103
:100FA00000226B4649B2CA54EAE7C0B2012801D117
:100FB0001AF1010A0C9CF6B2012E08D12300DBB213
:100FC0002A00D2B246A14846FFF7AEFEAD1D23006F
:100FD000DBB22A00D2B251464846FFF71CFFEDB201
:100FE0005046FFF75CFE062101FB00552300DBB2F3
:100FF0002A00D2B23BA14846FFF796FEAD1D00275E
:101000000BE02300DBB22A00D2B26846FFB2395CA3
:101010004846FFF700FFAD1D7F1CFFB25FFA88F85E
:101020004745EED3BDE8FF8770B40400DBB208206B
:1010300093FBF0F5DBB2082693FBF6F000FB1630CD
:1010400001238340002C01D1DFF89C40D2B2C9B209
:101050008A4202D20800110002000DE0EDB28020A9
:10106000C9B200FB0510EDB28026C9B206FB051619
:10107000365D1E430655491CD2B2C9B28A42EDD232
:1010800070BC704770B40400DBB2082093FBF0F52D
:10109000DBB2082693FBF6F000FB163001238340F9
:1010A000002C01D1DFF84040D2B2C9B28A4202D24C
:1010B0000800110002000DE0EDB28020C9B200FB73
:1010C0000510EDB28026C9B206FB0516365D9E43BB
:1010D0000655491CD2B2C9B28A42EDD270BC7047E3
:1010E0002D0000002E000000F4410020BC5520001F
:1010F0009A9999999999B93F000080BF7845200045
:1011000000002041F8B5040094F91500461E0025A2
:1011100000E0761E76B2002E0AD4EDB2002D07D183
:10112000206876B27101085A0004F2D40125F1E773
:101130003100C9B22000FFF741FC0700617D2000AB
:10114000FFF73CFC94F91710EDB2002D0AD07FB2E6
:1011500049B28F4206D140B249B2884202D1667587
:1011600001201AE0EDB2002D0ED07FB249B24A1E26
:10117000974209D140B249B2884205DB6675E07DED
:10118000401EE075012008E0E07D002804D0E07DED
:10119000401EE075012000E00020F2BD2DE9F8437B
:1011A0000400607D461C002500E0761C207DF6B220
:1011B00086420AD2EDB2002D07D12068F6B2710145
:1011C000085A0004F1D40125F0E73100C9B220002B
:1011D000FFF7F4FB8146617D2000FFF7EFFB07007E
:1011E00094F81780207D002806D0207D411EC9B2CA
:1011F0002000FFF7E3FB00E00020EDB2002D0DD052
:101200005FFA89F95FFA88F8C14507D1FFB25FFA42
:1012100088F8474502D1667501201FE0EDB2002D28
:1012200012D05FFA89F95FFA88F818F1010189454F
:101230000AD15FFA88F8FFB2B84505D36675E07D3C
:10124000401CE075012009E0E17DC0B2814204D27A
:10125000E07D401CE075012000E00020BDE8F28345
:1012600010B504002000FFF74DFF0028FAD110BD93
:1012700070B582B0040094F915502900C9B220005D
:10128000FFF79CFB40B2E17D00B209B2884224D155
:1012900020686DB210EB4510816920686DB210EBCB
:1012A0004510C069009020686DB210EB45100669CA
:1012B00094F91600002800D4A5750800002805D070
:1012C00068468847002801D0200007E0002E02D0A1
:1012D0007460300002E0200000E0200076BD10B510
:1012E00004006068002818D094F9160010F1010F6E
:1012F00003D12000FFF7B4FF0DE094F9160010F1C0
:10130000020F08D0A07D6075A07D0100C9B2200049
:10131000FFF754FBE075606800E0200010BD00E0BE
:10132000406841680029FBD17047F0B40168446807
:101330008368091801EB5402E40748BF4B440C30A2
:1013400091422BD011F8014B14F0030504BF11F8A2
:10135000015BED1C26090F2E07D111F8016B0F362A
:1013600003E011F8017B03F8017B6D1EF9D1002E1B
:10137000E6D0A40811F8015B04F00304032C08BFB5
:1013800011F8014B05EB04241C1BB51CD8D014F834
:10139000016B03F8016B6D1EF9D1D1E7F0BC70470A
:1013A0004FF0807C1CEB400F94BF1CEB410F05E01D
:1013B00040EA010C5FEA4C0C01D28842704718BF2A
:1013C00081427047FF2212EAD05C1DBF12EAD1535E
:1013D000944593422BE09C44D30780EA01021A40D3
:1013E00043EA002043EA0121A1FB0030410038BF5D
:1013F00040007CF17F010BDBFE294ADA5B0842EA00
:10140000C15153EA006373F1004C51EB1020704757
:10141000D1F1080CDCF120012FDB5B0810FA01F19F
:101420000B4373F1004120FA0CF050417047944592
:101430001CBF02EAD153934280EA010202F000424B
:101440001DD0400019D0490017D05BB9634514D0B6
:101450000902B1FA81F39940BCEB030CC00140F0E2
:101460000040C1E70002B0FA80FC10FA0CF0B3EBC8
:101470000C0CC90141F00041B6E710007047400074
:101480000AD0490008D010F1807F94BF11F1807F0D
:1014900002E042F0FF407047D04370474100090E20
:1014A0007F3915D4D1F11F0114D4400007D2C001F7
:1014B00040F00040C84048BF6FF000407047C00196
:1014C00040F00040C8404CBF4FF0004040427047E1
:1014D0000020704700424FF0004058BFC0437047A3
:1014E000002840F10980F446404200F005F850F031
:1014F00000406047002800BF0AD0B0FA80F1884061
:10150000D1F19D01C905020672F1004241EB1020A4
:101510007047310090EA010F44BF81F0004100F0B4
:1015200049BB00BF431A4FF000423EBF5340C01AB0
:10153000C91800BFD3095FEAD05C13EB400F34BF7A
:10154000B3EB410F40E07CEBD1530CD342EA0121D5
:1015500022D8D1EB402009D3400A28BF5FEA5001CE
:1015600040EBCC507047401A15D04002B0FA80F2E0
:10157000521C9040400A4FEA3C23B3EB026384BF05
:1015800000EB730007E040F400001A16DB07C2F11D
:101590000102D04018437047182BFCDC31FA03F2EB
:1015A00002FA03F3591A38BF42F00102D2EB40208D
:1015B0003CBF4000ACF1010C5FEACC5CC20572F1AB
:1015C00000414CEB5020704713EB400F0FD24B0003
:1015D00009D0ACEBD153022B03DB4902172BDDDD25
:1015E00070479143401A4300D5D10020704713EB58
:1015F000410FD0D36FF00000704732005FF0FF0C56
:101600001CEAD05114BF614506E0C110400721F02B
:10161000E04101F16051704779B900F000410002EA
:101620000AD0B0FA80FC00FA0CF001F16051A1EB95
:101630000C5101EBD0214005704741020CBF40F432
:10164000E0016FF00001002070473300B0B581EA7F
:10165000030C0CF0004C40F2FF7515EA11541DBF4D
:1016600015EA1357AC42AF4239E0E41923EA455377
:1016700043F48013C90241F0004141EA505EC702C1
:101680001100A7FB020200284FF00000EEFB012032
:101690004FF00001E3FB072118BF42F001024018A0
:1016A00000214941E3FB0E01A4F580640F0302D23F
:1016B00052004041494154F101046CDD470872F188
:1016C000004250F1000051EB0451A1F580115CBFC4
:1016D00041EA0C01B0BD4CEA05510020B0BD05EA5D
:1016E0001357AC4214BFAF4241E050EA410E1CBF59
:1016F00052EA430E02E061460020B0BD24423C4461
:101700001BD15FEA070EF6D0090302BF0146002095
:10171000AEF1140EB1FA81F7AEEB070401FA07FE41
:101720000C37C7F1200100FA07F7C8404EEA000E57
:1017300023EA455343F48013A2E733F00043B3FA9E
:1017400083F704BFB2FA82FE77440B3FE41BB7F184
:10175000200E2FBF02FA0EF3BB40C7F1200E22FA73
:101760000EFE38BF43EA0E03BA40641C82E750EA1B
:10177000410E14BF52EA430E6FF000014FF4001700
:1017800017EB430F8ABF194617EB410FB5E74CEA39
:1017900005510020B0BDD4F10104B4F120070FDAE7
:1017A000C4F12007520828BF42F0010210FA07F5E1
:1017B00001FA07F7E1BF2A43E0403843E1400FE078
:1017C000352C98DCC7F1200452EA400220FA07F2D7
:1017D00018BF42F0010231FA07F0A1400A4300218C
:1017E00072F1004250F1000051EB0C01B0BD340029
:1017F000F446400D40EAC120490006D200F00EF840
:10180000004248BF6FF00040604700F007F84FF01B
:10181000004188428CBF08464042604740F000408B
:10182000490DA1F58061491C05D4D1F11F0154BFB8
:10183000C840C01770474FF000007047F0B44FF039
:10184000004591EA030F44BF6B4000F0EDB900BFC3
:10185000841A71EB030604D26E40001BB1411219C9
:1018600073414FF4001C1CEB410F34BF7CEB43066B
:1018700084E00C0DA4EB1356362E7DDC012E43DCE8
:1018800045EAC32343EA525312BFD20292025B08D5
:10189000240545EAC12141EA5051D2EBC0209941CB
:1018A00025D407D1B0FA80F610FA06F164D00020F2
:1018B000203608E0B1FA81F6B140C6F1200220FAE4
:1018C00002F21143B0404FEAF474B4EB465434F0E2
:1018D00001064FEA74040AD8D6F50016760D04F016
:1018E0000044F04061FA06F25040F1404840C00A1E
:1018F00040EA415021F0004128BF5FEA500550F115
:10190000000044EBD12137E045EAC323DB0A45EA76
:10191000C121C90AB6F120050EDD42EA0242120CCD
:10192000C5F1200603FA06F6EB4042EA06056D42D1
:10193000984161F100010DE062FA06F5F240554070
:1019400063FA06FC82EA0C02F3405A406D42904171
:1019500061EB030111F4801F05D1641E620502D002
:101960006D004041494121F48011430875F1004365
:1019700050F1000041EB0451F0BC70471CEB410FEB
:1019800015D223F0004352EA43060BD04FEA4C0C29
:10199000BCEB410F04D80C0D661E342EB7DDEBE70F
:1019A000801A994150EA410608BF0021E4E708BFC8
:1019B0001CEB430F28BF6FF00001DDE74FF4001C64
:1019C0001CEB410F94BF1CEB430F09E041EA030CF1
:1019D00050EA4C0C52EA0C0C03D28B4208BF8242F4
:1019E000704714BF994290427047350010B500F01F
:1019F0006BFA24242100C9B23E4800F043FB2200C8
:101A0000D2B22100C9B23B4800F027FB0821394877
:101A100000F038FB00220821364800F01EFB00F0E1
:101A200091FB0A21B0FBF1F00321B0FBF1F000F0D3
:101A3000D9FB082208212F4800F00FFB11212E4866
:101A400000F001F810BD38B504000D002B4800F07F
:101A500038FC0028FAD100222021264800F0FDFAA7
:101A600000220421234800F0F8FAEDB2290089B2DF
:101A7000200000F023F8202220211E4800F0EDFA7B
:101A800031BD38B504000D001C4800F01AFC0028D8
:101A9000FAD100222021174800F0DFFA04220421A5
:101AA000144800F0DAFA290089B2200000F006F8A4
:101AB000202220210F4800F0D0FA31BD38B50400B3
:101AC0000D0004E021780D4800F0EDFB641C2800B7
:101AD000451E80B20028F5D1084800F0F2FB00282E
:101AE000FAD16946054800F0E3FB0028F9D131BD81
:101AF0000000000000A00D40705120000080004058
:101B00004FEAF17CBCF1E04C2CBFBCF5001F11E0AA
:101B10005FEA4C0C34BFBCF17F5F2EE05FEA9C0CA7
:101B20004FEA0C1C4FEA3C0CC10071F100414CEB38
:101B300050707047C90241EA5051C00218BF41F0CD
:101B4000010141F000414FEA6C50C0F10900212829
:101B500010D240EACC7CCCF1200C11FA0CF070F1E0
:101B60000040CCF1200C21FA0CF00CF0004C40EBC2
:101B70000C0070474FEACC707047490011F5001F08
:101B800004D84FEACC10FF30C0057047C817704723
:101B90004FF0807C1CEB400F94BF1CEB410F05E025
:101BA00040EA010C5FEA4C0C01D28142704718BF39
:101BB00088427047421A3CBF801A89184FF0004C87
:101BC000C0F3C752FF2A24D0C1F3C75313B3D21AAC
:101BD000D2F1190327DD4CEA01214CFA03F321EA83
:101BE0000303D140C20D4CEA0020401834BF20EA64
:101BF0000C004CEA5000D20553EA006373EB0C0C66
:101C000052EB1020420012F1807F38BF7047C00DA8
:101C1000C0057047490212BF9A4200EB5120F8E715
:101C2000D2F11703D9D57047841A71EB030603D29A
:101C3000001BB141121973414FF4001C1CEB410F02
:101C400034BF7CEB430443E00C0DA4EB1356352E5C
:101C500050DC45EAC323DB0A45EAC121C912B6F1CB
:101C600020050DDD63FA05F6EB4086EA0305124216
:101C700018BF45F00105C01851F100010CD213E066
:101C800062FA06F5F2405540F3415A40B340F34042
:101C90005A408018594107D349085FEA30005FEA8B
:101CA000350528BF45F0010501F58011420875F1A1
:101CB000004250F1000041EB0451F0BC4FF4001C15
:101CC0001CEB410F38BF70470020090D0905704714
:101CD0001CEB410F10D252EA43060BD0BCEB410F74
:101CE00005D80C0DAB43661E342EB5DD02E0AB43C8
:101CF00080185941F0BC7047F0BC704738B50400FB
:101D000000F0F2FA05007648844212D07548844209
:101D100011D07548844210D0744884420FD0744862
:101D200084420ED0734884420DD0734884420CD054
:101D30000DE007240CE006240AE0052408E0042452
:101D400006E0032404E0022402E0012400E0002471
:101D500022000021002000F0BDF9200000F015FA5B
:101D60000F21664800F08EF900220F21634800F031
:101D700074F9F021614800F075F90422F0215F4800
:101D800000F05BFC08215E4800F06CF90422082199
:101D90005B4800F052FC10215A4800F073F9002211
:101DA0001021584800F059F92021564800F06AF9EE
:101DB00020222021534800F050F90121524800F020
:101DC00061F901220121504800F047F910214E48E5
:101DD00000F058F9002210214B4800F03EF9202174
:101DE000494800F04FF920222021474800F035F9FA
:101DF0008021434800F046F900228021404800F04D
:101E00002CF903213E4800F02DF9042203213C481F
:101E100000F013FC01213B4800F024F904220121C9
:101E2000384800F00AFC0821374800F01BF904226A
:101E30000821354800F001FCEDB2002D01D100F081
:101E400049FA31BD10B582B004004FF4807000F043
:101E5000CDF92E4800F022FA01212C4800F036FA84
:101E600004220421264800F017FB032210212448F5
:101E700000F012FB264A2021214800F047FB3421C4
:101E80001F4800F00FF9200000F00AF81F4800F08A
:101E900000FA69461D4800F00BFA0028F9D113BD7D
:101EA0001CB50400194800F0F9F900F077F9082191
:101EB00001910094002303220100144800F0C2F9AC
:101EC000124800F0E6F913BD80B512480078401CB6
:101ED00010490870102210210A4800F0BEF801BD18
:101EE00090D0030020A1070040420F0080841E0014
:101EF00000093D0000127A000024F40000B00D40FB
:101F000000900D4000A00D4000C00D40008000403A
:101F100010410D4080480020DFF8A81188420CD005
:101F2000DFF8A41188420AD0DFF8A011884208D057
:101F3000DFF89C11884206D007E01020704711207E
:101F4000FCE71220FAE71320F8E70020F6E710B4C8
:101F5000D30705D510F580631B68C9B20B4304E0B5
:101F600010F580631B68C9B28B4310F58064236051
:101F7000920705D510F584621268C9B2114305E0D5
:101F800010F584621268C9B232EA010110F584606A
:101F9000016010BC704710B4D30705D510F58163FC
:101FA0001B68C9B20B4304E010F581631B68C9B21A
:101FB0008B4310F581642360930704D5D0F8043473
:101FC000C9B20B4303E0D0F80434C9B28B43C0F864
:101FD0000434520704D5D0F80C24C9B2114304E0EC
:101FE000D0F80C24C9B232EA0101C0F80C1410BCBC
:101FF000704710F582621268C9B2114310F5826011
:102000000160704710F582621268C9B232EA0101BC
:1020100010F5826001607047C9B2002903D010F545
:102020008360006801E0D0F814047047C9B2C0F8BA
:102030001C14704738B504000D002000FFF76CFF3A
:1020400004002900200000F059F9200000F08BF96D
:1020500031BDC9B250F821007047D2B2C9B240F8C0
:102060002120704738B504000D0000222900C9B2B4
:102070002000FFF76CFF00222900C9B2200000F009
:10208000DCFA31BD38B504000D0001222900C9B2C7
:102090002000FFF75CFF00222900C9B2200000F0F9
:1020A000CCFA31BD38B504000D0002222900C9B2B6
:1020B0002000FFF74CFF00222900C9B2200000F0E9
:1020C000BCFA31BD00900D4000A00D4000B00D40A5
:1020D00000C00D4038B5C9B2002907D1DFF834314E
:1020E0001B6853F40013DFF82C412360DFF8243120
:1020F0001B68DFF824412340C0B2002801D153F00F
:102100008073C9B2002902D05FF4803400E000245B
:1021100023431343DFF8FC000360DFF8000100688D
:10212000002506E0102000F05DF8DFF8F000006800
:102130006D1C10F48030844203D04FF6FF7085424E
:10214000F0D331BD3548006810F0070100200029A8
:102150000BD002290DD00AD304290ED00BD30629A7
:102160000FD00CD307290ED00EE02D480CE02D48DF
:102170000AE02D4808E02D4806E02D4804E02D48EF
:1021800002E02D4800E02D4870472249096831F4EB
:10219000E06151EA00211F48016070471F48006854
:1021A000C0F30221002000290BD002290DD00AD350
:1021B00004290ED00BD306290FD00CD307290ED03B
:1021C0000EE017480CE017480AE0174808E01748E7
:1021D00006E0174804E0174802E0174800E01748F7
:1021E000704700000138FDD1704770471449C0F3B3
:1021F000032251F82210124AC0F3032352F823207D
:102200001268012310F00F0013FA00F01043086069
:102210007047000000200D40F8FFFEFE04200D4036
:102220000048E8010024F40000127A0000093D0093
:1022300080841E0040420F0020A1070090D00300C0
:102240001C51200010B4022B01D1082400E000240E
:10225000002B01D1002300E004231C434460019BB8
:10226000B1FBF3F100239B1CB1FBF3F4641EFF2CC4
:10227000F9D8036112F00301890112F0300251EA2A
:1022800004211143029A521E52EA0104046010BC58
:102290007047416851F0020141607047416831F078
:1022A000020141607047C2689207FCD581607047A7
:1022B000C268520703D580680860012000E0002052
:1022C0007047C068000910F001007047C0F8C81FCF
:1022D0007047360080B500F001FA002801D00120D7
:1022E00000E00020C0B202BD80B500F0F3F9002884
:1022F00001D0012000E00020C0B202BD30B45D4A30
:1023000012685D4B9A420ED05A4A1368002205E0CB
:1023100053F82240584D45F82240521C402AF7D32A
:10232000554A544B1A60544A42F8201030BC70474A
:1023300010B4524A830852F823201268FF2310F089
:102340000304E4B2E400A3409A43C9B210F00303CB
:10235000DBB2DB0099400A434849800851F820006D
:10236000026010BC7047042806D14548006850F44C
:1023700080304349086028E0052806D140480068BD
:1023800050F400303E4908601FE0062806D13C4862
:10239000006850F480203A49086016E00F2806D102
:1023A0003848006850F00200364908600DE01028F7
:1023B0000BD301210200103A12F01F029140324A61
:1023C0001038400952F8200001607047042806D1F7
:1023D0002B48006830F480302949086028E005283F
:1023E00006D12748006830F40030254908601FE016
:1023F000062806D12248006830F480202049086071
:1024000016E00F2806D11F48006830F002001D4971
:1024100008600DE010280BD301210200103A12F0E1
:102420001F029140194A1038400952F820000160FB
:1024300070470E2806D11648006850F00060144915
:10244000086016E00F2806D11148006850F00070AF
:102450000F4908600DE010280BD301210200103A4B
:1024600012F01F0291400B4A1038400952F8200028
:102470000160704708ED00E000400020804C200023
:1024800024ED00E010E000E034512000485120002D
:1024900004ED00E05C51200030B4DFF8003200248D
:1024A00003E0DFF8F8311A60641C082C2CD2C9B2A2
:1024B0000B00234113F00103002BF5D00300DFF8DC
:1024C000E051AB420CD0DFF8DC51AB420DD0DFF86D
:1024D000D851AB420ED0DFF8D451AB420FD0E0E779
:1024E000DFF8CC3153F82430DDE7DFF8C83153F89A
:1024F0002430D8E7DFF8C03153F82430D3E7DFF8D1
:10250000BC3153F82430CEE730BC704710B4002300
:10251000634CA04209D0634CA04227D0624CA04239
:1025200045D0624CA04263D083E0C9B2012900D1FA
:102530000023C9B2022900D10123C9B2042900D164
:102540000223C9B2082900D10323C9B2102900D13E
:102550000423C9B2202900D10523C9B2402900D1E2
:102560000623C9B2802900D1072363E0C9B201293B
:1025700000D10823C9B2022900D10923C9B2042914
:1025800000D10A23C9B2082900D10B23C9B21029EE
:1025900000D10C23C9B2202900D10D23C9B2402992
:1025A00000D10E23C9B2802900D10F2342E0C9B265
:1025B000012900D11023C9B2022900D11123C9B2C7
:1025C000042900D11223C9B2082900D11323C9B2AA
:1025D000102900D11423C9B2202900D11523C9B272
:1025E000402900D11623C9B2802900D1172321E048
:1025F000C9B2012900D11823C9B2022900D1192377
:10260000C9B2042900D11A23C9B2082900D11B2359
:10261000C9B2102900D11C23C9B2202900D11D2321
:10262000C9B2402900D11E23C9B2802900D11F237D
:1026300000E00023136010BC704730B4174B002437
:1026400002E01F4B1A60641C082C24D2C9B20B0094
:10265000234113F00103002BF5D00300104DAB42D2
:1026600009D0104DAB420AD00F4DAB420BD00F4DED
:10267000AB420CD0E5E7134B53F82430E2E7124BA2
:1026800053F82430DEE7114B53F82430DAE7104BCF
:1026900053F82430D6E730BC7047000000400D40AE
:1026A00000900D4000A00D4000B00D4000C00D4056
:1026B00084502000A4502000C4502000E45020008A
:1026C00080400D4004502000245020004450200041
:1026D00064502000EFF3108072B67047EFF3108063
:1026E00062B6704710B582B00020DFF8DC46DFF834
:1026F000DC06FFF703FB012000F0A6FBF82000F04A
:1027000090FCDFF8CC06FFF79DFBFFF76FF9002088
:10271000DFF8C01608700020DFF8B81648701A20DD
:10272000DFF8B01688700020DFF8A816C870DFF850
:10273000A806DFF8A01648601420DFF89816886015
:102740002A20DFF89016087300F04DFD42F20700D2
:10275000DFF8881648800020DFF88016487100F006
:1027600013FA00F044FC0028FBD02000FDF7C8FC61
:10277000F82000F0B6FB2821084204D02000FEF724
:1027800077FD040011E0C10604D52000FEF7A7FD87
:1027900004000AE0410603D52000FEF7B3FC04E084
:1027A000000602D52000FEF7F9FC002000900098FA
:1027B0004CF250318842D8D20098401C0090F6E785
:1027C000F8B5002400F0F9F942F23850DFF80C16A1
:1027D0000880DFF800068078DFF800160871DFF85F
:1027E000FC0500F0B1FD01281ED107200090012357
:1027F0007F2200210020FEF775F903230122DFF874
:10280000E0150020FEF790FA04230122DFF8D4152A
:102810000020FEF789FA0420009003237F22002184
:102820000020FEF7EEF8FEE700F045FE0020DFF89E
:10283000A41508700020DFF89C154870DFF8940597
:10284000C07800F0B1FE0020DFF89C150860002081
:1028500005E0DFF89415C0B241180871401CC0B201
:102860005828F6D3DFF86C05806800F07FF948E05F
:102870005C22DFF874154BF6EF6000F090FDDFF896
:1028800068050068401CDFF860150860641C0320C0
:10289000DFF840154870012001F004F80320009093
:1028A00002237F2256210020FEF71CF902235C221E
:1028B00021000020FEF7AFFA032000905C230222E3
:1028C00015001E002000FEF715FE0700DFF80405C6
:1028D0004068FEF70FFE0100380000F0F7FFDFF858
:1028E0000C15FEF76FFD010033002A000020FEF7F3
:1028F000EAFA0320009002237F2256210020FEF7EF
:1029000080F800F074FB0721084209D1DFF8C40405
:1029100040780128F5D1DFF8BC0440688442A7D391
:1029200000F0DFF90020F2BD70B596B002A81021CA
:1029300001F04AF806A8402101F046F8002400F012
:1029400083F94BF6EF60DFF894140880DFF8840415
:102950008078DFF888140871DFF8800400F0F4FC58
:1029600001281ED10720009001237F220021002092
:10297000FEF7B8F803230122DFF864140020FEF705
:10298000D3F904230122DFF85C140020FEF7CCF910
:102990000420009003237F2200210020FEF731F85D
:1029A000FEE7DFF83004007B2A2804D0DFF8240497
:1029B000007B00F058FE0120DFF818140870022098
:1029C000DFF810144870102000F0D0F800F06CFD13
:1029D00059E0DFF81C040068401C029000200390BE
:1029E000002004900398401C0390082000F079FA1E
:1029F000000703D50120039000200490049864216F
:102A00004843FEF777FD0600039804990818FEF77F
:102A100071FD0100300000F059FF06003000FEF7A4
:102A20003DFDDFF8D01308700320DFF8A8134870CD
:102A30000520009002237F225C210020FEF752F83F
:102A4000022000905C23022231000020FEF73BFAB6
:102A500003235C2203990020FEF7DDF904235C22A6
:102A600004990020FEF7D7F905235C222DB2290036
:102A70000020FEF7D0F90520009002237F225C2180
:102A80000020FDF7BEFF00F0DBFC002809D1F0209C
:102A900000F027FAC006F6D500F023F9002016B0A2
:102AA00070BD01AA6721DFF8480300F0CCFC0028C4
:102AB000E9D0BDF8140006A9E4B231F81410401AA8
:102AC000ADF81400BDF8040006A9E4B221F8140022
:102AD000BDF81400BDF804100818ADF81400641C0B
:102AE000E4B2202C00D10024BDF91400202190FB79
:102AF000F1F50298BE490968884203D10298401C4A
:102B000002906FE70298BA4909688842BFF461AF42
:102B10000498B749096808180299401A0490B44803
:102B20000068401C02905DE780B5AA480078012843
:102B300018D1A848407803280DD10220A549487033
:102B40000020AD490870AC480078401CAA490870C4
:102B500000F0E0F809E0A84800780828F3D100F078
:102B600023F902E001209B49487001BD80B54FF474
:102B70000041B1FBF0F080B200F02AFF9F4800F066
:102B800036FF00F048FF01BD80B59D48FDF720FFEE
:102B900006233C229B490020FEF7C6F807233C226F
:102BA00099490020FEF7C0F80720009006237F22F5
:102BB0003C210020FDF725FF01BD80B50020FDF779
:102BC0006EFF0123022291490020FEF7ADF8012398
:102BD0005C22804881780020FEF71DF90223022242
:102BE0008B490020FEF7A0F8032302228949002028
:102BF000FEF79AF80623022287490020FEF794F890
:102C00000723022285490020FEF78EF83F2000901E
:102C10007F232F2200210020FDF78AFF0023282296
:102C20007F490020FEF780F800236D2265A1002077
:102C3000FEF77AF807237F2200210020FEF7F4F93F
:102C40000020FDF7C5FE01BD80B50020FDF727FF80
:102C5000012302226D490020FEF766F801235C2261
:102C60005C4881780020FEF7D6F8022302226D49E5
:102C70000020FEF759F8032302226B490020FEF7DB
:102C800053F80423022269490020FEF74DF805237A
:102C9000022267490020FEF747F807230222654910
:102CA0000020FEF741F83F2000907F2337220021CB
:102CB0000020FDF73DFF0023282259490020FEF7A0
:102CC00033F800236D223FA10020FEF72DF80723E3
:102CD0007F2200210020FEF7A7F90020FDF778FEF3
:102CE00001BD80B500F09FFE00F0E5FB0F2000F075
:102CF000D1FD3848007B2A2805D000204E490860C5
:102D000000204E490860F82000F0EBF80020FDF7A5
:102D1000C6FE01BD80B52F48007B2A2840D1484817
:102D2000007834490978884201D000F03DF83148F4
:102D30000078002807D14348007804281EDB0020D3
:102D4000404908701AE02B480078052807DA3D480A
:102D50000078032812DB00203A4908700EE025486D
:102D600000780A2807DA37480078022806DB0020B6
:102D70003449087002E000203249087001203149CE
:102D800091F900108840C0B200F08CFD2D48007809
:102D9000401C2C490870174800782949087002E047
:102DA000032000F07FFD01BD80B50020254908709B
:102DB0000F200849097B2A2900D00320C0B200F067
:102DC00069FD01BD312F3100104100200048E801AC
:102DD00000127A003448002040420F004C48002086
:102DE00004512000C8542000E84600200000C842DA
:102DF0004447002082480020F1410020292B200078
:102E0000583F2000D4542000E05420007853200084
:102E100084512000985120008853200098532000AE
:102E2000EC542000AC512000C0512000D4512000AF
:102E3000A8532000E85120001C0001442000014458
:102E4000844800208348002080B5C0B2DFF86813B2
:102E50000860F021DFF86403FFF704F90422F02191
:102E6000DFF85803FFF7E9FB0821DFF85403FFF709
:102E7000F9F804220821DFF84803FFF7DEFBF02110
:102E8000DFF83803FFF7BEF80821DFF83403FFF757
:102E9000B9F8DFF824030068012821D10FF2A51248
:102EA000F021DFF8180300F0D7FD0FF231220821DE
:102EB000DFF80C0300F0D0FD0422F021DFF8FC0263
:102EC000FFF769F804220821DFF8F402FFF763F83E
:102ED000DFF8F002006830F00800DFF8E812086060
:102EE00001BD38B50400DFF8D0020068012815D113
:102EF0000025FFF7F9F9DFF8D0120D68DFF8C812E6
:102F00000968E4B2A143DFF8C0221160C0B2002812
:102F100001D1FFF7DFF92800C0B267E0F021DFF848
:102F20009C02FFF796F8C4430821DFF89402FFF7EC
:102F300090F8C043E10610D5002408E01021DFF826
:102F40007C02FFF786F8002800D10024641CA4B29C
:102F5000B4F5FA7FF2DB102048E0A1060FD500247B
:102F600007E020219548FFF774F8002800D10024DD
:102F7000641CA4B2B4F5FA7FF3DB202036E06106CE
:102F80000FD5002407E040218C48FFF762F80028A5
:102F900000D10024641CA4B2B4F5FA7FF3DB402016
:102FA00024E021060FD5002407E080218348FFF7A5
:102FB00050F8002800D10024641CA4B2B4F5FA7FB4
:102FC000F3DB802012E000070FD5002407E0082182
:102FD0007B48FFF73EF8002800D10024641CA4B20F
:102FE000B4F5FA7FF3DB082000E0002032BD80B5A5
:102FF000F820FFF776FFC10601D5032010E0810617
:1030000001D504200CE0410601D5012008E00106AD
:1030100001D5022004E0000701D5072000E00020D0
:1030200002BD10B5040064480068012809D114F0FD
:10303000F0016248FEF7DDFF14F008016048FEF77A
:10304000D8FF10BD10B500F0B0F801215B48FEF7C5
:10305000E3FF10F0F004FFF747F95B4909682143EB
:10306000594A11605A4909682143594A1160C0B24E
:10307000002801D1FFF72EF95548006810F0F00143
:103080004E48FEF7BFFFE00606D5504840680028CE
:1030900002D04E4840688047A00606D54B4880685D
:1030A000002802D0494880688047600606D5474816
:1030B000C068002802D04548C0688047200606D571
:1030C00042480069002802D04048006980470FF25A
:1030D000710000F07FF800F056F810BD10B500F058
:1030E00064F801213648FEF797FF10F00804FFF757
:1030F000FBF8354909682143334A116034490968AE
:103100002143334A1160C0B2002801D1FFF7E2F831
:103110002F48006810F008012948FEF773FF2007C8
:1031200006D52A480068002802D028480068804751
:103130000FF20D0000F04EF800F025F810BD000071
:1031400080B500F032F82248006810F0F0011B480A
:10315000FEF76CFF1E48006810F008011848FEF7E3
:1031600065FF1B48006810F0F0011448FEF741FFAE
:103170001748006810F008011148FEF73AFF0020D8
:103180001349086001BD80B500F00FF80D480068D4
:103190008008800050F001000A4908600948006872
:1031A00050F00C000749086001BD0648006830F087
:1031B00008000449086070476048002000B00D40D6
:1031C00000900D4000500D4058480020204800203D
:1031D0005C48002080B501002220FFF78FF82220F4
:1031E000FFF7C1F801BD80B5FFF774F801BD80B5E8
:1031F000FFF77AF801BD37000B320270B14A12684E
:103200005279002A02D048F6610201E048F64102F4
:10321000427092B2120A8270AB4A1278C270A94A06
:10322000126852888280C180A64909680988018194
:103230000A20704770B50C0015002A00D2B20100B8
:1032400089B2A248FFF7D8FF002107E0C9B20A5DA2
:103250009E4BC0B2C9B20E18F254491CC9B2EDB2AD
:10326000A942F3D32818C0B270BD10B5984C00F035
:1032700061FAFFF7B8FF0121200000F034FA20784E
:1032800010F07F002070207805281AD1217891480D
:1032900000F029FA6078800603D501208E49087372
:1032A00002E000208C4908738C484078000646D51F
:1032B000E07885490978884241D1012082494870E7
:1032C0003DE094F900000B388349887121788148EA
:1032D00000F009FA6078800603D501207E49087362
:1032E00002E000207C49087320897B4948807C48A3
:1032F0007949886078488068774991F906100818FC
:1033000090F90010744A51734078000611D5724844
:103310000078E17888420CD0607810F0DF00412816
:1033200003D101206C49887306E000206A49887344
:1033300002E0002068498873E07867490870FFF769
:1033400056FF00F002FA10BD10B5040000F0CEF8F0
:10335000012801D1012021E0FFF749FF594804600D
:1033600000205D4988600120574988700020564937
:10337000486054480068007900F0FBF85148006844
:10338000008800F0FDF84F480068408800F002F91E
:10339000544800F0E5F9FFF726FF002010BD70B596
:1033A00004000D00160048488078002801D100F084
:1033B000B3F9F6B2672E00DB672600F0E2F900F001
:1033C000B9F93200D2B22900200080B2FFF732FFF3
:1033D0000100C9B23D4800F06FF900F0B6F900F005
:1033E0008CF9002800D00124364800684079002874
:1033F00014D0002034494870FEF7A4FE3A49B0FBCF
:10340000F1F04FF448714843FEF7ECFE2E48407847
:10341000002801D0002402E0012400E000242A4812
:103420008078002801D100F07EF9E4B2002C04D1AC
:1034300025480078401C244908702000C0B270BDA7
:103440002548807B704770B504000E001500FFF71B
:10345000CEFE214890F906003100C9B200B209B28F
:10346000884202DA1C488679FFE7002006E01A4904
:103470008968C0B2415C2170641C401CC0B2F6B2C5
:10348000B042F4D3002D07D000F070F8124991F942
:103490000D10C0B2081A288000200F498873FFF76A
:1034A000A2FE3000C0B270BD80B501200649887010
:1034B00000F032F901BD80B500200349887000F0AA
:1034C00032F901BD544800204448002074460020D1
:1034D000F4450020F545002000410020F84500207B
:1034E000FE4500206B32200040420F0080B50120D5
:1034F000DFF820130860DFF82003006850F0600058
:10350000DFF8141308600D20DFF810130860152091
:10351000DFF80C1308605A20DFF808130860092050
:10352000DFF8041308600B20042108600020DFF896
:10353000FC1208600820DFF8F81208600120DFF8AC
:10354000F4120860DFF8F0020078002801D000F0E3
:103550001EF900212A20FEF7EBFE0FF275212A202A
:10356000FEF7CCFE00F0F1F8002002BDB348007871
:103570007047C0B2052148432C38B14908607047F4
:1035800080B2C1B2AF4A116080B2000A80B2AE49C7
:103590000860704780B2C1B2AC4A116080B2000AC4
:1035A00080B2AB4908607047A349097800291FD150
:1035B000C0B2002812D003280ED0072806D08328D6
:1035C0000ED089280ED08F280ED00FE0FF20C0B279
:1035D000A049086000207047D520F8E7B620F6E73C
:1035E000A120F4E77220F2E74220F0E70120F2E7A1
:1035F00091490978012906D1C0B2142801D00120CF
:10360000E9E7E520E3E78C49097802291ED1C0B239
:10361000002817D0042813D007280FD00D280BD06E
:10362000102807D0142803D016280DD1FF20CEE78C
:10363000C520CCE79120CAE77220C8E74220C6E740
:103640002420C4E70020C2E70120C4E70120C2E72C
:10365000C0B201000029022903D877490870002070
:1036600000E001207047C0B2002812D100207A4942
:10367000086071480078022803D151206F49087012
:1036800019E06D480078012815D145206B49087074
:1036900011E004207049086067480078022803D1CF
:1036A00055206649087006E063480078012802D179
:1036B0004F2062490870704710B4EE22674B1A60C1
:1036C000674A126832F00202654B1A60002204E079
:1036D000D2B2135C634C2360521CD2B2C9B28A428C
:1036E000F6D310BC704704E05E4A12680270401CBA
:1036F000491EC9B20029F7D17047E920574908602F
:10370000574800688007FBD55548006830F0020034
:103710005349086000207047ED2050490860E320BD
:103720004E4908607047EF204C490860ED204B4936
:103730000860704780B54C48006830F040004A4946
:1037400008602A20FEF742FE01BD80B546480068A9
:1037500050F04000444908602A20FEF704FE01BDF5
:1037600010B50400FEF7C0FD10F0010090F001005C
:10377000C0B23E490C6080B2002801D0FEF7AAFD1D
:1037800010BD3B48006810F0220FFAD1704780B599
:103790003848006850F00400364908603648006830
:1037A00010F004003449086000203449086001200A
:1037B000FFF759FF11203249086080203149086025
:1037C00010203149086081203049086001BD0000A7
:1037D00010B5FEF789FD10F0010090F00104E4B28D
:1037E0002B48006840060FD520480068002802D00A
:1037F0001E48006880472A20FEF71BFE2448006808
:1038000030F0400022490860A4B2002C01D0FEF73D
:1038100061FD10BDA8200D402486084000860840A8
:10382000C8860840B0860840E887084028860840D7
:10383000E4860840B886084081480020F041002016
:103840003C860840D0850840D4850840C88508409B
:10385000CC8508404086084010C00D40388808409C
:1038600030880840288808408C860840644800203A
:103870004C86084000C40D4020C40D40E8400D4077
:10388000AC8708401C000144B08708402000014478
:103890003488084080B500220100C9B20A48FEF70A
:1038A000DCFB01BD10B504002100C9B20648FEF7DB
:1038B000D0FBE4B234EA00000200D2B22100C9B267
:1038C0000148FEF7CAFB10BD00B00D4010B5FF2344
:1038D00013EAD0541DBF13EAD1529C429A4239E0F8
:1038E000A41ADA0780EA0103134042EA012142EAFE
:1038F0000020421A3CBF641E01EB4202090AB2FBDF
:10390000F1FE01FB1E221202B2FBF1F001FB1022BC
:103910006EF30F201202B2FBF1FE4EEA00207F345C
:1039200006DDFE2C24DA53EA500050EBC45010BDE3
:10393000D4F1020401FB1E2240F08071192C1DDC21
:1039400021FA04F0C4F12004A140114371F10042B6
:10395000584110BD9C421ABF03EAD1529A420FE06F
:1039600080EA010E0EF00043400004D0490016D159
:1039700043F0FF4010BD490008BFD343180010BDFD
:103980009C4205D1D21AF7D001F00041484010BD49
:103990004A0212BF0846484000F0004010BD4AB934
:1039A0000902B1FA81F2914044B1A418C00140F07B
:1039B00000409EE7C90141F0004152420002B0FAC6
:1039C00080F4A040141B94E7002200F075BA380080
:1039D00010B50400A4B21E4804603020FEF7F6FCC7
:1039E00000F08DFAA4B2201800F098FA10BD38B596
:1039F0000400FEF779FC05000FF2350000F076FABE
:103A00003020FEF7E3FC13480460EDB2002D01D135
:103A1000FEF760FC31BD80B53020FEF70AFD302096
:103A2000FEF7A1FC01BD80B53020FEF7CFFC01BD43
:103A300080B500F064FA06490968081800F06EFACB
:103A400004480068002802D002480068804701BD91
:103A5000684800206C480020F8B504000D001600EE
:103A6000FEF742FC07003000002860D02000DFF89D
:103A7000181488420CD0DFF8141488421CD0DFF8E8
:103A8000101488422CD0DFF80C1488423CD04EE051
:103A9000DFF804040068002805D10FF21D11DFF8DB
:103AA000E803FEF7C7FADFF8F0030068EDB2284339
:103AB000DFF8E41308603AE0DFF8E003006800286C
:103AC00005D10FF2A911DFF8C403FEF7B3FADFF84E
:103AD000CC030068EDB22843DFF8C013086026E08D
:103AE000DFF8BC030068002805D10FF23521DFF8AC
:103AF000A003FEF79FFADFF8A8030068EDB22843A1
:103B0000DFF89C13086012E0DFF8980300680028D3
:103B100005D10FF2C121DFF87C03FEF78BFADFF845
:103B200084030068EDB22843DFF8781308600020B2
:103B3000009002E00098401C00900098082830D2C5
:103B40000120009988402900C9B20142F2D020002A
:103B5000DFF8341388420CD0DFF8301388420ED0DF
:103B6000DFF82C13884210D0DFF82813884212D0D7
:103B7000E0E7DFF83403009940F82160DAE7DFF886
:103B80002C03009940F82160D4E7DFF82403009962
:103B900040F82160CEE7DFF81C03009940F821606F
:103BA000C8E72900C9B22000FEF740FAFFB2002F93
:103BB00001D1FEF78FFBF1BD38B50121B248FEF708
:103BC0002BFA0400B448006810EA0405E80706D59B
:103BD000B548006880470121AB48FEF727FAA807DF
:103BE00006D5B148406880470221A748FEF71EFA73
:103BF000680706D5AC48806880470421A248FEF7D4
:103C000015FA280706D5A848C068804708219E48AD
:103C1000FEF70CFAE80606D5A34800698047102194
:103C20009948FEF703FAA80606D59F4840698047E1
:103C300020219548FEF7FAF9680606D59A4880696A
:103C4000804740219048FEF7F1F9280606D59648AE
:103C5000C069804780218C48FEF7E8F934EA050105
:103C6000C9B28948FEF7E2F931BD000038B501213B
:103C70008648FEF7D1F904008848006810EA040578
:103C8000E80706D589480068804701217F48FEF78C
:103C9000CDF9A80706D585484068804702217B48B2
:103CA000FEF7C4F9680706D580488068804704217C
:103CB0007648FEF7BBF9280706D57C48C0688047E0
:103CC00008217248FEF7B2F9E80606D57748006980
:103CD000804710216D48FEF7A9F9A80606D573485C
:103CE0004069804720216948FEF7A0F9680606D59B
:103CF0006E488069804740216448FEF797F928069E
:103D000006D56A48C069804780216048FEF78EF971
:103D100034EA0501C9B25D48FEF788F931BD0000FB
:103D200038B501215A48FEF777F904005C4800686D
:103D300010EA0405E80706D55D48006880470121C0
:103D40005348FEF773F9A80706D5594840688047DD
:103D500002214F48FEF76AF9680706D55448806883
:103D6000804704214A48FEF761F9280706D55048E4
:103D7000C068804708214648FEF758F9E80606D58E
:103D80004B480069804710214148FEF74FF9A806CB
:103D900006D547484069804720213D48FEF746F94F
:103DA000680606D542488069804740213848FEF7BA
:103DB0003DF9280606D53E48C06980478021344831
:103DC000FEF734F934EA0501C9B23148FEF72EF99D
:103DD00031BD000038B501212E48FEF71DF9040061
:103DE0003048006810EA0405E80706D53148006845
:103DF000804701212748FEF719F9A80706D52D4865
:103E00004068804702212348FEF710F9680706D56D
:103E100028488068804704211E48FEF707F92807D4
:103E200006D52448C068804708211A48FEF7FEF8E6
:103E3000E80606D51F480069804710211548FEF79F
:103E4000F5F8A80606D51B4840698047202111488F
:103E5000FEF7ECF8680606D51648806980474021D1
:103E60000C48FEF7E3F8280606D51248C0698047DB
:103E700080210848FEF7DAF834EA0501C9B205489E
:103E8000FEF7D4F831BD000000900D4000A00D40B9
:103E900000B00D4000C00D40704800207448002064
:103EA000784800207C480020A0470020C047002020
:103EB000E04700200048002000B500BF13009646F0
:103EC0009446103928BFA0E80C50FAD85FEA417C2C
:103ED00028BF0CC048BF40F8042BC90728BF20F8F2
:103EE000022B48BF00F8012B00BD390080B501004E
:103EF0003020FEF703FA3020FEF735FA01BD1148F5
:103F000000681149096850EA01201049096850EA1F
:103F100001400F49096850EA016070470D4909687E
:103F2000C907FBD5010E0A4A1160C0F30741074AD1
:103F30001160C0F30721044A1160C0B20149086052
:103F40007047000040500D4044500D4048500D4017
:103F50004C500D4050500D4000000000000000008B
:103F60000000000000000000C0C0C0C0C0C0C0C051
:103F7000C0C0C0C0C0C000000000000000000000C1
:103F80000000000000000000000000000000000031
:103F90000000000000000000000000000000000021
:103FA000000000000000000000000000000000C051
:103FB0000000C000C0404080000000000000000081
:103FC0000000C0404040404040C0000000000000F1
:103FD00000000000000000000000000000000000E1
:103FE0000000000000000000FFFFFFFFFFFFFFFFD9
:103FF000FFFFFFFFFFFF00000000000000787E7E53
:104000007E7E3E0000000000000000000000000076
:1040100000000000000000000000000000000000A0
:10402000000000000000000000000000000000E7A9
:104030002828A7A02F21E1000000000000000000B8
:1040400000003F2026292926203F00000000000014
:104050000000000000000000000000000000000060
:104060000000000000000000FFFFFFFFFFFFFFFF58
:10407000FFFFFFFFFFFFFEFEFE0600E0FEFEFEFE6E
:10408000FE0600E0FEFEFEFEFEFEFEFEFEFEFEFE64
:104090000000C04040800000804080000000804060
:1040A0004000C000804000E02020A0A02020E01FB1
:1040B0001013141413101FE02020A0A02020E000F3
:1040C000C040404000C0800000C04040C04040C0F0
:1040D00040404000C0404080F0F0F0F0F0F0F0F0E0
:1040E000F0F0F0F0F0F0F0F0FFFFFFFFFFFFFFFF58
:1040F000FFFFFF8F818080000080FCFFFFFFFF1F1C
:10410000008080808080F9FFFFFFFFFFFFFFFFFF3F
:10411000F8E0CF090906000E0302030E00030408AD
:1041200008000F030408001F1013141413101FE0DD
:104130002020A0A02020E01F1013141413101F0033
:104140000F0A0A08000F0003040F00000F00000F01
:104150000A0A08000F02020D000107070F1F7FFF68
:10416000FFFFFFFFFFFFFFFFFFFFFFFFFFFFFFFF5F
:10417000FFFFFFFFFF7F0300F0FFFFFFFFFF0700D0
:10418000F0FFFFFFFFFFFFFFFFFFFFFFFFFFFFFF4E
:10419000FFFFFF0000000000000000000000000022
:1041A000000000000000000000C040408000805F70
:1041B000509314D413101FC000C0800000C0000032
:1041C00000000000000000000000000000000000EF
:1041D00000000000000000000000000000000001DE
:1041E000071F3F7F7F7F7F3F1F0F0F070F0F1F7F2F
:1041F000FFFFFFFFCF800000030303030300000065
:10420000030383FFFFFFFFFF7F7F3F3F1F1F0F0F52
:104210000707070000000000000000000000000089
:104220000000000000000000000F08080700070859
:104230000807000708070807000F0003040F000025
:10424000000000000000000000000000000000006E
:10425000000000000000000000000000000000005E
:10426000000000000000000000000000000000004E
:1042700001071F7FFFFFFFFFFEFEFEFEFEFEFEFEAC
:10428000FEFE7F1F07030100000000000000000089
:10429000000000000000000000000000000000001E
:1042A000000000000000000000000000000000000E
:1042B00000000000000000000000000000000000FE
:1042C00000000000000000000000000000000000EE
:1042D00000000000000000000000000000000000DE
:1042E00000000000000000000000000000000000CE
:1042F0000000000001030F1F1F3F7F7FFFFFFFFF34
:10430000FFFFE000000000000000000000000000CF
:10431000000000000000000000000000000000009D
:10432000000000000000000000000000000000008D
:10433000000000000000000000000000000000007D
:10434000000000000000000000000000000000006D
:1043500000000000000000000080000000000000DD
:10436000D853200000000000000000000000000002
:1043700000000000000000000000000012152000F6
:10438000FC51200000000000484100200000000017
:104390004F4B20000B00000000000000FA15200029
:1043A00010522000000000004841002000000000E2
:1043B0004F4B20000C000000000000004A162000B7
:1043C00024522000000000004841002000000000AE
:1043D0004F4B20000D00000000000000EE172000F1
:1043E000385220000000000048410020000000007A
:1043F0004F4B20000E00000000000000EA192000D2
:104400004C52200000000000484100200000000045
:104410004F4B20000F00000000000000D2222000BF
:104420006052200000000000484100200000000011
:104430004F4B20001000000000000000F63120006B
:1044400074522000000000004841002000000000DD
:104450004F4B20001100000000000000CE3920006A
:1044600088522000000000004841002000000000A9
:104470004F4B20001200000000000000EA3E200028
:104480009C52200000000000484100200000000075
:104490004F4B20001300000000000000C05520001A
:1044A000B052200000000000484100200000000041
:1044B0004F4B20001400000000000000C4552000F5
:1044C000C45220000000000048410020000000000D
:1044D0004F4B20001500000000000000C8552000D0
:1044E000D8522000000000004841002000000000D9
:1044F0004F4B20001600000000000000CC552000AB
:10450000EC522000000000004841002000000000A4
:104510004F4B20001700000000000000D055200085
:10452000005320000000000048410020000000006F
:104530004F4B20001800000000000000D455200060
:10454000145320000000000048410020000000003B
:104550004F4B20001900000000000000D85520003B
:104560002853200000000000484100200000000007
:104570004F4B20001A00000000005F000000070001
:104580000700147F147F14242A7F2A12231308643F
:104590006236495522500005030000001C224100EC
:1045A0000041221C00082A1C2A0808083E080800AE
:1045B0005030000008080808080060600000201063
:1045C0000804023E5149453E00427F40004261518D
:1045D00049462141454B311814127F102745454566
:1045E000393C4A4949300171090503364949493680
:1045F000064949291E0036360000005636000000E4
:104600000814224114141414144122140800020145
:10461000510906324979413E7E1111117E7F494987
:1046200049363E414141227F4141221C7F4949494F
:10463000417F090901013E414151327F0808087F4D
:1046400000417F41002040413F017F081422417F0B
:10465000404040407F0204027F7F0408107F3E41BB
:1046600041413E7F090909063E4151215E7F0919FA
:104670002946464949493101017F01013F404040F7
:104680003F1F2040201F7F2018207F6314081463E1
:104690000304780403615149454300007F4141020E
:1046A0000408102041417F00000402010204404040
:1046B000404040000102040020545454787F484494
:1046C00044383844444420384444487F385454548F
:1046D00018087E090102081454543C7F0804047829
:1046E00000447D40002040443D00007F10284400ED
:1046F000417F40007C041804787C08040478384426
:104700004444387C14141408081414187C7C0804DD
:1047100004084854545420043F4440203C40402066
:104720007C1C2040201C3C4030403C442810284445
:104730000C5050503C4464544C4400083641000036
:10474000007F00000041360800003E1C0800000009
:1047500000800000000000003C532000000000002A
:104760000000000000000000000000000000000049
:1047700000000000121520008455200000000000F9
:104780008041002000000000794B2000160000004E
:1047900000000000FA1520008C55200000000000E9
:1047A0008041002000000000794B20001400000030
:1047B000000000004A162000945520000000000070
:1047C0008041002000000000794B20001000000014
:1047D00000000000EE1720009C55200000000000A3
:1047E0008041002000000000794B20000D000000F7
:1047F00000000000EA192000A4552000000000007D
:104800008041002000000000794B200007000000DC
:1048100000000000D2222000AC5520000000000063
:104820008041002000000000794B200004000000BF
:1048300000000000F6312000B45520000000000008
:104840008041002000000000794B200000000000A3
:104850000080000000000000B853200000000000AD
:104860000000000000000000000000000000000048
:104870000000000012152000F85420000000000085
:104880002C41002000000000F14A20002A00000016
:1048900000000000FA152000C853200000000000AE
:1048A0002C41002000000000F14A2000010000001F
:1048B000008000006E4F20006E4F200000000000BE
:1048C00000000000000000000000000000000000E8
:1048D000008000006E4F20006E4F2000000000009E
:1048E00000000000000000000000000000000000C8
:1048F000008000006E4F20006E4F2000000000007E
:1049000000000000000000000000000000000000A7
:10491000008100006E4F20004C5520000000000078
:104920000000000000000000000000000000000087
:1049300000800000000000003C5320000000000048
:104940000000000000000000000000000000000067
:104950000000000012152000545520000000000047
:104960008041002000000000794B2000070000007B
:1049700000000000FA1520005C5520000000000037
:104980008041002000000000794B2000030000005F
:10499000000000004A1620006455200000000000BE
:1049A0008041002000000000794B20000000000042
:1049B00000000000EE1720006C55200000000000F1
:1049C0008041002000000000794B2000830000009F
:1049D00000000000EA1920007455200000000000CB
:1049E0008041002000000000794B20008900000079
:1049F00000000000D22220007C55200000000000B2
:104A00008041002000000000794B20008F00000052
:104A1000008000006E4F20006E4F2000000000005C
:104A20000000000000000000000000000000000086
:104A3000008000006E4F20006E4F2000000000003C
:104A40000000000000000000000000000000000066
:104A5000008000006E4F20009854200000000000ED
:104A60000000000000000000000000000000000046
:104A7000008000006E4F20006E4F200000000000FC
:104A80000000000000000000000000000000000026
:104A9000008000006E4F20006E4F200000000000DC
:104AA0000000000000000000000000000000000006
:104AB0000000000012152000A85420000000000093
:104AC0000000000000000000B94B200000000000C2
:104AD00000C000006E4F2000B8542000000000000D
:104AE00000000000000000000000000000000000C6
:104AF00080B50068284908732748007B2A280AD116
:104B00000020FEF7A5FD25482549086025482649CF
:104B10000860072009E00220FEF79AFD234820499B
:104B2000086023482049086008201F4908752F3075
:104B3000204908701F481C490861002002BD80B54B
:104B4000006815490873FDF7EFFE002002BD0068FC
:104B5000114988700020704780B500680E490870C0
:104B60000D480078012805D10B48007B2A2801D187
:104B7000FDF7DAFE002002BD00680749C87000207A
:104B80007047006804494860002070470068024987
:104B9000886000207047000034480020C44D200089
:104BA000484100203049200064410020244E20006C
:104BB000504720008548002080B5FDF701FE02BD6A
:104BC000008000000000000064532000000000008E
:104BD00000000000000000000000000000000000D5
:104BE00000000000121520004854200000000000C2
:104BF000B8410020000000008D4B200001000000A3
:104C000000000000FA1520005854200000000000A9
:104C1000B8410020000000008D4B20000A00000079
:104C2000000000004A162000685420000000000028
:104C3000B8410020000000008D4B2000140000004F
:104C400000000000EE172000785420000000000053
:104C5000B8410020000000008D4B20003200000011
:104C600000000000EA192000885420000000000025
:104C7000B8410020000000008D4B200064000000BF
:104C80000000000018ED00E01CED00E020ED00E069
:104C900000E400E004E400E008E400E00CE400E0EC
:104CA00010E400E014E400E018E400E01CE400E09C
:104CB00020E400E024E400E028E400E02CE400E04C
:104CC00030E400E034E400E038E400E03CE400E0FC
:104CD00040E400E044E400E048E400E04CE400E0AC
:104CE00050E400E054E400E058E400E05CE400E05C
:104CF00060E400E064E400E068E400E06CE400E00C
:104D000070E400E074E400E078E400E07CE400E0BB
:104D100080E400E084E400E088E400E08CE400E06B
:104D200090E400E0008000000000000050532000EC
:104D30000000000000000000000000000000000073
:104D400000000000000000001215200008542000A0
:104D5000000000009C41002000000000834B200068
:104D6000E803000000000000FA152000185420009D
:104D7000000000009C41002000000000834B200048
:104D800010270000000000004A16200028542000D0
:104D9000000000009C41002000000000834B200028
:104DA000A086010000000000EE172000385420000B
:104DB000000000009C41002000000000834B200008
:104DC00040420F000080000000000000E853200077
:104DD00000000000000000000000000000000000D3
:104DE0000000000000000000121520000455200003
:104DF000000000006441002000000000594B20002A
:104E00000000000000000000FA15200010552000EE
:104E1000000000000000000000000000594B2000CE
:104E2000010000000080000000000000E8532000A6
:104E30000000000000000000000000000000000072
:104E400000000000000000001215200004552000A2
:104E5000000000006441002000000000594B2000C9
:104E60000000000000000000FA152000105520008E
:104E700000000000D441002000000000594B200039
:104E8000010000000080000000000000F853200036
:104E90000000000000000000000000000000000012
:104EA0000000000000000000121520001C5520002A
:104EB0000000000000000000000000003F4B200048
:104EC0000100000000000000FA1520002855200015
:104ED0000000000000000000000000003F4B200028
:104EE0000000000019E050F8041BCB0744BFA9F1F3
:104EF00001035918121F0023042A41F8043BF9D278
:104F00005FEA827C0B4604D54FF0000CA1F800C08C
:104F10009B1CD10744BF0021197050F8042B002AB4
:104F2000E1D1704780B5094809490A68094B9A429E
:104F300003D10200501E002AF7D10748006850F044
:104F400001000549086000F00CF801BD80841E00D6
:104F5000003000204812F0A598200D40FEE7FEE743
:104F6000FEE7C046C046C046C04600F001F800005B
:104F700000F00BF8002801D000F00AF80020C0462D
:104F8000C046FDF7AFFB00F017F8012070470000A6
:104F900010B5074979441831064C7C44163404E0B6
:104FA0000A68081D511888470146A142F8D110BD72
:104FB0002C0000005000000000F000B80746384602
:104FC00000F002F8FBE7000080B5C046C046024A88
:104FD00011001820ABBEFBE72600020009FFFFFF0F
:104FE000000100000040002094060000F441002071
:104FF0000000000037C3FFFFE4050000E8000000E8
:105000000041002080400D4084400D4088400D400C
:105010008C400D4090400D4094400D4098400D4014
:105020009C400D40A0400D40A4400D40A8400D40C4
:10503000AC400D40B0400D40B4400D40B8400D4074
:10504000BC400D40C0400D40C4400D40C8400D4024
:10505000CC400D40D0400D40D4400D40D8400D40D4
:10506000DC400D40E0400D40E4400D40E8400D4084
:10507000EC400D40F0400D40F4400D40F8400D4034
:10508000FC400D4000400D4004400D4008400D40E4
:105090000C400D4010400D4014400D4018400D4094
:1050A0001C400D4020400D4024400D4028400D4044
:1050B0002C400D4030400D4034400D4038400D40F4
:1050C0003C400D4040400D4044400D4048400D40A4
:1050D0004C400D4050400D4054400D4058400D4054
:1050E0005C400D4060400D4064400D4068400D4004
:1050F0006C400D4070400D4074400D4078400D40B4
:105100007C400D404661696C656420746F20696E57
:10511000697469616C697A650000000008200D40BF
:1051200018200D4028200D4038200D4048200D400B
:10513000A8200D4000E100E004E100E008E100E00B
:105140000CE100E010E100E080E100E084E100E03B
:1051500088E100E08CE100E090E100E080E200E026
:1051600084E200E088E200E08CE200E090E200E00F
:1051700040A1C0A6A22FF800278116AC00AFB01046
:105180000000000053656E7420706B74732E202035
:10519000203A20300000000050726F677265737310
:1051A0005B255D20203A2030000000005045525B16
:1051B000255D202020202020203A20300000000003
:1051C000476F6F6420706B74732E2020203A20305C
:1051D000000000004C6F737420706B74732E2020DD
:1051E000203A203000000000312053454C45435404
:1051F00020746F2072657365740000002043682E70
:10520000203131202832343035204D487A290000B1
:105210002043682E203132202832343130204D484E
:105220007A2900002043682E20313320283234317F
:1052300035204D487A2900002043682E2031342043
:105240002832343230204D487A2900002043682E1D
:10525000203135202832343235204D487A2900005B
:105260002043682E203136202832343330204D48F8
:105270007A2900002043682E203137202832343329
:1052800035204D487A2900002043682E20313820EF
:105290002832343430204D487A2900002043682ECB
:1052A000203139202832343435204D487A29000005
:1052B00043682E203230202832343530204D487A51
:1052C0002900000043682E20323120283234353541
:1052D000204D487A2900000043682E2032322028D1
:1052E00032343630204D487A2900000043682E20A1
:1052F0003233202832343635204D487A29000000D8
:1053000043682E203234202832343730204D487AFA
:105310002900000043682E203235202832343735EA
:10532000204D487A2900000043682E20323620287C
:1053300032343830204D487A290000002053656C03
:1053400065637420545820706F7765720000000008
:105350002053656C656374204275727374205369C1
:105360007A6500002053656C656374205061636B3F
:1053700065742052617465004368616E6E656C20CF
:1053800020202020203A20003120557365205345ED
:105390004C45435420746F00202073746172742F45
:1053A00073746F70205458004176672E2052535307
:1053B00049202020203A20002053656C656374202A
:1053C0004D6F64756C6500004343323533382D43AF
:1053D0004332353932454D002053656C6563742086
:1053E0004368616E6E656C002053656C6563742064
:1053F0004D6F6465000000002053656C6563742088
:105400004761696E000000002020203130303020DC
:105410007061636B65747300202031303030302050
:105420007061636B65747300203130303030302030
:105430007061636B65747300313030303030302010
:105440007061636B6574730020202031207061638C
:105450006B65742F73000000202031302070616371
:105460006B6574732F7300002020323020706163ED
:105470006B6574732F7300002020353020706163DA
:105480006B6574732F7300002031303020706163BE
:105490006B6574732F730000202020202020545847
:1054A0002049646C650000005573652053454C45E8
:1054B000435420746F000000202073746172742FB5
:1054C00073746F70205458004261736963524621AF
:1054D0000000000020204343323533380000000034
:1054E000205045522054455354000000504552204E
:1054F0005465737400000000434332353338454D22
:10550000000000005472616E736D697474657200FE
:1055100052656365697665720000000048696768D6
:10552000206761696E0000004C6F77206761696ECB
:1055300000000000504552205465737400000000C4
:105540004D61696E204D656E7500000076312E311B
:105550002E3020002020372064426D002020332090
:1055600064426D002020302064426D00202D3320E5
:1055700064426D00202D392064426D002D313520AC
:1055800064426D0032322064426D0000323020648B
:10559000426D000031362064426D000031332064DA
:1055A000426D000020372064426D000020342064EA
:1055B000426D000020302064426D0000B0100000F9
:1055C0003130000031310000313200003133000051
:1055D000313400003135000031360000C3FF0001D6
:1055E000700150482012300934552000FA1520006F
:1055F00007010114C358431C12D80452111C300572
:10560000C44D20002C410021613852031C9003300E
:10561000492000481C83D2225412243892641C5022
:1056200003EE172000051C9003C04B2000801C30A7
:1056300005EA1920000603031C9003104A20009C71
:105640001C2212A84205CEC3844E70A18C034908C7
:020000040027D3
:0CFFD400FFFFFFEF000000000000200015
:0400000500204F6325
:00000001FF
