:1000000019C0DDC348C426C025C024C023C022C0F7
:1000100021C020C01FC01EC01DC01CC01BC01AC0F4
:10002000BEC318C039C2F8C115C014C013C012C075
:1000300011C010C011241FBECFEFD2E0DEBFCDBF74
:1000400021E0A0E0B1E001C01D92AF39B207E1F7B5
:100050006CD2A3C4D5CF87E084B98FE387B980EE93
:100060008AB915B818B81BB8089582E090E05F9877
:10007000E7EAF1E63197F1F700C000005E98E7EAA1
:10008000F1E63197F1F700C000002998E7EAF1E6C0
:100090003197F1F700C000002898E7EAF1E63197C0
:1000A000F1F700C000005D98E7EAF1E63197F1F75B
:1000B00000C000002A98E7EAF1E63197F1F700C0A6
:1000C00000004098E7EAF1E63197F1F700C0000040
:1000D0004198E7EAF1E63197F1F700C00000449853
:1000E000E7EAF1E63197F1F700C000004598E7EA4A
:1000F000F1E63197F1F700C000004298E7EAF1E637
:100100003197F1F700C00000439AE7EAF1E6319732
:10011000F1F700C000005F9AE7EAF1E63197F1F7E6
:1001200000C000005E9AE7EAF1E63197F1F700C0FF
:100130000000299AE7EAF1E63197F1F700C00000E4
:10014000289AE7EAF1E63197F1F700C000005D9ADE
:10015000E7EAF1E63197F1F700C000002A9AE7EAF2
:10016000F1E63197F1F700C00000409AE7EAF1E6C6
:100170003197F1F700C00000419AE7EAF1E63197C4
:10018000F1F700C00000449AE7EAF1E63197F1F791
:1001900000C00000459AE7EAF1E63197F1F700C0A8
:1001A0000000429AE7EAF1E63197F1F700C000005B
:1001B0004398E7EAF1E63197F1F700C000000197B4
:1001C00009F055CF5F9A87EA91E60197F1F700C0F1
:1001D00000005E9AE7EAF1E63197F1F700C000000F
:1001E000299A87EA91E60197F1F700C00000289A62
:1001F000E7EAF1E63197F1F700C000005D9A87EA7F
:1002000091E60197F1F700C000002A9AE7EAF1E6CB
:100210003197F1F700C00000409A87EA91E6019714
:10022000F1F700C00000419AE7EAF1E63197F1F7F3
:1002300000C00000449A87EA91E60197F1F700C0F8
:100240000000459AE7EAF1E63197F1F700C00000B7
:10025000429887EA91E60197F1F700C000004398C1
:10026000E7EAF1E63197F1F700C000000895109237
:100270008C0110929E01EDE8F1E010821182128251
:100280001382148215820895E9E6F0E010828081DD
:1002900082608083808184608083808188608083A5
:1002A00083E08DBB089514BC15BC81E080936E0083
:1002B00085BB08950F931F93CF9384E090E057D3AD
:1002C000082F85E090E053D3C82F86E090E04FD30D
:1002D000402F50E060E070E09A01112700274C2F7A
:1002E00050E060E070E0762F652F542F4427400FD8
:1002F000511F621F731F8A019B01080F111D211DD1
:10030000311DC901B801CF911F910F9108955C9AD9
:1003100089EF90E00197F1F700C000005C9A89EF47
:1003200090E00197F1F700C000005C9A89EF90E03F
:100330000197F1F700C000005C9A89EF90E0019707
:10034000F1F700C000005C980895CF93DF93CDB71C
:10035000DEB769970FB6F894DEBF0FBECDBF10921F
:10036000C50085E08093C400E1ECF0E088E980837B
:1003700086E08093C2008081806280831D8A1E8A0D
:1003800080E48F8B2AE431E0398F288F95E0FE01DD
:100390007596DE01119601900D929A95E1F795E020
:1003A000FE013196DE01169601900D929A95E1F7C5
:1003B00095E0FE013696A5E0B1E001900D929A9588
:1003C000E1F71D8A1E8A8F8B8AE091E0998F888FD2
:1003D00085E0FE017596DE011B9601900D928A95CF
:1003E000E1F785E0FE013B96DE01509601900D920B
:1003F0008A95E1F785E0FE017096A0E0B1E00190FA
:100400000D928A95E1F769960FB6F894DEBF0FBE9C
:10041000CDBFDF91CF9108951F920F920FB60F922B
:1004200011242F933F934F935F938F939F93AF9399
:10043000BF93EF93FF93E5E0F1E0918180819817FE
:10044000B9F08181A381B481A80FB11D3C912181B4
:10045000422F50E0828190E001974817590711F030
:100460002F5F01C020E0209306013093C60005C035
:10047000E1ECF0E080818F7D8083FF91EF91BF916F
:10048000AF919F918F915F914F913F912F910F90DD
:100490000FBE0F901F9018951F920F920FB60F92DC
:1004A00011242F934F935F938F939F93AF93BF9399
:1004B000EF93FF938091C600E0E0F1E09081A3818B
:1004C000B481A90FB11D8C932081422F50E082810D
:1004D00090E001974817590711F02F5F01C020E005
:1004E000209300018091C600813649F45E9887EA26
:1004F00091E60197F1F700C000005E9A08C05F988E
:1005000087EA91E60197F1F700C000005F9AFF913A
:10051000EF91BF91AF919F918F915F914F912F91EB
:100520000F900FBE0F901F90189595DD9EDDACDEED
:10053000BADE9DDE0ADFBEDE60939A0170939B01F6
:1005400080939C0190939D017894C0E0D1E005E0F8
:1005500011E00F2EF1ECEF2EF12CF02DB12C0F2E1F
:10056000FDE8CF2EF1E0DF2EF02D992493949981B0
:1005700088819817E1F38981EB81FC81E80FF11DF7
:1005800030812981422F50E08A8190E001974817FD
:10059000590711F02F5F01C02B2D2983F894D80142
:1005A00011969C9111978C91981304C0F70180814A
:1005B00080628083D8018C911396ED91FC91149701
:1005C000E80FF11D30832C91422F50E012968C9150
:1005D00090E001974817590711F02F5F01C02B2DAC
:1005E000F8012083789480918A01813019F58091F7
:1005F0008B0120918C0130918C01E0918C01F0E015
:10060000F595E795F595E795F595E795E357FE4F51
:10061000408190E0387F231B02C0880F991F2A95E4
:10062000E2F7842B808380918C018F5F80938C0113
:10063000B0928A0180918C01843208F498CF15BC65
:10064000D6018C918F7090E09695879581309105B9
:1006500009F48FC01CF4892BB1F09FC08430910540
:1006600009F496C0079709F098C0809193018130F2
:1006700009F493C088B18B7F88B988B988B1877F26
:1006800088B988B98AC0F60190812181E181D601BB
:1006900012968C91129712966C91129713967C91E8
:1006A000B0E12B9F90011124332792959F70292B45
:1006B0002901330F66087708320155244424F0E1FC
:1006C0008F9FC00111249927E295EF708E2B092E80
:1006D000000CAA0BBB0BBA2FA92F982F8827840DCB
:1006E000951DA61DB71D20E1729FA001112455275D
:1006F00062956F70462B052E000C660B770B840FEE
:10070000951FA61FB71F8093960190939701A09302
:100710009801B0939901F601A380248140919A0138
:1007200050919B0160919C0170919D0184179507E8
:10073000A607B70791F5A694A694A694A694F0E10F
:100740002F9FC0011124A82A429A87E090E00FD180
:1007500080939401A81639F0A09295016A2D87E044
:1007600090E00DD102C0A092950190929301CFDD4F
:1007700014C080919301813081F4D6018C9111963F
:100780008C91119711968C91119712968C9105C0AE
:10079000F601808181818181828169DDE8CE1F92AD
:1007A0000F920FB60F9211248F9381E080938A01EC
:1007B00016BC8F910F900FBE0F901F9018951F922F
:1007C0000F920FB60F9211242F933F938F939F9305
:1007D000EF93FF9315BC16BCA8988AE08A95F1F7B1
:1007E00080919E0180FD29C080919E01826080934E
:1007F0009E0120918C0190918C01E0918C01F0E0A0
:10080000F595E795F595E795F595E795E357FE4F4F
:100810003081987F291B81E090E002C0880F991FEA
:100820002A95E2F7832B808381E080938B0180916E
:100830008C018F5F80938C011DC080919E018D7F04
:1008400080939E0180918C0180918C01E0918C01BC
:10085000F0E0F595E795F595E795F595E795E3577C
:10086000FE4F8081808310928B0180918C018F5F7D
:1008700080938C0181E085BD16BC85BB83E08CBB79
:10088000FF91EF919F918F913F912F910F900FBE0C
:100890000F901F9018951F920F920FB60F92112470
:1008A0002F933F938F939F93EF93FF9315BC16BCA9
:1008B000A8988AE08A95F1F780919E0181FD29C070
:1008C00080919E01816080939E0120918C01909186
:1008D0008C01E0918C01F0E0F595E795F595E795B1
:1008E000F595E795E357FE4F3081987F291B81E00E
:1008F00090E002C0880F991F2A95E2F7832B80832E
:1009000081E080938B0180918C018F5F80938C01BB
:100910001DC080919E018E7F80939E0180918C01ED
:1009200080918C01E0918C01F0E0F595E795F595CB
:10093000E795F595E795E357FE4F80818083109208
:100940008B0180918C018F5F80938C0181E085BD4C
:1009500016BC85BB83E08CBBFF91EF919F918F917B
:100960003F912F910F900FBE0F901F901895F999FE
:10097000FECF12BC81BDF89A992780B50895262F25
:10098000F999FECF1FBA12BC81BD20BD0FB6F894F5
:0E099000FA9AF99A0FBE01960895F894FFCFD7
:00000001FF
