:1000000019C088C2F3C226C025C024C023C022C0A4
:1000100021C020C01FC01EC01DC01CC01BC01AC0F4
:1000200069C218C017C016C015C014C013C012C0D2
:1000300011C010C011241FBECFEFD2E0DEBFCDBF74
:1000400021E0A0E0B1E001C01D92A531B207E1F7C7
:1000500070D14EC3D5CF87E084B98FE387B980EEE6
:100060008AB915B818B81BB8089582E090E05F9877
:10007000E7EAF1E63197F1F700C000005E98E7EAA1
:10008000F1E63197F1F700C000002998E7EAF1E6C0
:100090003197F1F700C000002898E7EAF1E63197C0
:1000A000F1F700C000005D98E7EAF1E63197F1F75B
:1000B00000C000002A98E7EAF1E63197F1F700C0A6
:1000C00000004098E7EAF1E63197F1F700C0000040
:1000D0004198E7EAF1E63197F1F700C00000449853
:1000E000E7EAF1E63197F1F700C000004598E7EA4A
:1000F000F1E63197F1F700C000004298E7EAF1E637
:100100003197F1F700C00000439AE7EAF1E6319732
:10011000F1F700C000005F9AE7EAF1E63197F1F7E6
:1001200000C000005E9AE7EAF1E63197F1F700C0FF
:100130000000299AE7EAF1E63197F1F700C00000E4
:10014000289AE7EAF1E63197F1F700C000005D9ADE
:10015000E7EAF1E63197F1F700C000002A9AE7EAF2
:10016000F1E63197F1F700C00000409AE7EAF1E6C6
:100170003197F1F700C00000419AE7EAF1E63197C4
:10018000F1F700C00000449AE7EAF1E63197F1F791
:1001900000C00000459AE7EAF1E63197F1F700C0A8
:1001A0000000429AE7EAF1E63197F1F700C000005B
:1001B0004398E7EAF1E63197F1F700C000000197B4
:1001C00009F055CF5F9A87EA91E60197F1F700C0F1
:1001D00000005E9AE7EAF1E63197F1F700C000000F
:1001E000299A87EA91E60197F1F700C00000289A62
:1001F000E7EAF1E63197F1F700C000005D9A87EA7F
:1002000091E60197F1F700C000002A9AE7EAF1E6CB
:100210003197F1F700C00000409A87EA91E6019714
:10022000F1F700C00000419AE7EAF1E63197F1F7F3
:1002300000C00000449A87EA91E60197F1F700C0F8
:100240000000459AE7EAF1E63197F1F700C00000B7
:10025000429887EA91E60197F1F700C000004398C1
:10026000E7EAF1E63197F1F700C000000895109237
:10027000020110921401E3E0F1E010821182128277
:100280001382148215820895E9E6F0E010828081DD
:1002900082608083808184608083808188608083A5
:1002A00083E08DBB089514BC15BC81E080936E0083
:1002B00085BB08950F931F93CF9384E090E002D203
:1002C000082F85E090E0FED1C82F86E090E0FAD1BB
:1002D000402F50E060E070E09A01112700274C2F7A
:1002E00050E060E070E0762F652F542F4427400FD8
:1002F000511F621F731F8A019B01080F111D211DD1
:10030000311DC901B801CF911F910F9108955C9AD9
:1003100084E68A95F1F75C9A84E68A95F1F75C9A0F
:1003200084E68A95F1F75C9A84E68A95F1F75C9801
:10033000089591DE9ADEA8DFB6DF99DFBBDF609318
:10034000100170931101809312019093130178941E
:10035000C3E0D1E011E080910001813021F590915E
:1003600001012091020130910201E0910201F0E0CF
:10037000F595E795F595E795F595E795ED5FFE4FD2
:100380004081892F90E0387F231B02C0880F991F7E
:100390002A95E2F7842B8083809102018F5F8093FE
:1003A000020110920001809102018432A0F215BC7A
:1003B00088818F7090E0969587958130910509F43A
:1003C0008AC01CF4892BB1F093C08430910509F4E4
:1003D0008BC0079709F08CC080910901813009F426
:1003E00087C088B18B7F88B988B988B1877F88B981
:1003F00088B97EC03881898159812A816A814B817F
:1004000070E1879FC0011124992732953F70832B9B
:10041000092E000CAA0BBB0B7C01DD24CC2480E14F
:10042000289F900111243327852F82958F70F90121
:10043000E82BCF01092E000CAA0BBB0BBA2FA92F5A
:10044000982F88278C0D9D1DAE1DBF1DF0E14F9F7D
:10045000A0011124552762956F70462B052E000CC4
:10046000660B770B840F951FA61FB71F80930C0197
:1004700090930D01A0930E01B0930F01FB802C818E
:10048000409110015091110160911201709113017E
:1004900084179507A607B70759F5F694F694F694CE
:1004A000F69430E1239FC0011124F82A429A87E094
:1004B00090E008D180930A01F81639F0F0920B0110
:1004C0006F2D87E090E006D102C0F0920B011093EF
:1004D00009011DDF0DC080910901813049F4888137
:1004E000898189818A8104C08881898189818A8101
:1004F000BEDE31CF1F920F920FB60F9211248F9351
:1005000081E08093000116BC8F910F900FBE0F9079
:100510001F9018951F920F920FB60F9211242F93D0
:100520003F938F939F93EF93FF9315BC16BCA898AE
:100530008AE08A95F1F78091140180FD29C08091AD
:1005400014018260809314012091020190910201B4
:10055000E0910201F0E0F595E795F595E795F595C1
:10056000E795ED5FFE4F3081987F291B81E090E099
:1005700002C0880F991F2A95E2F7832B808381E0C0
:1005800080930101809102018F5F809302011DC061
:10059000809114018D7F80931401809102018091DC
:1005A0000201E0910201F0E0F595E795F595E795F8
:1005B000F595E795ED5FFE4F8081808310920101F4
:1005C000809102018F5F8093020181E085BD16BC9E
:1005D00085BB83E08CBBFF91EF919F918F913F9101
:1005E0002F910F900FBE0F901F9018951F920F9292
:1005F0000FB60F9211242F933F938F939F93EF93F6
:10060000FF9315BC16BCA8988AE08A95F1F78091F3
:10061000140181FD29C0809114018160809314012F
:100620002091020190910201E0910201F0E0F59524
:10063000E795F595E795F595E795ED5FFE4F3081E8
:10064000987F291B81E090E002C0880F991F2A95AE
:10065000E2F7832B808381E0809301018091020186
:100660008F5F809302011DC0809114018E7F809363
:1006700014018091020180910201E0910201F0E0F9
:10068000F595E795F595E795F595E795ED5FFE4FBF
:100690008081808310920101809102018F5F80939D
:1006A000020181E085BD16BC85BB83E08CBBFF9158
:1006B000EF919F918F913F912F910F900FBE0F90CF
:1006C0001F901895F999FECF12BC81BDF89A992711
:1006D00080B50895262FF999FECF1FBA12BC81BDAF
:1006E00020BD0FB6F894FA9AF99A0FBE01960895B4
:0406F000F894FFCFAC
:00000001FF
