S01600004947535F5753434D5F565F305F312E73726563BE
S1130000A7C00000C3C00000C1C00000BFC0000002
S1130010BDC00000BBC00000B9C000000C94680F54
S1130020B5C00000B3C000000C94C40BAFC0000006
S1130030ADC00000ABC00000A9C00000A7C0000014
S11300400C94A40AA3C000000C94650A0C94820BBF
S11300500C94B20B9BC0000099C0000097C0000034
S113006095C0000093C0000091C000008FC0000044
S11300708DC000008BC0000089C0000087C0000054
S113008085C0000083C0000081C000003E0B480B07
S1130090660B660B660B660B660B660B660B660BD4
S11300A0660B660B660B660B660B660B660B660BC4
S11300B0660B660B660B660B660B660B660B660BB4
S11300C0660B660B660B660B660B660BEE0AF80A8C
S11300D00C0B160B200B020B2A0B340B660B660B56
S11300E0660B660B660B660B660B660B660B660B84
S11300F0660B660B660B660B660B660B660B660B74
S1130100660B660B660B660B660B660B660B660B63
S1130110660B660B660B660B660B660B660B660B53
S1130120660B660B660B660B660B660B660B660B43
S1130130660B660B660B660B660B660B660B660B33
S1130140660B660B660B660B660B660B5C0B520B41
S113015011241FBECFEFD0E1DEBFCDBF13E0A0E07E
S1130160B1E0E6ECFFE100E00BBF02C007900D92A6
S1130170A031B107D9F720E1A0E1B3E001C01D929D
S1130180A836B207E1F793D70C94E10F39CF611584
S11301907105A1F0DC01680F791F252F33279D918C
S11301A0FA01E927FF27EE0FFF1FE05FFE4F4081B2
S11301B0518142275327A617B70779F7CA01089533
S11301C090E797BB88E181BB86E982B91092610010
S11301D0E4E6F0E080818360808312BA98BB84E017
S11301E083B9109262000895E0B1E295EF70F0E0F7
S11301F0E050FF4F8081089581E0029980E00895E6
S113020081E0019980E0089581E00D9B80E00895EC
S1130210109290008CE089B986E08093950088E97B
S11302208AB9089513BE87B7816087BF12BE089547
S1130230FC01EE51FE4F20813181203E314068F4B3
S113024020813181DC01A20FB31F6C9380819181E5
S113025001969183808381E0089580E00895FC01F4
S1130260EE51FE4F408151813297208131814217F6
S1130270530770F43296A081B181A80FB91F2C9155
S1130280DB012C93208131812F5F3F4F3183208309
S1130290FC01EE51FE4F4081518132972081318122
S11302A081E04217530709F080E00895E6E0FEE09C
S11302B0108211821282138214821582EEE0FEE013
S11302C08EEE9FE01192E817F907E1F71092EF0F15
S11302D01092EE0F0895CF93DF93E8DFCDECDBE0CF
S11302E0388189812A81E6E0FEE090E0A0E0B0E078
S11302F0932BDC0199278827822B80839183A28307
S1130300B3838B8184838C8185838D816E8170E03E
S1130310782B77836683613E81E0780748F080EE2E
S113032091E090930D0E80930C0E60EE71E003C08B
S11303306115710569F0EEE0FEE080E090E0DC011B
S1130340AC52B44F2C912193019686179707B8F3BA
S1130350FB01EC52F44F2081FB01EB52F44F8081FE
S113036090E0922B9093EF0F8093EE0F6C5F7F4F92
S11303704FEF5FEF80ED9BE00ADF4091060E509156
S1130380070E6091080E7091090E452B462B472BE2
S113039079F42091EE0F3091EF0F8217930751F407
S11303A08091970890910A0E981306C083E005C0C7
S11303B080E003C081E001C082E0DF91CF91089525
S11303C0CF93DF93EB01ECEBF9E010821182128200
S11303D09091970893838483D5836683603E7140AC
S11303E088F1C0EED1E080E090E0FA01E80FF91F57
S11303F02081FC01ED53F64F208301968C179D0755
S1130400A0F3CE010B9690939D0B80939C0BBE01A1
S11304106C5F7F4F4FEF5FEF8FEB99E0B8DEFE012B
S1130420ED53F64F9083FE01EC53F64F8083FE01AB
S1130430EB53F64F1082CA53D64F188257981A9826
S1130440559A03C02097E9F2CECFDF91CF9108955A
S113045015BC87B7806487BF14BC089580E090E022
S1130460FC01EC5BF64F1082FC01E051F04F10826E
S1130470FC01E356F74F108201968837910581F706
S11304808091960880934409089580E090E0FC01EF
S1130490E45EF64F1082FC01E056F44F10820196A0
S11304A088329105A1F78091950880931C090895DD
S11304B080E090E0FC01EE54F24F10820196883205
S11304C09105C1F7089580E090E0FC01E552F24FF8
S11304D01082019688329105C1F708952F923F92B8
S11304E04F925F926F927F928F929F92AF92BF9240
S11304F0CF92DF92EF92FF920F931F93CF93DF93EC
S1130500CDB7DEB7E0970FB6F894DEBF0FBECDBF10
S11305104EA749835FA75A8368AB6B837C838D8323
S113052094E893B9E9E2F2E03197F1F700C00000F2
S113053040FB882480F8912C9694982C88249794D6
S11305408794982D946093B9E9E2F2E03197F1F73A
S113055000C0000041FBAA24A0F8B12CB694BA2C28
S1130560AA24B794A7949A2D946093B9E9E2F2E08F
S11305703197F1F700C0000042FBCC24C0F8D12C25
S1130580D694DC2CCC24D794C7949C2D946093B936
S1130590E9E2F2E03197F1F700C0000050FBEE24ED
S11305A0E0F8F12CF694FE2CEE24F794E7949E2DBB
S11305B0946093B9E9E2F2E03197F1F700C00000EA
S11305C051FB002700F910E01695102F002717950E
S11305D00795046003B9E9E2F2E03197F1F700C04E
S11305E0000052FBAA27A0F9B0E0B695BA2FAA27BB
S11305F0B795A795A460A3B9E9E2F2E03197F1F7C2
S113060000C0000053FBEE27E0F9F0E0F695FE2F62
S1130610EE27F795E795E460E3B9E9E2F2E0319774
S1130620F1F700C0000054FB222720F930E0369592
S1130630322F222737952795246023B9E9E2F2E087
S11306403197F1F700C0000055FB662460F8712C67
S113065093013695322F222737952795922F946050
S113066093B9E9E2F2E03197F1F700C0000056FBDC
S1130670FF27F0F9FE831F822E813F813695322FAA
S1130680222737952795246023B9E9E2F2E03197D0
S1130690F1F700C00000551F5527551F252F30E0E6
S11306A03695322F222737952795246023B9E9E21E
S11306B0F2E03197F1F700C00000F62FF170F887EF
S11306C01986288539853695322F2227379527951F
S11306D0246023B9E9E2F2E03197F1F700C00000A9
S11306E061FBFF27F0F9FA871B862A853B8536953F
S11306F0322F222737952795246023B9E9E2F2E0C7
S11307003197F1F700C0000062FBFF27F0F9FC8786
S11307101D862C853D853695322F222737952795C2
S1130720246023B9E9E2F2E03197F1F700C0000058
S113073063FBFF27F0F9FE871F862E853F853695DC
S1130740322F222737952795246023B9E9E2F2E076
S11307503197F1F700C0000064FBFF27F0F9F88B34
S1130760198A288939893695322F22273795279572
S1130770246023B9E9E2F2E03197F1F700C0000008
S113078065FBFF27F0F9FA8B1B8A2A893B8936958A
S1130790322F222737952795246023B9E9E2F2E026
S11307A03197F1F700C0000066FBFF27F0F9FC8BDE
S11307B01D8A2C893D893695322F22273795279516
S11307C0246023B9E9E2F2E03197F1F700C00000B8
S11307D0661F6627661F262F30E03695322F2227A4
S11307E037952795246023B9E9E2F2E03197F1F7D0
S11307F000C00000F72FF170FE8B1F8A2E893F89FD
S11308003695322F222737952795246023B9E9E2BC
S1130810F2E03197F1F700C0000071FBFF27F0F917
S1130820F88F198E288D398D3695322F22273795DA
S11308302795246023B9E9E2F2E03197F1F700C08B
S1130840000072FBFF27F0F9FA8F1B8E2A8D3B8D77
S11308503695322F222737952795246023B9E9E26C
S1130860F2E03197F1F700C0000073FBFF27F0F9C5
S1130870FC8F1D8E2C8D3D8D3695322F222737957A
S11308802795246023B9E9E2F2E03197F1F700C03B
S1130890000074FBFF27F0F9FE8F1F8E2E8D3F8D15
S11308A03695322F222737952795246023B9E9E21C
S11308B0F2E03197F1F700C0000075FBFF27F0F973
S11308C0F8A319A228A139A13695322F22273795EA
S11308D02795246023B9E9E2F2E03197F1F700C0EB
S11308E0000076FBFF27F0F9FAA31BA22AA13BA183
S11308F03695322F222737952795246023B9E9E2CC
S1130900F2E03197F1F700C00000771F7727771FD7
S1130910272F30E03695322F2227379527952460EC
S113092023B9E9E2F2E03197F1F700C00000F82FB3
S1130930F170FCA31DA22CA13DA13695322F2227D4
S113094037952795246023B9E9E2F2E03197F1F76E
S113095000C0000081FBFF27F0F9FEA31FA22EA117
S11309603FA13695322F222737952795246023B946
S1130970E9E2F2E03197F1F700C0000082FBFF27C3
S1130980F0F9F8A719A628A539A53695322F2227FC
S113099037952795246023B9E9E2F2E03197F1F71E
S11309A000C0000083FBFF27F0F9FAA71BA62AA5C5
S11309B03BA53695322F222737952795246023B9F6
S11309C0E9E2F2E03197F1F700C0000084FBFF2771
S11309D0F0F9FCA71DA62CA53DA53695322F22279C
S11309E037952795246023B9E9E2F2E03197F1F7CE
S11309F000C0000085FB442440F8512C9201369538
S1130A00322F222737952795246023B9E9E2F2E0B3
S1130A103197F1F700C0000086FB222420F8312C26
S1130A2091013695322F222737952795246023B9D3
S1130A30E9E2F2E03197F1F700C00000881F88274F
S1130A40881F90E09695982F8827979587958460BE
S1130A5083B989E292E00197F1F700C0000084E0D5
S1130A6083B9E0960FB6F894DEBF0FBECDBFDF9119
S1130A70CF911F910F91FF90EF90DF90CF90BF9097
S1130A80AF909F908F907F906F905F904F903F902A
S1130A902F9008952F923F924F925F926F927F9280
S1130AA08F929F92AF92BF92CF92DF92EF92FF927A
S1130AB00F931F93CF93DF93CDB7DEB763970FB632
S1130AC0F894DEBF0FBECDBF24E823B9E9E2F2E01B
S1130AD03197F1F700C0000060FBAA24A0F8B12C04
S1130AE0B694BA2CAA24B794A794FA2DF460F3B957
S1130AF0E9E2F2E03197F1F700C0000061FBCC2499
S1130B00C0F8D12CD694DC2CCC24D794C794FC2DDB
S1130B10F460F3B9E9E2F2E03197F1F700C00000C4
S1130B2062FBEE24E0F8F12CF694FE2CEE24F7940C
S1130B30E7946E2D646063B9E9E2F2E03197F1F76E
S1130B4000C00000072F017010E01695102F002739
S1130B5017950795046003B9E9E2F2E03197F1F7DC
S1130B6000C0000071FBFF27F0F9FA8B1B8A2A8969
S1130B703B893695322F2227379527953B8B2A8B35
S1130B80246023B9E9E2F2E03197F1F700C00000F4
S1130B9072FBAA27A0F9B0E0B695BA2FAA27B79599
S1130BA0A795A460A3B9E9E2F2E03197F1F700C098
S1130BB0000073FBEE27E0F9F0E0F695FE2FEE2738
S1130BC0F795E795E460E3B9E9E2F2E03197F1F7EC
S1130BD000C0000074FB442740F950E05695542FA0
S1130BE0442757954795446043B9E9E2F2E03197C9
S1130BF0F1F700C0000075FB222720F930E036959C
S1130C00322F222737952795246023B9E9E2F2E0B1
S1130C103197F1F700C0000076FB882480F8912C0E
S1130C2094013695322F222737952795246023B9CE
S1130C30E9E2F2E03197F1F700C00000771F77276F
S1130C40771F272F30E03695322F222737952795A7
S1130C50246023B9E9E2F2E03197F1F700C0000023
S1130C6080FB662460F8712C93013695322F22277D
S1130C7037952795246023B9E9E2F2E03197F1F73B
S1130C8000C0000081FB442440F8512C92013695A9
S1130C90322F222737952795246023B9E9E2F2E021
S1130CA03197F1F700C0000082FBFF27F0F9F983C8
S1130CB01A8229813A813695322F22273795279532
S1130CC0246023B9E9E2F2E03197F1F700C00000B3
S1130CD083FB882780F98B831C822B813C8136958A
S1130CE0322F222737952795246023B9E9E2F2E0D1
S1130CF03197F1F700C00000F92FF170FD831E82D7
S1130D002D813E813695322F2227379527952460F1
S1130D1023B9E9E2F2E03197F1F700C0000091FB5A
S1130D20FF27F0F9FF8318862F8138853695322FF7
S1130D30222737952795246023B9E9E2F2E0319719
S1130D40F1F700C0000092FBFF27F0F9F9871A863B
S1130D5029853A853695322F2227379527952460A1
S1130D6023B9E9E2F2E03197F1F700C0000093FB08
S1130D70FF27F0F9FB871C862B853C853695322F9F
S1130D80222737952795246023B9E9E2F2E03197C9
S1130D90F1F700C0000094FBFF27F0F9FD871E86E1
S1130DA02D853E853695322F222737952795246049
S1130DB023B9E9E2F2E03197F1F700C0000095FBB6
S1130DC0FF27F0F9FF87188A2F8538893695322F47
S1130DD0222737952795246023B9E9E2F2E0319779
S1130DE0F1F700C0000096FB222420F8312C910179
S1130DF03695322F222737952795246023B9E9E2C7
S1130E00F2E03197F1F700C00000991F9927991F6C
S1130E10892F90E09695982F8827979587958460D9
S1130E2083B989E292E00197F1F700C0000084E001
S1130E3083B963960FB6F894DEBF0FBECDBFDF91C2
S1130E40CF911F910F91FF90EF90DF90CF90BF90C3
S1130E50AF909F908F907F906F905F904F903F9056
S1130E602F90089585B7806885BF88E680936D00CC
S1130E7082E880936C0008950F931F93CF93DF93C0
S1130E80A62FB0E0109769F1FC01319680E090E064
S1130E90408150E060E070E0BA0155274427228188
S1130EA0422B018110E0102F0027012E000C220B91
S1130EB0330B402B512B622B732BEC01CC0FDD1F1A
S1130EC0CC0FDD1FC755D94F488359836A837B8371
S1130ED0EC01C75EDA4F1882019634968A179B0795
S1130EE0B9F680918B08846080938B08DF91CF9151
S1130EF01F910F910895CF92DF92EF92FF92CF93BB
S1130F00DF93A62FB0E0109761F1FC01319680E0E9
S1130F1090E030812181428150E060E070E06A011C
S1130F207B01E32A30E0522F4427052E000C660B88
S1130F30770B4C295D296E297F29EC01CC0FDD1F2D
S1130F40CC0FDD1FC75FD94F488359836A837B83E6
S1130F50EC01CF50DB4F1882019634968A179B0719
S1130F60C1F680918B08886080938B08DF91CF91C4
S1130F70FF90EF90DF90CF90089590E0009761F09C
S1130F800196E5E0F1E121E030E020832F5F3F4F5F
S1130F903A9628173907C9F70895462F50E04115A6
S1130FA0510579F0FC01319620E030E08081D901CF
S1130FB0A75EBA4F8C932F5F3F4F329624173507A5
S1130FC0A9F780918B08806280938B08089570E064
S1130FD06115710579F0FC01319620E030E08081E3
S1130FE0D901AF50BB4F8C932F5F3F4F32962617DA
S1130FF03707A9F780918B08806480938B08089544
S1131000CF93DF93C62FD0E02097F9F0BC016F5F38
S11310107F4FCC0FDD1FCC0FDD1F20E030E010C070
S11310209191D901AF5EBC4F9C932F5F3F4F421704
S11310305307B1F76B5F7F4F9A014C175D0729F097
S1131040A9014C5F5F4FFB01EBCF80918B0880615E
S113105080938B08DF91CF9108951F93CF93DF93F3
S1131060EC01162F30DA412F50E041155105B1F053
S1131070DE01119680E090E02C912058FC01EF569F
S1131080FA4F2083EC91F0E0E55AF24F20812F5F74
S11310902083019612968417950771F780918B0827
S11310A0806880938B08DF91CF911F910895DF9220
S11310B0EF92FF920F931F93CF93DF9381D8D2DEE9
S11310C093D88093970898D880939C0899D8809354
S11310D01B0910928B0880919C08811115C098D827
S11310E0A1D81092B00D1092AF0D1092AE0D1092C7
S11310F0AD0D10929F0B10929E0B10929D0B1092AF
S11311009C0BACD9A5D910C084E680939608C3E0A3
S1131110C0938B0881E080938E0885E080939808C3
S113112084E62BDF95D9C5BD7894DD24D3940F2EA6
S1131130F6E0EF2EFEE0FF2EF02D66D881110AC0F6
S113114087EC90E00197F1F700C000005DD8882398
S113115009F4AEC1C0919208D09193081D2FDD23EC
S113116009F413C1CD2FD0FF2FC080918B088E7F3F
S113117080938B0873D9F70166817781769567959B
S11311807695679560939608609344098EE09EE097
S113119073DE80919608811107C040E050E060E062
S11311A070E082E40DD906C040E050E060E070E0F9
S11311B081E306D91092900810928E0810921003C1
S11311C01092930810929208C1FF2BC080918B0853
S11311D08D7F80938B0859D9F70166817781769545
S11311E06795769567956093950860931C098EE0E2
S11311F09EE081DE80919608811107C040E050E0B6
S113120060E070E082E4DCD806C040E050E060E0DA
S113121070E081E3D5D810928F0810929308109251
S11312209208C2FF1AC0609196088EE09EE015DF16
S113123080919608811107C040E050E060E070E0C2
S113124082E4BED806C040E050E060E070E081E394
S1131250B7D81092930810929208C3FF1DC0D09281
S11312608D08609196088EE09EE097DEF7D8809115
S11312709608811107C040E050E060E070E082E42D
S11312809FD806C040E050E060E070E081E398D869
S11312901092930810929208C4FF1DC0D0928C083B
S11312A0609196088EE09EE092DEEFD880919608D9
S11312B0811107C040E050E060E070E082E480D833
S11312C006C040E050E060E070E081E379D810921D
S11312D0930810929208C5FF22C019BE10928E087E
S11312E0609196088EE09EE08BDE10928A08109240
S11312F09008B4D880919608811107C040E050E06E
S113130060E070E082E45CD806C040E050E060E059
S113131070E081E355D81092930810929208C6FFAA
S113132018C010928D089AD880919608811107C030
S113133040E050E060E070E082E442D806C040E063
S113134050E060E070E081E33BD810929308109283
S1131350920811230CF0F1CE10928C0896D880914B
S11313609608811107C040E050E060E070E082E43C
S113137027D806C040E050E060E070E081E320D868
S11313801092930810929208D8CECC2309F4D5CEAB
S11313908E011127C0FF1BC060919608611107C020
S11313A040E050E060E070E082E40AD80CC070E0F5
S11313B06F5F7F4F759567956F5F7F4F44E459E08A
S11313C081E10E94E001109293081092920801FFBB
S11313D01EC080919608811108C040E050E060E092
S11313E070E082E40E94E0010EC06091950870E014
S11313F06F5F7F4F759567956F5F7F4F4CE159E045
S113140082E10E94E001109293081092920802FF78
S113141019C0D0928E0880919608811108C040E0CE
S113142050E060E070E082E40E94E00107C040E028
S113143050E060E070E081E30E94E00110929308C4
S11314401092920803FF19C010928E08809196089A
S1131450811108C040E050E060E070E082E40E9446
S1131460E00107C040E050E060E070E081E30E94EA
S1131470E0011092930810929208CC230CF05DCEF8
S113148080919608811108C040E050E060E070E06F
S113149082E40E94E00107C040E050E060E070E0B8
S11314A081E40E94E001109293081092920845CEC4
S11314B080E183B9C49880E090E0DF91CF911F91DF
S11314C00F91FF90EF90DF9008951F920F920FB647
S11314D00F9211240BB60F922F933F934F935F9368
S11314E06F937F938F939F93AF93BF93EF93FF93E8
S11314F08CB18093CA0B6091CA0B8DEC9BE00E9467
S11315001801811108C01092B00D1092AF0D109205
S1131510AE0D1092AD0D12BE84E083BFC49AC59A7D
S1131520C69AFF91EF91BF91AF919F918F917F9157
S11315306F915F914F913F912F910F900BBE0F9040
S11315400FBE0F901F9018951F920F920FB60F9217
S113155011240BB60F922F933F934F935F936F9386
S11315607F938F939F93AF93BF93EF93FF9312BE99
S1131570809194088F5F80939408809194088130BF
S113158009F0ADC013BE1092B00D1092AF0D1092C1
S1131590AE0D1092AD0D10929F0B10929E0B1092F7
S11315A09D0B10929C0B109294080E946B01813049
S11315B031F018F0833029F092C0C69890C0C698D4
S11315C08EC0E0910B0E8E2F90E0FC013197E23635
S11315D0F10508F07BC0EA5BFF4FEAC480919208F2
S11315E0909193089160909393088093920877C0A8
S11315F080919208909193089260909393088093BD
S113160092086DC080919208909193089460909391
S113161093088093920863C08091920890919308F4
S11316209860909393088093920859C0809192088F
S113163090919308906190939308809392084FC07F
S1131640809192089091930890629093930880936C
S1131650920845C080919208909193089064909369
S11316609308809392083BC08091920890919308CC
S11316709068909393088093920831C08091920867
S1131680909193088160909393088093920827C067
S1131690809192089091930882609093930880932C
S11316A092081DC080919208909193088460909351
S11316B093088093920813C08091920890919308A4
S11316C08860909393088093920809C0809192084F
S11316D09091930880689093930880939208FF9167
S11316E0EF91BF91AF919F918F917F916F915F9196
S11316F04F913F912F910F900BBE0F900FBE0F9003
S11317001F9018951F920F920FB60F9211240BB6CB
S11317100F922F933F934F935F936F937F938F9386
S11317209F93AF93BF93EF93FF936CE270E08CEBC6
S113173099E00E942F01813011F45598569AFF9137
S1131740EF91BF91AF919F918F917F916F915F9135
S11317504F913F912F910F900BBE0F900FBE0F90A2
S11317601F9018951F920F920FB60F9211248F930A
S11317705698579A1A9A83E085BD14BC8F910F909E
S11317800FBE0F901F9018951F920F920FB60F92D5
S113179011240BB60F92DF92EF92FF920F931F93D7
S11317A02F933F934F935F936F937F938F939F9365
S11317B0AF93BF93CF93DF93EF93FF9314BC8091C8
S11317C091088F5F80939108809191088F3108F47C
S11317D065C310929108909190088091960898178B
S11317E010F01092900880918F08909195088917B5
S11317F010F010928F0880918B0881708093B10D46
S113180080918B08827080931A0980918B08807173
S11318108093CB0B8091B10D813029F480911A090A
S1131820823009F40DC180918B0884708093C80BB9
S113183080918B0888708093DA0D8091C80B843076
S113184009F08EC08091100381111EC0E5E1F9E01A
S113185087E08083118212821382148240911509D9
S1131860509116096091170970911809809119090E
S11318700E946E0281E0809310038FE19EE4019741
S1131880F1F700C000000AC3A5E1B9E01C92E091A1
S11318909008F0E0EE0FFF1FEE0FFF1FE755F94F22
S11318A04081518162817381AB016627772711964C
S11318B04C931197E0919008F0E0EE0FFF1FEE0FAC
S11318C0FF1FE755F94F4081518162817381452F94
S11318D0562F672F772712964C931297E091900812
S11318E0F0E0EE0FFF1FEE0FFF1FE755F94F4081A9
S11318F051816281738113964C9313978091900860
S11319008F5F14968C93C5982091900830E0809155
S1131910960890E001972817390771F480918B0895
S1131920816080938B0880918B088B7F80938B08D8
S113193010929008C59A05C0809190088F5F80939B
S113194090084091150950911609609117097091FA
S11319501809809119090E946E0280E489BF9EC211
S11319608091DA0D883009F099C2A5E1B9E082E0EE
S11319708C93E0918F08F0E0EE0FFF1FEE0FFF1F36
S1131980E75FF94F4081518162817381AB01662722
S1131990772711964C931197E0918F08F0E0EE0FA2
S11319A0FF1FEE0FFF1FE75FF94F408151816281F6
S11319B07381452F562F672F772712964C931297D2
S11319C0E0918F08F0E0EE0FFF1FEE0FFF1FE75FBF
S11319D0F94F408151816281738113964C9313971F
S11319E080918F088F5F14968C93C59820918F08EF
S11319F030E08091950890E001972817390771F439
S1131A0080918B08826080938B0880918B08877FFC
S1131A1080938B0810928F08C59A05C080918F0817
S1131A208F5F80938F08409115095091160960913A
S1131A30170970911809809119090E946E022EC22B
S1131A408091B10D813009F097C080911A098230DC
S1131A5009F092C08091CB0B803109F08DC0C598FC
S1131A60E8E9F8E081E08083809190088F5F8183CA
S1131A7080918A0881110FC0DF018CE08283E0919C
S1131A80900894E0E99FF0011124EF5EFC4F8081FF
S1131A9013968C9341C080918A08813091F4A8E90F
S1131AA0B8E08DE012968C931297E091900884E050
S1131AB0E89FF0011124EE5EFC4F808113968C9315
S1131AC02BC080918A08823091F4A8E9B8E08EE0B6
S1131AD012968C931297E091900894E0E99FF0019C
S1131AE01124ED5EFC4F808113968C9315C0809178
S1131AF08A08833089F4A8E9B8E08FE012968C93C1
S1131B001297E091900884E0E89FF0011124EC5EC4
S1131B10FC4F808113968C9380918A08833041F422
S1131B2010928A08809190088F5F8093900805C076
S1131B3080918A088F5F80938A082091900830E012
S1131B408091960890E001972817390751F4C59AB7
S1131B5080918B088F7E80938B0810928908109255
S1131B609008609198087091990880919A089091D2
S1131B709B080E944A0592C180918E08813009F029
S1131B808DC180919C0881114BC0E8E9F8E083E0A5
S1131B90808380918F088F5F818380918C0881304E
S1131BA079F4E0918F08F0E0EF50FB4F80818111D0
S1131BB00DC0E0918F08F0E0E056F44F808106C03C
S1131BC0E0919908F0E0E156F44F808120911B09DF
S1131BD0213009F486E0E8E9F8E082831382209159
S1131BE08F0830E0892F90E001972817390719F4FE
S1131BF010928F0805C080918F088F5F80938F08A3
S1131C00609198087091990880919A0890919B0826
S1131C100E944A05EFE1FEE43197F1F700C00000AD
S1131C2080919C08882311F084E001C081E0E8E9F8
S1131C30F8E08083809190088F5F818380919C0875
S1131C40811106C0E0919008F0E0E75EFA4F8081D0
S1131C50809199088093C90B80919C088111C59843
S1131C6080918D08813009F013C1E0919008F0E073
S1131C70E75EFA4F808190911B099130D1F0833057
S1131C80F1F028F4813009F1823029F12AC085303D
S1131C9051F018F0863029F50CC0E8E9F8E084E04A
S1131CA08283138223C0E8E9F8E085E0828313820B
S1131CB01DC0E8E9F8E086E08283138217C0E8E9F2
S1131CC0F8E083E08283138211C0E8E9F8E088E059
S1131CD0828313820BC0E8E9F8E088E082831382F0
S1131CE005C0E8E9F8E088E0828313822091900837
S1131CF030E08091960890E001972817390709F0A1
S1131D00B5C0109290080E945802C0919608C23043
S1131D10D8F181E090E0AC01BC0161507109DB01B4
S1131D20A051B04F3C91FC01E051F04FE081F0E153
S1131D303F9F900111243E2F3F70232BE82FE695FF
S1131D40F0E0EB5BF64F2083FB01EF56FA4FE081A6
S1131D502C91213031F0F0E0EE54F24F20812F5FCE
S1131D602083FA01EF56FA4FE081DA01A051B04F17
S1131D702C91213031F0F0E0EE54F24F20812F5FAE
S1131D80208302968C1738F210919508123008F4CB
S1131D9072C020E030E081E090E06894EE24E2F844
S1131DA00F2EF5E0FF2EF02D00E0D82EAC01DC0163
S1131DB0AE54B24F7C91DC01A552B24F6C917617B0
S1131DC010F0DF2D01C0DE2DB9016E5F7F4FDB0106
S1131DD0AE54B24FAC91FB01E552F24FF081AF1714
S1131DE010F0CF2D01C0CE2DDA01A356B74FFC91D0
S1131DF0F11101C0D02FDB01A356B74FFC91F111B3
S1131E0001C0C02FF0918C08F130A1F4D901AF507A
S1131E10BB4FFC91FF2321F0D901AF50BB4FDC91A4
S1131E20DA01AF50BB4FFC91FF2321F0DA01AF5030
S1131E30BB4FCC91E0E1DE9FD0011124FC2FFF7059
S1131E40AF2BED2DE695EF5FF0E0E45EF64FA08357
S1131E50F901E056F44FD083FA01E056F44FC08301
S1131E6002969B01811708F4A0CF05C080919008C9
S1131E708F5F809390086091980870919908809181
S1131E809A0890919B080E944A0580E489BF06C085
S1131E9080911B09813009F40CCF23CFFF91EF917E
S1131EA0DF91CF91BF91AF919F918F917F916F916E
S1131EB05F914F913F912F911F910F91FF90EF9060
S1131EC0DF900F900BBE0F900FBE0F901F901895D0
S1131ED01F920F920FB60F9211240BB60F922F93ED
S1131EE08F939F93AF93BF93EF93FF93C498E4E0D2
S1131EF0FEE088EF818381B187EB9BE00197F1F7E6
S1131F0000C0000081B1918186FB882780F9890F88
S1131F1081838FEC97E00197F1F700C0000091B145
S1131F20218196FB882780F9880F820F81838FECAB
S1131F3097E00197F1F700C0000091B1218196FB71
S1131F40882780F9880F880F820F81838FEC97E0B0
S1131F500197F1F700C00000A091C90BB0E08181A6
S1131F608095A151B04F8C938FE19EE40197F1F7D6
S1131F7000C00000A091C90BB0E0A057BA4FAC91CB
S1131F80B0E0A356B74F81E08C938181883F09F478
S1131F90C49A19BEFF91EF91BF91AF919F918F9118
S1131FA02F910F900BBE0F900FBE0F901F9018959E
S1131FB0EE0FFF1F0024001C0BBE0790F691E02DCE
S1091FC00994F894FFCF20
S1131FC60F070B030D0509010E060A020C0408008F
S1131FD60000891112239B322446AD573665BF741F
S1131FE6488CC19D5AAFD3BE6CCAE5DB7EE9F7F8CF
S1131FF68110080193331A22A5562C47B7753E64FF
S1132006C99C408DDBBF52AEEDDA64CBFFF976E8AE
S113201602218B30100299132667AF763444BD55DE
S11320264AADC3BC588ED19F6EEBE7FA7CC8F5D98E
S113203683310A2091121803A7772E66B5543C45BE
S1132046CBBD42ACD99E508FEFFB66EAFDD874C96E
S113205604428D5316619F702004A9153227BB369E
S11320664CCEC5DF5EEDD7FC6888E1997AABF3BA4E
S113207685520C4397711E60A1142805B3373A267E
S1132086CDDE44CFDFFD56ECE9986089FBBB72AA2E
S113209606638F7214409D512225AB343006B9175E
S11320A64EEFC7FE5CCCD5DD6AA9E3B8788AF19B0E
S11320B687730E6295501C41A3352A24B11638073E
S11320C6CFFF46EEDDDC54CDEBB962A8F99A708BEE
S11320D6088481951AA793B62CC2A5D33EE1B7F01E
S11320E64008C919522BDB3A644EED5F766DFF7CCE
S11320F6899400859BB712A6ADD224C3BFF136E0FE
S1132106C1184809D33B5A2AE55E6C4FF77D7E6CAD
S11321160AA583B4188691972EE3A7F23CC0B5D1DD
S11321264229CB38500AD91B666FEF7E744CFD5D8D
S11321368BB502A499961087AFF326E2BDD034C1BD
S1132146C3394A28D11A580BE77F6E6EF55C7C4D6D
S11321560CC685D71EE597F42880A1913AA3B3B29D
S1132166444ACD5B5669DF78600CE91D722FFB3E4D
S11321768DD604C79FF516E4A9902081BBB332A27D
S1132186C55A4C4BD7795E68E11C680DF33F7A2E2D
S11321960EE787F61CC495D52AA1A3B03882B1935D
S11321A6466BCF7A5448DD59622DEB3C700EF91F0D
S11321B68FF706E69DD414C5ABB122A0B99230833D
S11321C6C77B4E6AD5585C49E33D6A2CF11E780FED
S9030000FC
